{
  "abi": [
    {
      "inputs": [
        {
          "internalType": "address",
          "name": "_admin",
          "type": "address"
        },
        {
          "internalType": "contract IRiscZeroVerifier",
          "name": "_verifier",
          "type": "address"
        },
        {
          "internalType": "bytes32",
          "name": "_trustedHash",
          "type": "bytes32"
        },
        {
          "internalType": "uint64",
          "name": "_trustedHeight",
          "type": "uint64"
        }
      ],
      "stateMutability": "nonpayable",
      "type": "constructor"
    },
    {
      "inputs": [],
      "name": "acceptOwnership",
      "outputs": [],
      "stateMutability": "nonpayable",
      "type": "function"
    },
    {
      "inputs": [
        {
          "internalType": "bytes32",
          "name": "_imageId",
          "type": "bytes32"
        }
      ],
      "name": "adminSetImageId",
      "outputs": [],
      "stateMutability": "nonpayable",
      "type": "function"
    },
    {
      "inputs": [
        {
          "internalType": "bytes32",
          "name": "_trustedHash",
          "type": "bytes32"
        },
        {
          "internalType": "uint64",
          "name": "_trustedHeight",
          "type": "uint64"
        }
      ],
      "name": "adminSetTrustedState",
      "outputs": [],
      "stateMutability": "nonpayable",
      "type": "function"
    },
    {
      "inputs": [
        {
          "internalType": "contract IRiscZeroVerifier",
          "name": "_verifier",
          "type": "address"
        }
      ],
      "name": "adminSetVerifier",
      "outputs": [],
      "stateMutability": "nonpayable",
      "type": "function"
    },
    {
      "inputs": [],
      "name": "imageId",
      "outputs": [
        {
          "internalType": "bytes32",
          "name": "",
          "type": "bytes32"
        }
      ],
      "stateMutability": "view",
      "type": "function"
    },
    {
      "inputs": [],
      "name": "latestBlockHash",
      "outputs": [
        {
          "internalType": "bytes32",
          "name": "",
          "type": "bytes32"
        }
      ],
      "stateMutability": "view",
      "type": "function"
    },
    {
      "inputs": [],
      "name": "latestHeight",
      "outputs": [
        {
          "internalType": "uint64",
          "name": "",
          "type": "uint64"
        }
      ],
      "stateMutability": "view",
      "type": "function"
    },
    {
      "inputs": [],
      "name": "owner",
      "outputs": [
        {
          "internalType": "address",
          "name": "",
          "type": "address"
        }
      ],
      "stateMutability": "view",
      "type": "function"
    },
    {
      "inputs": [],
      "name": "pendingOwner",
      "outputs": [
        {
          "internalType": "address",
          "name": "",
          "type": "address"
        }
      ],
      "stateMutability": "view",
      "type": "function"
    },
    {
      "inputs": [],
      "name": "proofNonce",
      "outputs": [
        {
          "internalType": "uint256",
          "name": "",
          "type": "uint256"
        }
      ],
      "stateMutability": "view",
      "type": "function"
    },
    {
      "inputs": [],
      "name": "renounceOwnership",
      "outputs": [],
      "stateMutability": "nonpayable",
      "type": "function"
    },
    {
      "inputs": [
        {
          "internalType": "address",
          "name": "newOwner",
          "type": "address"
        }
      ],
      "name": "transferOwnership",
      "outputs": [],
      "stateMutability": "nonpayable",
      "type": "function"
    },
    {
      "inputs": [
        {
          "internalType": "bytes",
          "name": "_commitBytes",
          "type": "bytes"
        },
        {
          "internalType": "bytes",
          "name": "_seal",
          "type": "bytes"
        }
      ],
      "name": "updateRange",
      "outputs": [],
      "stateMutability": "nonpayable",
      "type": "function"
    },
    {
      "inputs": [],
      "name": "verifier",
      "outputs": [
        {
          "internalType": "contract IRiscZeroVerifier",
          "name": "",
          "type": "address"
        }
      ],
      "stateMutability": "view",
      "type": "function"
    },
    {
      "inputs": [
        {
          "internalType": "uint256",
          "name": "_proofNonce",
          "type": "uint256"
        },
        {
          "components": [
            {
              "internalType": "uint256",
              "name": "height",
              "type": "uint256"
            },
            {
              "internalType": "bytes32",
              "name": "dataRoot",
              "type": "bytes32"
            }
          ],
          "internalType": "struct DataRootTuple",
          "name": "_tuple",
          "type": "tuple"
        },
        {
          "components": [
            {
              "internalType": "bytes32[]",
              "name": "sideNodes",
              "type": "bytes32[]"
            },
            {
              "internalType": "uint256",
              "name": "key",
              "type": "uint256"
            },
            {
              "internalType": "uint256",
              "name": "numLeaves",
              "type": "uint256"
            }
          ],
          "internalType": "struct BinaryMerkleProof",
          "name": "_proof",
          "type": "tuple"
        }
      ],
      "name": "verifyAttestation",
      "outputs": [
        {
          "internalType": "bool",
          "name": "",
          "type": "bool"
        }
      ],
      "stateMutability": "view",
      "type": "function"
    },
    {
      "anonymous": false,
      "inputs": [
        {
          "indexed": false,
          "internalType": "uint256",
          "name": "proofNonce",
          "type": "uint256"
        },
        {
          "indexed": true,
          "internalType": "uint64",
          "name": "startBlock",
          "type": "uint64"
        },
        {
          "indexed": true,
          "internalType": "uint64",
          "name": "endBlock",
          "type": "uint64"
        },
        {
          "indexed": true,
          "internalType": "bytes32",
          "name": "dataCommitment",
          "type": "bytes32"
        }
      ],
      "name": "DataCommitmentStored",
      "type": "event"
    },
    {
      "anonymous": false,
      "inputs": [
        {
          "indexed": false,
          "internalType": "uint64",
          "name": "blockNumber",
          "type": "uint64"
        },
        {
          "indexed": false,
          "internalType": "bytes32",
          "name": "headerHash",
          "type": "bytes32"
        }
      ],
      "name": "HeadUpdate",
      "type": "event"
    },
    {
      "anonymous": false,
      "inputs": [
        {
          "indexed": true,
          "internalType": "address",
          "name": "previousOwner",
          "type": "address"
        },
        {
          "indexed": true,
          "internalType": "address",
          "name": "newOwner",
          "type": "address"
        }
      ],
      "name": "OwnershipTransferStarted",
      "type": "event"
    },
    {
      "anonymous": false,
      "inputs": [
        {
          "indexed": true,
          "internalType": "address",
          "name": "previousOwner",
          "type": "address"
        },
        {
          "indexed": true,
          "internalType": "address",
          "name": "newOwner",
          "type": "address"
        }
      ],
      "name": "OwnershipTransferred",
      "type": "event"
    },
    {
      "anonymous": false,
      "inputs": [
        {
          "indexed": false,
          "internalType": "uint64",
          "name": "trustedBlock",
          "type": "uint64"
        },
        {
          "indexed": false,
          "internalType": "uint64",
          "name": "targetBlock",
          "type": "uint64"
        },
        {
          "indexed": false,
          "internalType": "uint256",
          "name": "validatorBitmap",
          "type": "uint256"
        }
      ],
      "name": "ValidatorBitmapEquivocation",
      "type": "event"
    },
    {
      "inputs": [],
      "name": "InvalidTargetHeight",
      "type": "error"
    },
    {
      "inputs": [],
      "name": "InvalidTrustedHeaderHash",
      "type": "error"
    },
    {
      "inputs": [
        {
          "internalType": "address",
          "name": "owner",
          "type": "address"
        }
      ],
      "name": "OwnableInvalidOwner",
      "type": "error"
    },
    {
      "inputs": [
        {
          "internalType": "address",
          "name": "account",
          "type": "address"
        }
      ],
      "name": "OwnableUnauthorizedAccount",
      "type": "error"
    }
  ],
  "bytecode": {
    "linkReferences": {},
    "object": "0x60806040527f7c4d4662f341e9147ab7b60c4dedce832d331f65df62ee43b09abdff5d8283e36003553480156200003557600080fd5b50604051620013cd380380620013cd833981016040819052620000589162000167565b836001600160a01b0381166200008857604051631e4fbdf760e01b81526000600482015260240160405180910390fd5b6200009381620000e3565b50600280546001600160a01b0319166001600160a01b039490941693909317909255600655600580546001600160401b0319166001600160401b03909216919091179055506001600455620001ce565b600180546001600160a01b0319169055620000fe8162000101565b50565b600080546001600160a01b038381166001600160a01b0319831681178455604051919092169283917f8be0079c531659141344cd1fd0a4f28419497f9722a3daafe3b4186f6b6457e09190a35050565b6001600160a01b0381168114620000fe57600080fd5b600080600080608085870312156200017e57600080fd5b84516200018b8162000151565b60208601519094506200019e8162000151565b6040860151606087015191945092506001600160401b0381168114620001c357600080fd5b939692955090935050565b6111ef80620001de6000396000f3fe608060405234801561001057600080fd5b50600436106100f55760003560e01c8063a7e4762911610097578063e405bbc311610066578063e405bbc3146101da578063e6679c2614610205578063ef3f7dd514610218578063f2fde38b1461022157600080fd5b8063a7e476291461019a578063c532514b146101ad578063ce0bb7e4146101c0578063e30c3978146101c957600080fd5b80636c4f6ba9116100d35780636c4f6ba914610162578063715018a61461017957806379ba5097146101815780638da5cb5b1461018957600080fd5b80631f3302a9146100fa57806323a4608b146101225780632b7ac3f314610137575b600080fd5b61010d610108366004610d94565b610234565b60405190151581526020015b60405180910390f35b610135610130366004610ed1565b6102a1565b005b60025461014a906001600160a01b031681565b6040516001600160a01b039091168152602001610119565b61016b60065481565b604051908152602001610119565b6101356102d1565b6101356102e5565b6000546001600160a01b031661014a565b6101356101a8366004610efd565b61032e565b6101356101bb366004610f5e565b61033b565b61016b60045481565b6001546001600160a01b031661014a565b6005546101ed906001600160401b031681565b6040516001600160401b039091168152602001610119565b610135610213366004610fde565b6105a7565b61016b60035481565b61013561022f366004610fde565b6105d1565b600083158061024557506004548410155b156102525750600061029a565b60008481526007602090815260408083205481518751818501529287015183830152815180840383018152606090930190915291906102949083908690610642565b50925050505b9392505050565b6102a9610743565b6006919091556005805467ffffffffffffffff19166001600160401b03909216919091179055565b6102d9610743565b6102e36000610770565b565b60015433906001600160a01b031681146103225760405163118cdaa760e01b81526001600160a01b03821660048201526024015b60405180910390fd5b61032b81610770565b50565b610336610743565b600355565b600061034984860186610ffb565b60055460208201519192506001600160401b0390811691161161037f5760405163145ce5ff60e11b815260040160405180910390fd5b6006548151146103a2576040516352c6046360e01b815260040160405180910390fd5b600280546003546040516001600160a01b039092169263ab750e75928792879290916103d1908c908c9061106f565b602060405180830381855afa1580156103ee573d6000803e3d6000fd5b5050506040513d601f19601f82011682018060405250810190610411919061107f565b6040518563ffffffff1660e01b81526004016104309493929190611098565b60006040518083038186803b15801561044857600080fd5b505afa15801561045c573d6000803e3d6000fd5b50505060608201516020808401516005546004546040519081529394506001600160401b03918216939116917f34dd3689f5bd77a60a3ff2e09483dcab032fa2f1fd7227af3e24bed21beab1cb910160405180910390a46005546020828101516080840151604080516001600160401b03958616815294909216928401929092528201527f034c7608fd99db72330fdb1bcf6386af42ee9b6125664743942b942a8df4a3519060600160405180910390a16020818101516005805467ffffffffffffffff19166001600160401b03909216918217905560408084015160068190558151928352928201929092527f292f5abc3167175400fca463fa99530cda826ec53ec5eb1f3a2776006dacd75d910160405180910390a160608101516004805460009081526007602052604081209290925580549161059b836110ee565b91905055505050505050565b6105af610743565b600280546001600160a01b0319166001600160a01b0392909216919091179055565b6105d9610743565b600180546001600160a01b0383166001600160a01b0319909116811790915561060a6000546001600160a01b031690565b6001600160a01b03167f38d16b8cac22d99fc7c124b9cd0de2d3fa1faef420bfe791d8c362d765e2270060405160405180910390a350565b600080600184604001511161066a5783515115610665575060009050600161073b565b610690565b61067c84602001518560400151610789565b84515114610690575060009050600161073b565b83604001518460200151106106ab575060009050600261073b565b60006106b684610821565b8551519091506000036106e95784604001516001036106dc57851491506000905061073b565b600080925092505061073b565b60008061070487602001518860400151858a60000151610896565b9092509050600081600581111561071d5761071d611107565b146107305760009450925061073b915050565b508614925060009150505b935093915050565b6000546001600160a01b031633146102e35760405163118cdaa760e01b8152336004820152602401610319565b600180546001600160a01b031916905561032b81610a20565b60006001821161079b5750600061081b565b6107a482610a70565b6107b09061010061111d565b905060006107bf60018361111d565b6001901b90506001816107d2919061111d565b84116107de575061081b565b806001036107f057600191505061081b565b61080c6107fd828661111d565b610807838661111d565b610789565b610817906001611130565b9150505b92915050565b60006002600060f81b8360405160200161083c929190611173565b60408051601f198184030181529082905261085691611197565b602060405180830381855afa158015610873573d6000803e3d6000fd5b5050506040513d601f19601f8201168201806040525081019061081b919061107f565b600080846000036108ac57508290506003610a17565b846001036108d1578251156108c657508290506004610a17565b508290506000610a17565b82516000036108e557508290506005610a17565b60006108f086610a9d565b9050600061090d85600060018851610908919061111d565b610ade565b90506000828910156109915760006109278a858a86610896565b92509050600082600581111561093f5761093f611107565b1461095257508694509250610a17915050565b610982818860018a51610965919061111d565b81518110610975576109756111a3565b6020026020010151610c63565b60009550955050505050610a17565b60006109b16109a0858c61111d565b6109aa868c61111d565b8a86610896565b9250905060008260058111156109c9576109c9611107565b146109dc57508694509250610a17915050565b610a0c87600189516109ee919061111d565b815181106109fe576109fe6111a3565b602002602001015182610c63565b600095509550505050505b94509492505050565b600080546001600160a01b038381166001600160a01b0319831681178455604051919092169283917f8be0079c531659141344cd1fd0a4f28419497f9722a3daafe3b4186f6b6457e09190a35050565b60005b81816001901b1015610a9157610a8a600182611130565b9050610a73565b61081b8161010061111d565b60006001821015610aad57600080fd5b6000610ab883610ce1565b90506000610ac760018361111d565b6001901b905083810361029a5760011c9392505050565b606081831115610b435760405162461bcd60e51b815260206004820152602a60248201527f496e76616c69642072616e67653a205f626567696e2069732067726561746572604482015269081d1a185b8817d95b9960b21b6064820152608401610319565b8351831180610b525750835182115b15610bb75760405162461bcd60e51b815260206004820152602f60248201527f496e76616c69642072616e67653a205f626567696e206f72205f656e6420617260448201526e65206f7574206f6620626f756e647360881b6064820152608401610319565b6000610bc3848461111d565b6001600160401b03811115610bda57610bda610d04565b604051908082528060200260200182016040528015610c03578160200160208202803683370190505b509050835b83811015610c5a57858181518110610c2257610c226111a3565b6020026020010151828683610c37919061111d565b81518110610c4757610c476111a3565b6020908102919091010152600101610c08565b50949350505050565b604051600160f81b6020820152602181018390526041810182905260009060029060610160408051601f1981840301815290829052610ca191611197565b602060405180830381855afa158015610cbe573d6000803e3d6000fd5b5050506040513d601f19601f8201168201806040525081019061029a919061107f565b6000805b821561081b5780610cf5816110ee565b915050600183901c9250610ce5565b634e487b7160e01b600052604160045260246000fd5b604080519081016001600160401b0381118282101715610d3c57610d3c610d04565b60405290565b604051606081016001600160401b0381118282101715610d3c57610d3c610d04565b604051601f8201601f191681016001600160401b0381118282101715610d8c57610d8c610d04565b604052919050565b60008060008385036080811215610daa57600080fd5b8435935060206040601f1983011215610dc257600080fd5b610dca610d1a565b8682013581526040870135828201529350606086013591506001600160401b0380831115610df757600080fd5b9186019160608389031215610e0b57600080fd5b610e13610d42565b833582811115610e2257600080fd5b8401601f81018a13610e3357600080fd5b803583811115610e4557610e45610d04565b8060051b9350610e56858501610d64565b818152938201850193858101908c861115610e7057600080fd5b928601925b85841015610e8e57833582529286019290860190610e75565b80855250505050828401358382015260408401356040820152809450505050509250925092565b80356001600160401b0381168114610ecc57600080fd5b919050565b60008060408385031215610ee457600080fd5b82359150610ef460208401610eb5565b90509250929050565b600060208284031215610f0f57600080fd5b5035919050565b60008083601f840112610f2857600080fd5b5081356001600160401b03811115610f3f57600080fd5b602083019150836020828501011115610f5757600080fd5b9250929050565b60008060008060408587031215610f7457600080fd5b84356001600160401b0380821115610f8b57600080fd5b610f9788838901610f16565b90965094506020870135915080821115610fb057600080fd5b50610fbd87828801610f16565b95989497509550505050565b6001600160a01b038116811461032b57600080fd5b600060208284031215610ff057600080fd5b813561029a81610fc9565b600060a0828403121561100d57600080fd5b60405160a081018181106001600160401b038211171561102f5761102f610d04565b6040528235815261104260208401610eb5565b60208201526040830135604082015260608301356060820152608083013560808201528091505092915050565b8183823760009101908152919050565b60006020828403121561109157600080fd5b5051919050565b606081528360608201528385608083013760006080858301015260006080601f19601f870116830101905083602083015282604083015295945050505050565b634e487b7160e01b600052601160045260246000fd5b600060018201611100576111006110d8565b5060010190565b634e487b7160e01b600052602160045260246000fd5b8181038181111561081b5761081b6110d8565b8082018082111561081b5761081b6110d8565b6000815160005b81811015611164576020818501810151868301520161114a565b50600093019283525090919050565b6001600160f81b031983168152600061118f6001830184611143565b949350505050565b600061029a8284611143565b634e487b7160e01b600052603260045260246000fdfea26469706673582212208546ce46f19cb37e225de6be3473073351863a83d49b42391fd630904825888e64736f6c63430008170033"
  },
  "id": 13,
  "methodIdentifiers": {
    "acceptOwnership()": "79ba5097",
    "adminSetImageId(bytes32)": "a7e47629",
    "adminSetTrustedState(bytes32,uint64)": "23a4608b",
    "adminSetVerifier(address)": "e6679c26",
    "imageId()": "ef3f7dd5",
    "latestBlockHash()": "6c4f6ba9",
    "latestHeight()": "e405bbc3",
    "owner()": "8da5cb5b",
    "pendingOwner()": "e30c3978",
    "proofNonce()": "ce0bb7e4",
    "renounceOwnership()": "715018a6",
    "transferOwnership(address)": "f2fde38b",
    "updateRange(bytes,bytes)": "c532514b",
    "verifier()": "2b7ac3f3",
    "verifyAttestation(uint256,(uint256,bytes32),(bytes32[],uint256,uint256))": "1f3302a9"
  }
}