{
  "abi": [
    {
      "type": "constructor",
      "inputs": [
        {
          "name": "_verifier",
          "type": "address",
          "internalType": "contract IRiscZeroVerifier"
        },
        {
          "name": "_trustedHash",
          "type": "bytes32",
          "internalType": "bytes32"
        },
        {
          "name": "_trustedHeight",
          "type": "uint64",
          "internalType": "uint64"
        }
      ],
      "stateMutability": "nonpayable"
    },
    {
      "type": "function",
      "name": "imageId",
      "inputs": [],
      "outputs": [
        {
          "name": "",
          "type": "bytes32",
          "internalType": "bytes32"
        }
      ],
      "stateMutability": "view"
    },
    {
      "type": "function",
      "name": "latestBlockHash",
      "inputs": [],
      "outputs": [
        {
          "name": "",
          "type": "bytes32",
          "internalType": "bytes32"
        }
      ],
      "stateMutability": "view"
    },
    {
      "type": "function",
      "name": "proofNonce",
      "inputs": [],
      "outputs": [
        {
          "name": "",
          "type": "uint256",
          "internalType": "uint256"
        }
      ],
      "stateMutability": "view"
    },
    {
      "type": "function",
      "name": "updateRange",
      "inputs": [
        {
          "name": "_commit",
          "type": "tuple",
          "internalType": "struct RangeCommitment",
          "components": [
            {
              "name": "trustedHeaderHash",
              "type": "bytes32",
              "internalType": "bytes32"
            },
            {
              "name": "newHeight",
              "type": "uint64",
              "internalType": "uint64"
            },
            {
              "name": "newHeaderHash",
              "type": "bytes32",
              "internalType": "bytes32"
            },
            {
              "name": "merkleRoot",
              "type": "bytes32",
              "internalType": "bytes32"
            }
          ]
        },
        {
          "name": "_seal",
          "type": "bytes",
          "internalType": "bytes"
        }
      ],
      "outputs": [],
      "stateMutability": "nonpayable"
    },
    {
      "type": "function",
      "name": "verifier",
      "inputs": [],
      "outputs": [
        {
          "name": "",
          "type": "address",
          "internalType": "contract IRiscZeroVerifier"
        }
      ],
      "stateMutability": "view"
    },
    {
      "type": "function",
      "name": "verifyAttestation",
      "inputs": [
        {
          "name": "_proofNonce",
          "type": "uint256",
          "internalType": "uint256"
        },
        {
          "name": "_tuple",
          "type": "tuple",
          "internalType": "struct DataRootTuple",
          "components": [
            {
              "name": "height",
              "type": "uint256",
              "internalType": "uint256"
            },
            {
              "name": "dataRoot",
              "type": "bytes32",
              "internalType": "bytes32"
            }
          ]
        },
        {
          "name": "_proof",
          "type": "tuple",
          "internalType": "struct BinaryMerkleProof",
          "components": [
            {
              "name": "sideNodes",
              "type": "bytes32[]",
              "internalType": "bytes32[]"
            },
            {
              "name": "key",
              "type": "uint256",
              "internalType": "uint256"
            },
            {
              "name": "numLeaves",
              "type": "uint256",
              "internalType": "uint256"
            }
          ]
        }
      ],
      "outputs": [
        {
          "name": "",
          "type": "bool",
          "internalType": "bool"
        }
      ],
      "stateMutability": "view"
    },
    {
      "type": "event",
      "name": "DataCommitmentStored",
      "inputs": [
        {
          "name": "proofNonce",
          "type": "uint256",
          "indexed": false,
          "internalType": "uint256"
        },
        {
          "name": "startBlock",
          "type": "uint64",
          "indexed": true,
          "internalType": "uint64"
        },
        {
          "name": "endBlock",
          "type": "uint64",
          "indexed": true,
          "internalType": "uint64"
        },
        {
          "name": "dataCommitment",
          "type": "bytes32",
          "indexed": true,
          "internalType": "bytes32"
        }
      ],
      "anonymous": false
    },
    {
      "type": "event",
      "name": "HeadUpdate",
      "inputs": [
        {
          "name": "blockNumber",
          "type": "uint64",
          "indexed": false,
          "internalType": "uint64"
        },
        {
          "name": "headerHash",
          "type": "bytes32",
          "indexed": false,
          "internalType": "bytes32"
        }
      ],
      "anonymous": false
    },
    {
      "type": "error",
      "name": "InvalidTargetHeight",
      "inputs": []
    }
  ],
  "bytecode": {
    "object": "0x60a060405234801561001057600080fd5b50604051610e9d380380610e9d83398101604081905261002f91610068565b6001600160a01b0392909216608052600255600180546001600160401b0319166001600160401b039092169190911781556000556100c3565b60008060006060848603121561007d57600080fd5b83516001600160a01b038116811461009457600080fd5b6020850151604086015191945092506001600160401b03811681146100b857600080fd5b809150509250925092565b608051610db96100e460003960008181609401526102190152610db96000f3fe608060405234801561001057600080fd5b50600436106100625760003560e01c80631f3302a9146100675780632b7ac3f31461008f5780636c4f6ba9146100ce5780638a9fbdec146100e5578063ce0bb7e4146100fa578063ef3f7dd514610103575b600080fd5b61007a610075366004610a2c565b61012a565b60405190151581526020015b60405180910390f35b6100b67f000000000000000000000000000000000000000000000000000000000000000081565b6040516001600160a01b039091168152602001610086565b6100d760025481565b604051908152602001610086565b6100f86100f3366004610b97565b610197565b005b6100d760005481565b6100d77fb0619d8d53a170cb852930a594fabf133e9761db3cc44a71224132ebfa8f3b9381565b600083158061013b57506000548410155b1561014857506000610190565b600084815260036020908152604080832054815187518185015292870151838301528151808403830181526060909301909152919061018a9083908690610367565b50925050505b9392505050565b600154602084015167ffffffffffffffff9182169116116101cb5760405163145ce5ff60e11b815260040160405180910390fd5b60408051845160208083019190915285015167ffffffffffffffff168183015290840151606080830191909152840151608082015260009060a00160405160208183030381529060405290507f00000000000000000000000000000000000000000000000000000000000000006001600160a01b031663ab750e7584847fb0619d8d53a170cb852930a594fabf133e9761db3cc44a71224132ebfa8f3b9360001b60028660405161027c9190610c79565b602060405180830381855afa158015610299573d6000803e3d6000fd5b5050506040513d601f19601f820116820180604052508101906102bc9190610c85565b6040518563ffffffff1660e01b81526004016102db9493929190610c9e565b60006040518083038186803b1580156102f357600080fd5b505afa158015610307573d6000803e3d6000fd5b505050506020848101516001805467ffffffffffffffff191667ffffffffffffffff90921691909117905560408086015160025560608601516000805481526003909352908220558054908061035c83610cf4565b919050555050505050565b600080600184604001511161038f578351511561038a5750600090506001610460565b6103b5565b6103a184602001518560400151610468565b845151146103b55750600090506001610460565b83604001518460200151106103d05750600090506002610460565b60006103db84610500565b85515190915060000361040e578460400151600103610401578514915060009050610460565b6000809250925050610460565b60008061042987602001518860400151858a60000151610575565b9092509050600081600581111561044257610442610d0d565b1461045557600094509250610460915050565b508614925060009150505b935093915050565b60006001821161047a575060006104fa565b610483826106ff565b61048f90610100610d23565b9050600061049e600183610d23565b6001901b90506001816104b19190610d23565b84116104bd57506104fa565b806001036104cf5760019150506104fa565b6104eb6104dc8286610d23565b6104e68386610d23565b610468565b6104f6906001610d36565b9150505b92915050565b60006002600060f81b8360405160200161051b929190610d49565b60408051601f198184030181529082905261053591610c79565b602060405180830381855afa158015610552573d6000803e3d6000fd5b5050506040513d601f19601f820116820180604052508101906104fa9190610c85565b6000808460000361058b575082905060036106f6565b846001036105b0578251156105a5575082905060046106f6565b5082905060006106f6565b82516000036105c4575082905060056106f6565b60006105cf8661072c565b905060006105ec856000600188516105e79190610d23565b61076d565b90506000828910156106705760006106068a858a86610575565b92509050600082600581111561061e5761061e610d0d565b14610631575086945092506106f6915050565b610661818860018a516106449190610d23565b8151811061065457610654610d6d565b60200260200101516108f8565b600095509550505050506106f6565b600061069061067f858c610d23565b610689868c610d23565b8a86610575565b9250905060008260058111156106a8576106a8610d0d565b146106bb575086945092506106f6915050565b6106eb87600189516106cd9190610d23565b815181106106dd576106dd610d6d565b6020026020010151826108f8565b600095509550505050505b94509492505050565b60005b81816001901b101561072057610719600182610d36565b9050610702565b6104fa81610100610d23565b6000600182101561073c57600080fd5b600061074783610976565b90506000610756600183610d23565b6001901b90508381036101905760011c9392505050565b6060818311156107d75760405162461bcd60e51b815260206004820152602a60248201527f496e76616c69642072616e67653a205f626567696e2069732067726561746572604482015269081d1a185b8817d95b9960b21b60648201526084015b60405180910390fd5b83518311806107e65750835182115b1561084b5760405162461bcd60e51b815260206004820152602f60248201527f496e76616c69642072616e67653a205f626567696e206f72205f656e6420617260448201526e65206f7574206f6620626f756e647360881b60648201526084016107ce565b60006108578484610d23565b67ffffffffffffffff81111561086f5761086f610999565b604051908082528060200260200182016040528015610898578160200160208202803683370190505b509050835b838110156108ef578581815181106108b7576108b7610d6d565b60200260200101518286836108cc9190610d23565b815181106108dc576108dc610d6d565b602090810291909101015260010161089d565b50949350505050565b604051600160f81b6020820152602181018390526041810182905260009060029060610160408051601f198184030181529082905261093691610c79565b602060405180830381855afa158015610953573d6000803e3d6000fd5b5050506040513d601f19601f820116820180604052508101906101909190610c85565b6000805b82156104fa578061098a81610cf4565b915050600183901c925061097a565b634e487b7160e01b600052604160045260246000fd5b6040805190810167ffffffffffffffff811182821017156109d2576109d2610999565b60405290565b6040516060810167ffffffffffffffff811182821017156109d2576109d2610999565b604051601f8201601f1916810167ffffffffffffffff81118282101715610a2457610a24610999565b604052919050565b60008060008385036080811215610a4257600080fd5b8435935060206040601f1983011215610a5a57600080fd5b610a626109af565b86820135815260408701358282015293506060860135915067ffffffffffffffff80831115610a9057600080fd5b9186019160608389031215610aa457600080fd5b610aac6109d8565b833582811115610abb57600080fd5b8401601f81018a13610acc57600080fd5b803583811115610ade57610ade610999565b8060051b9350610aef8585016109fb565b818152938201850193858101908c861115610b0957600080fd5b928601925b85841015610b2757833582529286019290860190610b0e565b80855250505050828401358382015260408401356040820152809450505050509250925092565b60008083601f840112610b6057600080fd5b50813567ffffffffffffffff811115610b7857600080fd5b602083019150836020828501011115610b9057600080fd5b9250929050565b600080600083850360a0811215610bad57600080fd5b6080811215610bbb57600080fd5b506040516080810167ffffffffffffffff8282108183111715610be057610be0610999565b8160405286358352602087013591508082168214610bfd57600080fd5b81602084015260408701356040840152606087013560608401528295506080870135925080831115610c2e57600080fd5b5050610c3c86828701610b4e565b9497909650939450505050565b6000815160005b81811015610c6a5760208185018101518683015201610c50565b50600093019283525090919050565b60006101908284610c49565b600060208284031215610c9757600080fd5b5051919050565b606081528360608201528385608083013760006080858301015260006080601f19601f870116830101905083602083015282604083015295945050505050565b634e487b7160e01b600052601160045260246000fd5b600060018201610d0657610d06610cde565b5060010190565b634e487b7160e01b600052602160045260246000fd5b818103818111156104fa576104fa610cde565b808201808211156104fa576104fa610cde565b6001600160f81b0319831681526000610d656001830184610c49565b949350505050565b634e487b7160e01b600052603260045260246000fdfea26469706673582212207b143adffbac246762d91fede70194f768ce64316e1cd23aa23143998f15898664736f6c63430008170033",
    "linkReferences": {}
  },
  "methodIdentifiers": {
    "imageId()": "ef3f7dd5",
    "latestBlockHash()": "6c4f6ba9",
    "proofNonce()": "ce0bb7e4",
    "updateRange((bytes32,uint64,bytes32,bytes32),bytes)": "8a9fbdec",
    "verifier()": "2b7ac3f3",
    "verifyAttestation(uint256,(uint256,bytes32),(bytes32[],uint256,uint256))": "1f3302a9"
  },
  "id": 43
}