{
  "abi": [
    {
      "inputs": [
        {
          "internalType": "address",
          "name": "_admin",
          "type": "address"
        },
        {
          "internalType": "contract IRiscZeroVerifier",
          "name": "_verifier",
          "type": "address"
        },
        {
          "internalType": "bytes32",
          "name": "_trustedHash",
          "type": "bytes32"
        },
        {
          "internalType": "uint64",
          "name": "_trustedHeight",
          "type": "uint64"
        }
      ],
      "stateMutability": "nonpayable",
      "type": "constructor"
    },
    {
      "inputs": [],
      "name": "acceptOwnership",
      "outputs": [],
      "stateMutability": "nonpayable",
      "type": "function"
    },
    {
      "inputs": [
        {
          "internalType": "bytes32",
          "name": "_imageId",
          "type": "bytes32"
        }
      ],
      "name": "adminSetImageId",
      "outputs": [],
      "stateMutability": "nonpayable",
      "type": "function"
    },
    {
      "inputs": [
        {
          "internalType": "bytes32",
          "name": "_trustedHash",
          "type": "bytes32"
        },
        {
          "internalType": "uint64",
          "name": "_trustedHeight",
          "type": "uint64"
        }
      ],
      "name": "adminSetTrustedState",
      "outputs": [],
      "stateMutability": "nonpayable",
      "type": "function"
    },
    {
      "inputs": [
        {
          "internalType": "contract IRiscZeroVerifier",
          "name": "_verifier",
          "type": "address"
        }
      ],
      "name": "adminSetVerifier",
      "outputs": [],
      "stateMutability": "nonpayable",
      "type": "function"
    },
    {
      "inputs": [],
      "name": "imageId",
      "outputs": [
        {
          "internalType": "bytes32",
          "name": "",
          "type": "bytes32"
        }
      ],
      "stateMutability": "view",
      "type": "function"
    },
    {
      "inputs": [],
      "name": "latestBlockHash",
      "outputs": [
        {
          "internalType": "bytes32",
          "name": "",
          "type": "bytes32"
        }
      ],
      "stateMutability": "view",
      "type": "function"
    },
    {
      "inputs": [],
      "name": "latestHeight",
      "outputs": [
        {
          "internalType": "uint64",
          "name": "",
          "type": "uint64"
        }
      ],
      "stateMutability": "view",
      "type": "function"
    },
    {
      "inputs": [],
      "name": "owner",
      "outputs": [
        {
          "internalType": "address",
          "name": "",
          "type": "address"
        }
      ],
      "stateMutability": "view",
      "type": "function"
    },
    {
      "inputs": [],
      "name": "pendingOwner",
      "outputs": [
        {
          "internalType": "address",
          "name": "",
          "type": "address"
        }
      ],
      "stateMutability": "view",
      "type": "function"
    },
    {
      "inputs": [],
      "name": "proofNonce",
      "outputs": [
        {
          "internalType": "uint256",
          "name": "",
          "type": "uint256"
        }
      ],
      "stateMutability": "view",
      "type": "function"
    },
    {
      "inputs": [],
      "name": "renounceOwnership",
      "outputs": [],
      "stateMutability": "nonpayable",
      "type": "function"
    },
    {
      "inputs": [
        {
          "internalType": "address",
          "name": "newOwner",
          "type": "address"
        }
      ],
      "name": "transferOwnership",
      "outputs": [],
      "stateMutability": "nonpayable",
      "type": "function"
    },
    {
      "inputs": [
        {
          "internalType": "bytes",
          "name": "_commitBytes",
          "type": "bytes"
        },
        {
          "internalType": "bytes",
          "name": "_seal",
          "type": "bytes"
        }
      ],
      "name": "updateRange",
      "outputs": [],
      "stateMutability": "nonpayable",
      "type": "function"
    },
    {
      "inputs": [],
      "name": "verifier",
      "outputs": [
        {
          "internalType": "contract IRiscZeroVerifier",
          "name": "",
          "type": "address"
        }
      ],
      "stateMutability": "view",
      "type": "function"
    },
    {
      "inputs": [
        {
          "internalType": "uint256",
          "name": "_proofNonce",
          "type": "uint256"
        },
        {
          "components": [
            {
              "internalType": "uint256",
              "name": "height",
              "type": "uint256"
            },
            {
              "internalType": "bytes32",
              "name": "dataRoot",
              "type": "bytes32"
            }
          ],
          "internalType": "struct DataRootTuple",
          "name": "_tuple",
          "type": "tuple"
        },
        {
          "components": [
            {
              "internalType": "bytes32[]",
              "name": "sideNodes",
              "type": "bytes32[]"
            },
            {
              "internalType": "uint256",
              "name": "key",
              "type": "uint256"
            },
            {
              "internalType": "uint256",
              "name": "numLeaves",
              "type": "uint256"
            }
          ],
          "internalType": "struct BinaryMerkleProof",
          "name": "_proof",
          "type": "tuple"
        }
      ],
      "name": "verifyAttestation",
      "outputs": [
        {
          "internalType": "bool",
          "name": "",
          "type": "bool"
        }
      ],
      "stateMutability": "view",
      "type": "function"
    },
    {
      "anonymous": false,
      "inputs": [
        {
          "indexed": false,
          "internalType": "uint256",
          "name": "proofNonce",
          "type": "uint256"
        },
        {
          "indexed": true,
          "internalType": "uint64",
          "name": "startBlock",
          "type": "uint64"
        },
        {
          "indexed": true,
          "internalType": "uint64",
          "name": "endBlock",
          "type": "uint64"
        },
        {
          "indexed": true,
          "internalType": "bytes32",
          "name": "dataCommitment",
          "type": "bytes32"
        }
      ],
      "name": "DataCommitmentStored",
      "type": "event"
    },
    {
      "anonymous": false,
      "inputs": [
        {
          "indexed": false,
          "internalType": "uint64",
          "name": "blockNumber",
          "type": "uint64"
        },
        {
          "indexed": false,
          "internalType": "bytes32",
          "name": "headerHash",
          "type": "bytes32"
        }
      ],
      "name": "HeadUpdate",
      "type": "event"
    },
    {
      "anonymous": false,
      "inputs": [
        {
          "indexed": true,
          "internalType": "address",
          "name": "previousOwner",
          "type": "address"
        },
        {
          "indexed": true,
          "internalType": "address",
          "name": "newOwner",
          "type": "address"
        }
      ],
      "name": "OwnershipTransferStarted",
      "type": "event"
    },
    {
      "anonymous": false,
      "inputs": [
        {
          "indexed": true,
          "internalType": "address",
          "name": "previousOwner",
          "type": "address"
        },
        {
          "indexed": true,
          "internalType": "address",
          "name": "newOwner",
          "type": "address"
        }
      ],
      "name": "OwnershipTransferred",
      "type": "event"
    },
    {
      "inputs": [],
      "name": "InvalidTargetHeight",
      "type": "error"
    },
    {
      "inputs": [],
      "name": "InvalidTrustedHeaderHash",
      "type": "error"
    },
    {
      "inputs": [
        {
          "internalType": "address",
          "name": "owner",
          "type": "address"
        }
      ],
      "name": "OwnableInvalidOwner",
      "type": "error"
    },
    {
      "inputs": [
        {
          "internalType": "address",
          "name": "account",
          "type": "address"
        }
      ],
      "name": "OwnableUnauthorizedAccount",
      "type": "error"
    }
  ],
  "bytecode": {
    "linkReferences": {},
    "object": "0x60806040527fce4bdb306e686a0d2a412c0ddb392d1dd3b07842a28c828519dc44052daf53196003553480156200003557600080fd5b506040516200136938038062001369833981016040819052620000589162000167565b836001600160a01b0381166200008857604051631e4fbdf760e01b81526000600482015260240160405180910390fd5b6200009381620000e3565b50600280546001600160a01b0319166001600160a01b039490941693909317909255600655600580546001600160401b0319166001600160401b03909216919091179055506001600455620001ce565b600180546001600160a01b0319169055620000fe8162000101565b50565b600080546001600160a01b038381166001600160a01b0319831681178455604051919092169283917f8be0079c531659141344cd1fd0a4f28419497f9722a3daafe3b4186f6b6457e09190a35050565b6001600160a01b0381168114620000fe57600080fd5b600080600080608085870312156200017e57600080fd5b84516200018b8162000151565b60208601519094506200019e8162000151565b6040860151606087015191945092506001600160401b0381168114620001c357600080fd5b939692955090935050565b61118b80620001de6000396000f3fe608060405234801561001057600080fd5b50600436106100f55760003560e01c8063a7e4762911610097578063e405bbc311610066578063e405bbc3146101da578063e6679c2614610205578063ef3f7dd514610218578063f2fde38b1461022157600080fd5b8063a7e476291461019a578063c532514b146101ad578063ce0bb7e4146101c0578063e30c3978146101c957600080fd5b80636c4f6ba9116100d35780636c4f6ba914610162578063715018a61461017957806379ba5097146101815780638da5cb5b1461018957600080fd5b80631f3302a9146100fa57806323a4608b146101225780632b7ac3f314610137575b600080fd5b61010d610108366004610d3a565b610234565b60405190151581526020015b60405180910390f35b610135610130366004610e77565b6102a1565b005b60025461014a906001600160a01b031681565b6040516001600160a01b039091168152602001610119565b61016b60065481565b604051908152602001610119565b6101356102d1565b6101356102e5565b6000546001600160a01b031661014a565b6101356101a8366004610ea3565b61032e565b6101356101bb366004610f04565b61033b565b61016b60045481565b6001546001600160a01b031661014a565b6005546101ed906001600160401b031681565b6040516001600160401b039091168152602001610119565b610135610213366004610f84565b61054d565b61016b60035481565b61013561022f366004610f84565b610577565b600083158061024557506004548410155b156102525750600061029a565b600084815260076020908152604080832054815187518185015292870151838301528151808403830181526060909301909152919061029490839086906105e8565b50925050505b9392505050565b6102a96106e9565b6006919091556005805467ffffffffffffffff19166001600160401b03909216919091179055565b6102d96106e9565b6102e36000610716565b565b60015433906001600160a01b031681146103225760405163118cdaa760e01b81526001600160a01b03821660048201526024015b60405180910390fd5b61032b81610716565b50565b6103366106e9565b600355565b600061034984860186610fa1565b60055460208201519192506001600160401b0390811691161161037f5760405163145ce5ff60e11b815260040160405180910390fd5b6006548151146103a2576040516352c6046360e01b815260040160405180910390fd5b600280546003546040516001600160a01b039092169263ab750e75928792879290916103d1908c908c9061100b565b602060405180830381855afa1580156103ee573d6000803e3d6000fd5b5050506040513d601f19601f82011682018060405250810190610411919061101b565b6040518563ffffffff1660e01b81526004016104309493929190611034565b60006040518083038186803b15801561044857600080fd5b505afa15801561045c573d6000803e3d6000fd5b50505060608201516020808401516005546004546040519081529394506001600160401b03918216939116917f34dd3689f5bd77a60a3ff2e09483dcab032fa2f1fd7227af3e24bed21beab1cb910160405180910390a46020818101516005805467ffffffffffffffff19166001600160401b03909216918217905560408084015160068190558151928352928201929092527f292f5abc3167175400fca463fa99530cda826ec53ec5eb1f3a2776006dacd75d910160405180910390a16060810151600480546000908152600760205260408120929092558054916105418361108a565b91905055505050505050565b6105556106e9565b600280546001600160a01b0319166001600160a01b0392909216919091179055565b61057f6106e9565b600180546001600160a01b0383166001600160a01b031990911681179091556105b06000546001600160a01b031690565b6001600160a01b03167f38d16b8cac22d99fc7c124b9cd0de2d3fa1faef420bfe791d8c362d765e2270060405160405180910390a350565b6000806001846040015111610610578351511561060b57506000905060016106e1565b610636565b6106228460200151856040015161072f565b8451511461063657506000905060016106e1565b836040015184602001511061065157506000905060026106e1565b600061065c846107c7565b85515190915060000361068f5784604001516001036106825785149150600090506106e1565b60008092509250506106e1565b6000806106aa87602001518860400151858a6000015161083c565b909250905060008160058111156106c3576106c36110a3565b146106d6576000945092506106e1915050565b508614925060009150505b935093915050565b6000546001600160a01b031633146102e35760405163118cdaa760e01b8152336004820152602401610319565b600180546001600160a01b031916905561032b816109c6565b600060018211610741575060006107c1565b61074a82610a16565b610756906101006110b9565b905060006107656001836110b9565b6001901b905060018161077891906110b9565b841161078457506107c1565b806001036107965760019150506107c1565b6107b26107a382866110b9565b6107ad83866110b9565b61072f565b6107bd9060016110cc565b9150505b92915050565b60006002600060f81b836040516020016107e292919061110f565b60408051601f19818403018152908290526107fc91611133565b602060405180830381855afa158015610819573d6000803e3d6000fd5b5050506040513d601f19601f820116820180604052508101906107c1919061101b565b60008084600003610852575082905060036109bd565b846001036108775782511561086c575082905060046109bd565b5082905060006109bd565b825160000361088b575082905060056109bd565b600061089686610a43565b905060006108b3856000600188516108ae91906110b9565b610a84565b90506000828910156109375760006108cd8a858a8661083c565b9250905060008260058111156108e5576108e56110a3565b146108f8575086945092506109bd915050565b610928818860018a5161090b91906110b9565b8151811061091b5761091b61113f565b6020026020010151610c09565b600095509550505050506109bd565b6000610957610946858c6110b9565b610950868c6110b9565b8a8661083c565b92509050600082600581111561096f5761096f6110a3565b14610982575086945092506109bd915050565b6109b2876001895161099491906110b9565b815181106109a4576109a461113f565b602002602001015182610c09565b600095509550505050505b94509492505050565b600080546001600160a01b038381166001600160a01b0319831681178455604051919092169283917f8be0079c531659141344cd1fd0a4f28419497f9722a3daafe3b4186f6b6457e09190a35050565b60005b81816001901b1015610a3757610a306001826110cc565b9050610a19565b6107c1816101006110b9565b60006001821015610a5357600080fd5b6000610a5e83610c87565b90506000610a6d6001836110b9565b6001901b905083810361029a5760011c9392505050565b606081831115610ae95760405162461bcd60e51b815260206004820152602a60248201527f496e76616c69642072616e67653a205f626567696e2069732067726561746572604482015269081d1a185b8817d95b9960b21b6064820152608401610319565b8351831180610af85750835182115b15610b5d5760405162461bcd60e51b815260206004820152602f60248201527f496e76616c69642072616e67653a205f626567696e206f72205f656e6420617260448201526e65206f7574206f6620626f756e647360881b6064820152608401610319565b6000610b6984846110b9565b6001600160401b03811115610b8057610b80610caa565b604051908082528060200260200182016040528015610ba9578160200160208202803683370190505b509050835b83811015610c0057858181518110610bc857610bc861113f565b6020026020010151828683610bdd91906110b9565b81518110610bed57610bed61113f565b6020908102919091010152600101610bae565b50949350505050565b604051600160f81b6020820152602181018390526041810182905260009060029060610160408051601f1981840301815290829052610c4791611133565b602060405180830381855afa158015610c64573d6000803e3d6000fd5b5050506040513d601f19601f8201168201806040525081019061029a919061101b565b6000805b82156107c15780610c9b8161108a565b915050600183901c9250610c8b565b634e487b7160e01b600052604160045260246000fd5b604080519081016001600160401b0381118282101715610ce257610ce2610caa565b60405290565b604051606081016001600160401b0381118282101715610ce257610ce2610caa565b604051601f8201601f191681016001600160401b0381118282101715610d3257610d32610caa565b604052919050565b60008060008385036080811215610d5057600080fd5b8435935060206040601f1983011215610d6857600080fd5b610d70610cc0565b8682013581526040870135828201529350606086013591506001600160401b0380831115610d9d57600080fd5b9186019160608389031215610db157600080fd5b610db9610ce8565b833582811115610dc857600080fd5b8401601f81018a13610dd957600080fd5b803583811115610deb57610deb610caa565b8060051b9350610dfc858501610d0a565b818152938201850193858101908c861115610e1657600080fd5b928601925b85841015610e3457833582529286019290860190610e1b565b80855250505050828401358382015260408401356040820152809450505050509250925092565b80356001600160401b0381168114610e7257600080fd5b919050565b60008060408385031215610e8a57600080fd5b82359150610e9a60208401610e5b565b90509250929050565b600060208284031215610eb557600080fd5b5035919050565b60008083601f840112610ece57600080fd5b5081356001600160401b03811115610ee557600080fd5b602083019150836020828501011115610efd57600080fd5b9250929050565b60008060008060408587031215610f1a57600080fd5b84356001600160401b0380821115610f3157600080fd5b610f3d88838901610ebc565b90965094506020870135915080821115610f5657600080fd5b50610f6387828801610ebc565b95989497509550505050565b6001600160a01b038116811461032b57600080fd5b600060208284031215610f9657600080fd5b813561029a81610f6f565b600060808284031215610fb357600080fd5b604051608081018181106001600160401b0382111715610fd557610fd5610caa565b60405282358152610fe860208401610e5b565b602082015260408301356040820152606083013560608201528091505092915050565b8183823760009101908152919050565b60006020828403121561102d57600080fd5b5051919050565b606081528360608201528385608083013760006080858301015260006080601f19601f870116830101905083602083015282604083015295945050505050565b634e487b7160e01b600052601160045260246000fd5b60006001820161109c5761109c611074565b5060010190565b634e487b7160e01b600052602160045260246000fd5b818103818111156107c1576107c1611074565b808201808211156107c1576107c1611074565b6000815160005b8181101561110057602081850181015186830152016110e6565b50600093019283525090919050565b6001600160f81b031983168152600061112b60018301846110df565b949350505050565b600061029a82846110df565b634e487b7160e01b600052603260045260246000fdfea26469706673582212200fe905338c5d94c175e602603c9785cafd2c53980b6bb60b637c40b5ee73041764736f6c63430008170033"
  },
  "id": 13,
  "methodIdentifiers": {
    "acceptOwnership()": "79ba5097",
    "adminSetImageId(bytes32)": "a7e47629",
    "adminSetTrustedState(bytes32,uint64)": "23a4608b",
    "adminSetVerifier(address)": "e6679c26",
    "imageId()": "ef3f7dd5",
    "latestBlockHash()": "6c4f6ba9",
    "latestHeight()": "e405bbc3",
    "owner()": "8da5cb5b",
    "pendingOwner()": "e30c3978",
    "proofNonce()": "ce0bb7e4",
    "renounceOwnership()": "715018a6",
    "transferOwnership(address)": "f2fde38b",
    "updateRange(bytes,bytes)": "c532514b",
    "verifier()": "2b7ac3f3",
    "verifyAttestation(uint256,(uint256,bytes32),(bytes32[],uint256,uint256))": "1f3302a9"
  }
}