{
  "abi": [
    {
      "inputs": [],
      "name": "UPGRADE_INTERFACE_VERSION",
      "outputs": [
        {
          "internalType": "string",
          "name": "",
          "type": "string"
        }
      ],
      "stateMutability": "view",
      "type": "function"
    },
    {
      "inputs": [],
      "name": "acceptOwnership",
      "outputs": [],
      "stateMutability": "nonpayable",
      "type": "function"
    },
    {
      "inputs": [
        {
          "internalType": "bytes32",
          "name": "_imageId",
          "type": "bytes32"
        }
      ],
      "name": "adminSetImageId",
      "outputs": [],
      "stateMutability": "nonpayable",
      "type": "function"
    },
    {
      "inputs": [
        {
          "internalType": "bytes32",
          "name": "_trustedHash",
          "type": "bytes32"
        },
        {
          "internalType": "uint64",
          "name": "_trustedHeight",
          "type": "uint64"
        }
      ],
      "name": "adminSetTrustedState",
      "outputs": [],
      "stateMutability": "nonpayable",
      "type": "function"
    },
    {
      "inputs": [
        {
          "internalType": "contract IRiscZeroVerifier",
          "name": "_verifier",
          "type": "address"
        }
      ],
      "name": "adminSetVerifier",
      "outputs": [],
      "stateMutability": "nonpayable",
      "type": "function"
    },
    {
      "inputs": [],
      "name": "imageId",
      "outputs": [
        {
          "internalType": "bytes32",
          "name": "",
          "type": "bytes32"
        }
      ],
      "stateMutability": "view",
      "type": "function"
    },
    {
      "inputs": [
        {
          "internalType": "address",
          "name": "_admin",
          "type": "address"
        },
        {
          "internalType": "contract IRiscZeroVerifier",
          "name": "_verifier",
          "type": "address"
        },
        {
          "internalType": "bytes32",
          "name": "_trustedHash",
          "type": "bytes32"
        },
        {
          "internalType": "uint64",
          "name": "_trustedHeight",
          "type": "uint64"
        },
        {
          "internalType": "uint64",
          "name": "_minBatchSize",
          "type": "uint64"
        }
      ],
      "name": "initialize",
      "outputs": [],
      "stateMutability": "nonpayable",
      "type": "function"
    },
    {
      "inputs": [],
      "name": "latestBlockHash",
      "outputs": [
        {
          "internalType": "bytes32",
          "name": "",
          "type": "bytes32"
        }
      ],
      "stateMutability": "view",
      "type": "function"
    },
    {
      "inputs": [],
      "name": "latestHeight",
      "outputs": [
        {
          "internalType": "uint64",
          "name": "",
          "type": "uint64"
        }
      ],
      "stateMutability": "view",
      "type": "function"
    },
    {
      "inputs": [],
      "name": "minBatchSize",
      "outputs": [
        {
          "internalType": "uint64",
          "name": "",
          "type": "uint64"
        }
      ],
      "stateMutability": "view",
      "type": "function"
    },
    {
      "inputs": [],
      "name": "owner",
      "outputs": [
        {
          "internalType": "address",
          "name": "",
          "type": "address"
        }
      ],
      "stateMutability": "view",
      "type": "function"
    },
    {
      "inputs": [],
      "name": "pendingOwner",
      "outputs": [
        {
          "internalType": "address",
          "name": "",
          "type": "address"
        }
      ],
      "stateMutability": "view",
      "type": "function"
    },
    {
      "inputs": [],
      "name": "proofNonce",
      "outputs": [
        {
          "internalType": "uint256",
          "name": "",
          "type": "uint256"
        }
      ],
      "stateMutability": "view",
      "type": "function"
    },
    {
      "inputs": [],
      "name": "proxiableUUID",
      "outputs": [
        {
          "internalType": "bytes32",
          "name": "",
          "type": "bytes32"
        }
      ],
      "stateMutability": "view",
      "type": "function"
    },
    {
      "inputs": [],
      "name": "renounceOwnership",
      "outputs": [],
      "stateMutability": "nonpayable",
      "type": "function"
    },
    {
      "inputs": [
        {
          "internalType": "address",
          "name": "newOwner",
          "type": "address"
        }
      ],
      "name": "transferOwnership",
      "outputs": [],
      "stateMutability": "nonpayable",
      "type": "function"
    },
    {
      "inputs": [
        {
          "internalType": "bytes",
          "name": "_commitBytes",
          "type": "bytes"
        },
        {
          "internalType": "bytes",
          "name": "_seal",
          "type": "bytes"
        }
      ],
      "name": "updateRange",
      "outputs": [],
      "stateMutability": "nonpayable",
      "type": "function"
    },
    {
      "inputs": [
        {
          "internalType": "address",
          "name": "newImplementation",
          "type": "address"
        },
        {
          "internalType": "bytes",
          "name": "data",
          "type": "bytes"
        }
      ],
      "name": "upgradeToAndCall",
      "outputs": [],
      "stateMutability": "payable",
      "type": "function"
    },
    {
      "inputs": [],
      "name": "verifier",
      "outputs": [
        {
          "internalType": "contract IRiscZeroVerifier",
          "name": "",
          "type": "address"
        }
      ],
      "stateMutability": "view",
      "type": "function"
    },
    {
      "inputs": [
        {
          "internalType": "uint256",
          "name": "_proofNonce",
          "type": "uint256"
        },
        {
          "components": [
            {
              "internalType": "uint256",
              "name": "height",
              "type": "uint256"
            },
            {
              "internalType": "bytes32",
              "name": "dataRoot",
              "type": "bytes32"
            }
          ],
          "internalType": "struct DataRootTuple",
          "name": "_tuple",
          "type": "tuple"
        },
        {
          "components": [
            {
              "internalType": "bytes32[]",
              "name": "sideNodes",
              "type": "bytes32[]"
            },
            {
              "internalType": "uint256",
              "name": "key",
              "type": "uint256"
            },
            {
              "internalType": "uint256",
              "name": "numLeaves",
              "type": "uint256"
            }
          ],
          "internalType": "struct BinaryMerkleProof",
          "name": "_proof",
          "type": "tuple"
        }
      ],
      "name": "verifyAttestation",
      "outputs": [
        {
          "internalType": "bool",
          "name": "",
          "type": "bool"
        }
      ],
      "stateMutability": "view",
      "type": "function"
    },
    {
      "anonymous": false,
      "inputs": [
        {
          "indexed": false,
          "internalType": "uint256",
          "name": "proofNonce",
          "type": "uint256"
        },
        {
          "indexed": true,
          "internalType": "uint64",
          "name": "startBlock",
          "type": "uint64"
        },
        {
          "indexed": true,
          "internalType": "uint64",
          "name": "endBlock",
          "type": "uint64"
        },
        {
          "indexed": true,
          "internalType": "bytes32",
          "name": "dataCommitment",
          "type": "bytes32"
        }
      ],
      "name": "DataCommitmentStored",
      "type": "event"
    },
    {
      "anonymous": false,
      "inputs": [
        {
          "indexed": false,
          "internalType": "uint64",
          "name": "blockNumber",
          "type": "uint64"
        },
        {
          "indexed": false,
          "internalType": "bytes32",
          "name": "headerHash",
          "type": "bytes32"
        }
      ],
      "name": "HeadUpdate",
      "type": "event"
    },
    {
      "anonymous": false,
      "inputs": [
        {
          "indexed": false,
          "internalType": "uint64",
          "name": "version",
          "type": "uint64"
        }
      ],
      "name": "Initialized",
      "type": "event"
    },
    {
      "anonymous": false,
      "inputs": [
        {
          "indexed": true,
          "internalType": "address",
          "name": "previousOwner",
          "type": "address"
        },
        {
          "indexed": true,
          "internalType": "address",
          "name": "newOwner",
          "type": "address"
        }
      ],
      "name": "OwnershipTransferStarted",
      "type": "event"
    },
    {
      "anonymous": false,
      "inputs": [
        {
          "indexed": true,
          "internalType": "address",
          "name": "previousOwner",
          "type": "address"
        },
        {
          "indexed": true,
          "internalType": "address",
          "name": "newOwner",
          "type": "address"
        }
      ],
      "name": "OwnershipTransferred",
      "type": "event"
    },
    {
      "anonymous": false,
      "inputs": [
        {
          "indexed": true,
          "internalType": "address",
          "name": "implementation",
          "type": "address"
        }
      ],
      "name": "Upgraded",
      "type": "event"
    },
    {
      "anonymous": false,
      "inputs": [
        {
          "indexed": false,
          "internalType": "uint64",
          "name": "trustedBlock",
          "type": "uint64"
        },
        {
          "indexed": false,
          "internalType": "uint64",
          "name": "targetBlock",
          "type": "uint64"
        },
        {
          "indexed": false,
          "internalType": "uint256",
          "name": "validatorBitmap",
          "type": "uint256"
        }
      ],
      "name": "ValidatorBitmapEquivocation",
      "type": "event"
    },
    {
      "inputs": [
        {
          "internalType": "address",
          "name": "target",
          "type": "address"
        }
      ],
      "name": "AddressEmptyCode",
      "type": "error"
    },
    {
      "inputs": [
        {
          "internalType": "address",
          "name": "implementation",
          "type": "address"
        }
      ],
      "name": "ERC1967InvalidImplementation",
      "type": "error"
    },
    {
      "inputs": [],
      "name": "ERC1967NonPayable",
      "type": "error"
    },
    {
      "inputs": [],
      "name": "FailedInnerCall",
      "type": "error"
    },
    {
      "inputs": [],
      "name": "InvalidInitialization",
      "type": "error"
    },
    {
      "inputs": [],
      "name": "InvalidTargetHeight",
      "type": "error"
    },
    {
      "inputs": [],
      "name": "InvalidTrustedHeaderHash",
      "type": "error"
    },
    {
      "inputs": [],
      "name": "NotInitializing",
      "type": "error"
    },
    {
      "inputs": [
        {
          "internalType": "address",
          "name": "owner",
          "type": "address"
        }
      ],
      "name": "OwnableInvalidOwner",
      "type": "error"
    },
    {
      "inputs": [
        {
          "internalType": "address",
          "name": "account",
          "type": "address"
        }
      ],
      "name": "OwnableUnauthorizedAccount",
      "type": "error"
    },
    {
      "inputs": [],
      "name": "UUPSUnauthorizedCallContext",
      "type": "error"
    },
    {
      "inputs": [
        {
          "internalType": "bytes32",
          "name": "slot",
          "type": "bytes32"
        }
      ],
      "name": "UUPSUnsupportedProxiableUUID",
      "type": "error"
    }
  ],
  "bytecode": {
    "linkReferences": {},
    "object": "0x60a06040523060805234801561001457600080fd5b50608051611bf961003e60003960008181610b9101528181610bba0152610d000152611bf96000f3fe60806040526004361061011f5760003560e01c8063a7e47629116100a0578063e30c397811610064578063e30c397814610331578063e405bbc314610346578063e6679c2614610366578063ef3f7dd514610386578063f2fde38b1461039c57600080fd5b8063a7e476291461027d578063ad3cb1cc1461029d578063c532514b146102db578063ce0bb7e4146102fb578063d86ba0e21461031157600080fd5b80636c4f6ba9116100e75780636c4f6ba9146101f0578063715018a61461020657806379ba50971461021b5780637eeb1c67146102305780638da5cb5b1461026857600080fd5b80631f3302a91461012457806323a4608b146101595780632b7ac3f31461017b5780634f1ef286146101ba57806352d1902d146101cd575b600080fd5b34801561013057600080fd5b5061014461013f366004611611565b6103bc565b60405190151581526020015b60405180910390f35b34801561016557600080fd5b5061017961017436600461174e565b610429565b005b34801561018757600080fd5b506000546101a290600160401b90046001600160a01b031681565b6040516001600160a01b039091168152602001610150565b6101796101c836600461178f565b610459565b3480156101d957600080fd5b506101e2610478565b604051908152602001610150565b3480156101fc57600080fd5b506101e260045481565b34801561021257600080fd5b50610179610495565b34801561022757600080fd5b506101796104a9565b34801561023c57600080fd5b50600054610250906001600160401b031681565b6040516001600160401b039091168152602001610150565b34801561027457600080fd5b506101a26104f6565b34801561028957600080fd5b50610179610298366004611836565b61052b565b3480156102a957600080fd5b506102ce604051806040016040528060058152602001640352e302e360dc1b81525081565b6040516101509190611873565b3480156102e757600080fd5b506101796102f63660046118ee565b610538565b34801561030757600080fd5b506101e260025481565b34801561031d57600080fd5b5061017961032c366004611959565b6107ce565b34801561033d57600080fd5b506101a261096c565b34801561035257600080fd5b50600354610250906001600160401b031681565b34801561037257600080fd5b506101796103813660046119bb565b610995565b34801561039257600080fd5b506101e260015481565b3480156103a857600080fd5b506101796103b73660046119bb565b6109ce565b60008315806103cd57506002548410155b156103da57506000610422565b600084815260056020908152604080832054815187518185015292870151838301528151808403830181526060909301909152919061041c9083908690610a53565b50925050505b9392505050565b610431610b54565b6004919091556003805467ffffffffffffffff19166001600160401b03909216919091179055565b610461610b86565b61046a82610c2b565b6104748282610c33565b5050565b6000610482610cf5565b50600080516020611ba483398151915290565b61049d610b54565b6104a76000610d3e565b565b33806104b361096c565b6001600160a01b0316146104ea5760405163118cdaa760e01b81526001600160a01b03821660048201526024015b60405180910390fd5b6104f381610d3e565b50565b6000807f9016d09d72d40fdae2fd8ceac6b6234c7706214fd39c1cd1e609a0528c1993005b546001600160a01b031692915050565b610533610b54565b600155565b6000610546848601866119d8565b600054600354919250610565916001600160401b039182169116611a62565b6001600160401b031681602001516001600160401b03161161059a5760405163145ce5ff60e11b815260040160405180910390fd5b6004548151146105bd576040516352c6046360e01b815260040160405180910390fd5b600060089054906101000a90046001600160a01b03166001600160a01b031663ab750e75848460015460028a8a6040516105f8929190611a82565b602060405180830381855afa158015610615573d6000803e3d6000fd5b5050506040513d601f19601f820116820180604052508101906106389190611a92565b6040518563ffffffff1660e01b81526004016106579493929190611aab565b60006040518083038186803b15801561066f57600080fd5b505afa158015610683573d6000803e3d6000fd5b50505060608201516020808401516003546002546040519081529394506001600160401b03918216939116917f34dd3689f5bd77a60a3ff2e09483dcab032fa2f1fd7227af3e24bed21beab1cb910160405180910390a46003546020828101516080840151604080516001600160401b03958616815294909216928401929092528201527f034c7608fd99db72330fdb1bcf6386af42ee9b6125664743942b942a8df4a3519060600160405180910390a16020818101516003805467ffffffffffffffff19166001600160401b03909216918217905560408084015160048190558151928352928201929092527f292f5abc3167175400fca463fa99530cda826ec53ec5eb1f3a2776006dacd75d910160405180910390a16060810151600280546000908152600560205260408120929092558054916107c283611aeb565b91905055505050505050565b7ff0c57e16840df040f15088dc2f81fe391c3923bec73e23a9662efc9c229c6a008054600160401b810460ff1615906001600160401b03166000811580156108135750825b90506000826001600160401b0316600114801561082f5750303b155b90508115801561083d575080155b1561085b5760405163f92ee8a960e01b815260040160405180910390fd5b845467ffffffffffffffff19166001178555831561088557845460ff60401b1916600160401b1785555b61088e8a610d76565b610896610d87565b61089e610d87565b6000805460048a90556003805467ffffffffffffffff199081166001600160401b038c8116919091179092557f4383189e399cb4bb64bc8b77fbaefcfe4c3c6472867bdd61de5eb1d4334a34c660019081556001600160e01b0319909316600160401b6001600160a01b038f16029091161790891617909155600255831561096057845460ff60401b19168555604051600181527fc7f505b2f371ae2175ee4913f4499e1f2633a7b5936321eed1cdaeb6115181d29060200160405180910390a15b50505050505050505050565b6000807f237e158222e3e6968b72b9db0d8043aacf074ad9f650f0d1606b4d82ee432c0061051b565b61099d610b54565b600080546001600160a01b03909216600160401b0268010000000000000000600160e01b0319909216919091179055565b6109d6610b54565b7f237e158222e3e6968b72b9db0d8043aacf074ad9f650f0d1606b4d82ee432c0080546001600160a01b0319166001600160a01b0383169081178255610a1a6104f6565b6001600160a01b03167f38d16b8cac22d99fc7c124b9cd0de2d3fa1faef420bfe791d8c362d765e2270060405160405180910390a35050565b6000806001846040015111610a7b5783515115610a765750600090506001610b4c565b610aa1565b610a8d84602001518560400151610d8f565b84515114610aa15750600090506001610b4c565b8360400151846020015110610abc5750600090506002610b4c565b6000610ac784610e2d565b855151909150600003610afa578460400151600103610aed578514915060009050610b4c565b6000809250925050610b4c565b600080610b1587602001518860400151858a60000151610ea2565b90925090506000816005811115610b2e57610b2e611b04565b14610b4157600094509250610b4c915050565b508614925060009150505b935093915050565b33610b5d6104f6565b6001600160a01b0316146104a75760405163118cdaa760e01b81523360048201526024016104e1565b306001600160a01b037f0000000000000000000000000000000000000000000000000000000000000000161480610c0d57507f00000000000000000000000000000000000000000000000000000000000000006001600160a01b0316610c01600080516020611ba4833981519152546001600160a01b031690565b6001600160a01b031614155b156104a75760405163703e46dd60e11b815260040160405180910390fd5b6104f3610b54565b816001600160a01b03166352d1902d6040518163ffffffff1660e01b8152600401602060405180830381865afa925050508015610c8d575060408051601f3d908101601f19168201909252610c8a91810190611a92565b60015b610cb557604051634c9c8ce360e01b81526001600160a01b03831660048201526024016104e1565b600080516020611ba48339815191528114610ce657604051632a87526960e21b8152600481018290526024016104e1565b610cf0838361102c565b505050565b306001600160a01b037f000000000000000000000000000000000000000000000000000000000000000016146104a75760405163703e46dd60e11b815260040160405180910390fd5b7f237e158222e3e6968b72b9db0d8043aacf074ad9f650f0d1606b4d82ee432c0080546001600160a01b031916815561047482611082565b610d7e6110f3565b6104f38161113c565b6104a76110f3565b600060018211610da157506000610e27565b610daa8261116e565b610db690610100611b1a565b90506000610dc5600183611b1a565b6001901b9050600181610dd89190611b1a565b8411610de45750610e27565b80600103610df6576001915050610e27565b610e12610e038286611b1a565b610e0d8386611b1a565b610d8f565b610e1d906001611b2d565b915050610e27565b505b92915050565b60006002600060f81b83604051602001610e48929190611b40565b60408051601f1981840301815290829052610e6291611b71565b602060405180830381855afa158015610e7f573d6000803e3d6000fd5b5050506040513d601f19601f82011682018060405250810190610e279190611a92565b60008084600003610eb857508290506003611023565b84600103610edd57825115610ed257508290506004611023565b508290506000611023565b8251600003610ef157508290506005611023565b6000610efc8661119b565b90506000610f1985600060018851610f149190611b1a565b6111dc565b9050600082891015610f9d576000610f338a858a86610ea2565b925090506000826005811115610f4b57610f4b611b04565b14610f5e57508694509250611023915050565b610f8e818860018a51610f719190611b1a565b81518110610f8157610f81611b8d565b6020026020010151611361565b60009550955050505050611023565b6000610fbd610fac858c611b1a565b610fb6868c611b1a565b8a86610ea2565b925090506000826005811115610fd557610fd5611b04565b14610fe857508694509250611023915050565b6110188760018951610ffa9190611b1a565b8151811061100a5761100a611b8d565b602002602001015182611361565b600095509550505050505b94509492505050565b611035826113df565b6040516001600160a01b038316907fbc7cd75a20ee27fd9adebab32041f755214dbc6bffa90cc0225b39da2e5c2d3b90600090a280511561107a57610cf08282611444565b6104746114ba565b7f9016d09d72d40fdae2fd8ceac6b6234c7706214fd39c1cd1e609a0528c19930080546001600160a01b031981166001600160a01b03848116918217845560405192169182907f8be0079c531659141344cd1fd0a4f28419497f9722a3daafe3b4186f6b6457e090600090a3505050565b7ff0c57e16840df040f15088dc2f81fe391c3923bec73e23a9662efc9c229c6a0054600160401b900460ff166104a757604051631afcd79f60e31b815260040160405180910390fd5b6111446110f3565b6001600160a01b0381166104ea57604051631e4fbdf760e01b8152600060048201526024016104e1565b60005b81816001901b101561118f57611188600182611b2d565b9050611171565b610e2781610100611b1a565b600060018210156111ab57600080fd5b60006111b6836114d9565b905060006111c5600183611b1a565b6001901b90508381036104225760011c9392505050565b6060818311156112415760405162461bcd60e51b815260206004820152602a60248201527f496e76616c69642072616e67653a205f626567696e2069732067726561746572604482015269081d1a185b8817d95b9960b21b60648201526084016104e1565b83518311806112505750835182115b156112b55760405162461bcd60e51b815260206004820152602f60248201527f496e76616c69642072616e67653a205f626567696e206f72205f656e6420617260448201526e65206f7574206f6620626f756e647360881b60648201526084016104e1565b60006112c18484611b1a565b6001600160401b038111156112d8576112d8611581565b604051908082528060200260200182016040528015611301578160200160208202803683370190505b509050835b838110156113585785818151811061132057611320611b8d565b60200260200101518286836113359190611b1a565b8151811061134557611345611b8d565b6020908102919091010152600101611306565b50949350505050565b604051600160f81b6020820152602181018390526041810182905260009060029060610160408051601f198184030181529082905261139f91611b71565b602060405180830381855afa1580156113bc573d6000803e3d6000fd5b5050506040513d601f19601f820116820180604052508101906104229190611a92565b806001600160a01b03163b60000361141557604051634c9c8ce360e01b81526001600160a01b03821660048201526024016104e1565b600080516020611ba483398151915280546001600160a01b0319166001600160a01b0392909216919091179055565b6060600080846001600160a01b0316846040516114619190611b71565b600060405180830381855af49150503d806000811461149c576040519150601f19603f3d011682016040523d82523d6000602084013e6114a1565b606091505b50915091506114b18583836114fc565b95945050505050565b34156104a75760405163b398979f60e01b815260040160405180910390fd5b6000805b8215610e2757806114ed81611aeb565b915050600183901c92506114dd565b6060826115115761150c82611558565b610422565b815115801561152857506001600160a01b0384163b155b1561155157604051639996b31560e01b81526001600160a01b03851660048201526024016104e1565b5080610422565b8051156115685780518082602001fd5b604051630a12f52160e11b815260040160405180910390fd5b634e487b7160e01b600052604160045260246000fd5b604080519081016001600160401b03811182821017156115b9576115b9611581565b60405290565b604051606081016001600160401b03811182821017156115b9576115b9611581565b604051601f8201601f191681016001600160401b038111828210171561160957611609611581565b604052919050565b6000806000838503608081121561162757600080fd5b8435935060206040601f198301121561163f57600080fd5b611647611597565b8682013581526040870135828201529350606086013591506001600160401b038083111561167457600080fd5b918601916060838903121561168857600080fd5b6116906115bf565b83358281111561169f57600080fd5b8401601f81018a136116b057600080fd5b8035838111156116c2576116c2611581565b8060051b93506116d38585016115e1565b818152938201850193858101908c8611156116ed57600080fd5b928601925b8584101561170b578335825292860192908601906116f2565b80855250505050828401358382015260408401356040820152809450505050509250925092565b80356001600160401b038116811461174957600080fd5b919050565b6000806040838503121561176157600080fd5b8235915061177160208401611732565b90509250929050565b6001600160a01b03811681146104f357600080fd5b600080604083850312156117a257600080fd5b82356117ad8161177a565b91506020838101356001600160401b03808211156117ca57600080fd5b818601915086601f8301126117de57600080fd5b8135818111156117f0576117f0611581565b611802601f8201601f191685016115e1565b9150808252878482850101111561181857600080fd5b80848401858401376000848284010152508093505050509250929050565b60006020828403121561184857600080fd5b5035919050565b60005b8381101561186a578181015183820152602001611852565b50506000910152565b602081526000825180602084015261189281604085016020870161184f565b601f01601f19169190910160400192915050565b60008083601f8401126118b857600080fd5b5081356001600160401b038111156118cf57600080fd5b6020830191508360208285010111156118e757600080fd5b9250929050565b6000806000806040858703121561190457600080fd5b84356001600160401b038082111561191b57600080fd5b611927888389016118a6565b9096509450602087013591508082111561194057600080fd5b5061194d878288016118a6565b95989497509550505050565b600080600080600060a0868803121561197157600080fd5b853561197c8161177a565b9450602086013561198c8161177a565b9350604086013592506119a160608701611732565b91506119af60808701611732565b90509295509295909350565b6000602082840312156119cd57600080fd5b81356104228161177a565b600060a082840312156119ea57600080fd5b60405160a081018181106001600160401b0382111715611a0c57611a0c611581565b60405282358152611a1f60208401611732565b60208201526040830135604082015260608301356060820152608083013560808201528091505092915050565b634e487b7160e01b600052601160045260246000fd5b6001600160401b03818116838216019080821115610e2557610e25611a4c565b8183823760009101908152919050565b600060208284031215611aa457600080fd5b5051919050565b606081528360608201528385608083013760006080858301015260006080601f19601f870116830101905083602083015282604083015295945050505050565b600060018201611afd57611afd611a4c565b5060010190565b634e487b7160e01b600052602160045260246000fd5b81810381811115610e2757610e27611a4c565b80820180821115610e2757610e27611a4c565b6001600160f81b0319831681528151600090611b6381600185016020870161184f565b919091016001019392505050565b60008251611b8381846020870161184f565b9190910192915050565b634e487b7160e01b600052603260045260246000fdfe360894a13ba1a3210667c828492db98dca3e2076cc3735a920a3ca505d382bbca26469706673582212203984129863954300b0e2923ca7f62278f5d6c3a44b383ac36d3ce1a4d845950e64736f6c63430008180033"
  },
  "id": 21,
  "methodIdentifiers": {
    "UPGRADE_INTERFACE_VERSION()": "ad3cb1cc",
    "acceptOwnership()": "79ba5097",
    "adminSetImageId(bytes32)": "a7e47629",
    "adminSetTrustedState(bytes32,uint64)": "23a4608b",
    "adminSetVerifier(address)": "e6679c26",
    "imageId()": "ef3f7dd5",
    "initialize(address,address,bytes32,uint64,uint64)": "d86ba0e2",
    "latestBlockHash()": "6c4f6ba9",
    "latestHeight()": "e405bbc3",
    "minBatchSize()": "7eeb1c67",
    "owner()": "8da5cb5b",
    "pendingOwner()": "e30c3978",
    "proofNonce()": "ce0bb7e4",
    "proxiableUUID()": "52d1902d",
    "renounceOwnership()": "715018a6",
    "transferOwnership(address)": "f2fde38b",
    "updateRange(bytes,bytes)": "c532514b",
    "upgradeToAndCall(address,bytes)": "4f1ef286",
    "verifier()": "2b7ac3f3",
    "verifyAttestation(uint256,(uint256,bytes32),(bytes32[],uint256,uint256))": "1f3302a9"
  }
}