{
  "abi": [
    {
      "inputs": [],
      "name": "UPGRADE_INTERFACE_VERSION",
      "outputs": [
        {
          "internalType": "string",
          "name": "",
          "type": "string"
        }
      ],
      "stateMutability": "view",
      "type": "function"
    },
    {
      "inputs": [],
      "name": "acceptOwnership",
      "outputs": [],
      "stateMutability": "nonpayable",
      "type": "function"
    },
    {
      "inputs": [
        {
          "internalType": "bytes32",
          "name": "_imageId",
          "type": "bytes32"
        }
      ],
      "name": "adminSetImageId",
      "outputs": [],
      "stateMutability": "nonpayable",
      "type": "function"
    },
    {
      "inputs": [
        {
          "internalType": "bytes32",
          "name": "_trustedHash",
          "type": "bytes32"
        },
        {
          "internalType": "uint64",
          "name": "_trustedHeight",
          "type": "uint64"
        }
      ],
      "name": "adminSetTrustedState",
      "outputs": [],
      "stateMutability": "nonpayable",
      "type": "function"
    },
    {
      "inputs": [
        {
          "internalType": "contract IRiscZeroVerifier",
          "name": "_verifier",
          "type": "address"
        }
      ],
      "name": "adminSetVerifier",
      "outputs": [],
      "stateMutability": "nonpayable",
      "type": "function"
    },
    {
      "inputs": [],
      "name": "imageId",
      "outputs": [
        {
          "internalType": "bytes32",
          "name": "",
          "type": "bytes32"
        }
      ],
      "stateMutability": "view",
      "type": "function"
    },
    {
      "inputs": [
        {
          "internalType": "address",
          "name": "_admin",
          "type": "address"
        },
        {
          "internalType": "contract IRiscZeroVerifier",
          "name": "_verifier",
          "type": "address"
        },
        {
          "internalType": "bytes32",
          "name": "_trustedHash",
          "type": "bytes32"
        },
        {
          "internalType": "uint64",
          "name": "_trustedHeight",
          "type": "uint64"
        },
        {
          "internalType": "uint64",
          "name": "_minBatchSize",
          "type": "uint64"
        }
      ],
      "name": "initialize",
      "outputs": [],
      "stateMutability": "nonpayable",
      "type": "function"
    },
    {
      "inputs": [],
      "name": "latestBlockHash",
      "outputs": [
        {
          "internalType": "bytes32",
          "name": "",
          "type": "bytes32"
        }
      ],
      "stateMutability": "view",
      "type": "function"
    },
    {
      "inputs": [],
      "name": "latestHeight",
      "outputs": [
        {
          "internalType": "uint64",
          "name": "",
          "type": "uint64"
        }
      ],
      "stateMutability": "view",
      "type": "function"
    },
    {
      "inputs": [],
      "name": "minBatchSize",
      "outputs": [
        {
          "internalType": "uint64",
          "name": "",
          "type": "uint64"
        }
      ],
      "stateMutability": "view",
      "type": "function"
    },
    {
      "inputs": [],
      "name": "owner",
      "outputs": [
        {
          "internalType": "address",
          "name": "",
          "type": "address"
        }
      ],
      "stateMutability": "view",
      "type": "function"
    },
    {
      "inputs": [],
      "name": "pendingOwner",
      "outputs": [
        {
          "internalType": "address",
          "name": "",
          "type": "address"
        }
      ],
      "stateMutability": "view",
      "type": "function"
    },
    {
      "inputs": [],
      "name": "proofNonce",
      "outputs": [
        {
          "internalType": "uint256",
          "name": "",
          "type": "uint256"
        }
      ],
      "stateMutability": "view",
      "type": "function"
    },
    {
      "inputs": [],
      "name": "proxiableUUID",
      "outputs": [
        {
          "internalType": "bytes32",
          "name": "",
          "type": "bytes32"
        }
      ],
      "stateMutability": "view",
      "type": "function"
    },
    {
      "inputs": [],
      "name": "renounceOwnership",
      "outputs": [],
      "stateMutability": "nonpayable",
      "type": "function"
    },
    {
      "inputs": [
        {
          "internalType": "address",
          "name": "newOwner",
          "type": "address"
        }
      ],
      "name": "transferOwnership",
      "outputs": [],
      "stateMutability": "nonpayable",
      "type": "function"
    },
    {
      "inputs": [
        {
          "internalType": "bytes",
          "name": "_commitBytes",
          "type": "bytes"
        },
        {
          "internalType": "bytes",
          "name": "_seal",
          "type": "bytes"
        }
      ],
      "name": "updateRange",
      "outputs": [],
      "stateMutability": "nonpayable",
      "type": "function"
    },
    {
      "inputs": [
        {
          "internalType": "address",
          "name": "newImplementation",
          "type": "address"
        },
        {
          "internalType": "bytes",
          "name": "data",
          "type": "bytes"
        }
      ],
      "name": "upgradeToAndCall",
      "outputs": [],
      "stateMutability": "payable",
      "type": "function"
    },
    {
      "inputs": [],
      "name": "verifier",
      "outputs": [
        {
          "internalType": "contract IRiscZeroVerifier",
          "name": "",
          "type": "address"
        }
      ],
      "stateMutability": "view",
      "type": "function"
    },
    {
      "inputs": [
        {
          "internalType": "uint256",
          "name": "_proofNonce",
          "type": "uint256"
        },
        {
          "components": [
            {
              "internalType": "uint256",
              "name": "height",
              "type": "uint256"
            },
            {
              "internalType": "bytes32",
              "name": "dataRoot",
              "type": "bytes32"
            }
          ],
          "internalType": "struct DataRootTuple",
          "name": "_tuple",
          "type": "tuple"
        },
        {
          "components": [
            {
              "internalType": "bytes32[]",
              "name": "sideNodes",
              "type": "bytes32[]"
            },
            {
              "internalType": "uint256",
              "name": "key",
              "type": "uint256"
            },
            {
              "internalType": "uint256",
              "name": "numLeaves",
              "type": "uint256"
            }
          ],
          "internalType": "struct BinaryMerkleProof",
          "name": "_proof",
          "type": "tuple"
        }
      ],
      "name": "verifyAttestation",
      "outputs": [
        {
          "internalType": "bool",
          "name": "",
          "type": "bool"
        }
      ],
      "stateMutability": "view",
      "type": "function"
    },
    {
      "anonymous": false,
      "inputs": [
        {
          "indexed": false,
          "internalType": "uint256",
          "name": "proofNonce",
          "type": "uint256"
        },
        {
          "indexed": true,
          "internalType": "uint64",
          "name": "startBlock",
          "type": "uint64"
        },
        {
          "indexed": true,
          "internalType": "uint64",
          "name": "endBlock",
          "type": "uint64"
        },
        {
          "indexed": true,
          "internalType": "bytes32",
          "name": "dataCommitment",
          "type": "bytes32"
        }
      ],
      "name": "DataCommitmentStored",
      "type": "event"
    },
    {
      "anonymous": false,
      "inputs": [
        {
          "indexed": false,
          "internalType": "uint64",
          "name": "blockNumber",
          "type": "uint64"
        },
        {
          "indexed": false,
          "internalType": "bytes32",
          "name": "headerHash",
          "type": "bytes32"
        }
      ],
      "name": "HeadUpdate",
      "type": "event"
    },
    {
      "anonymous": false,
      "inputs": [
        {
          "indexed": false,
          "internalType": "uint64",
          "name": "version",
          "type": "uint64"
        }
      ],
      "name": "Initialized",
      "type": "event"
    },
    {
      "anonymous": false,
      "inputs": [
        {
          "indexed": true,
          "internalType": "address",
          "name": "previousOwner",
          "type": "address"
        },
        {
          "indexed": true,
          "internalType": "address",
          "name": "newOwner",
          "type": "address"
        }
      ],
      "name": "OwnershipTransferStarted",
      "type": "event"
    },
    {
      "anonymous": false,
      "inputs": [
        {
          "indexed": true,
          "internalType": "address",
          "name": "previousOwner",
          "type": "address"
        },
        {
          "indexed": true,
          "internalType": "address",
          "name": "newOwner",
          "type": "address"
        }
      ],
      "name": "OwnershipTransferred",
      "type": "event"
    },
    {
      "anonymous": false,
      "inputs": [
        {
          "indexed": true,
          "internalType": "address",
          "name": "implementation",
          "type": "address"
        }
      ],
      "name": "Upgraded",
      "type": "event"
    },
    {
      "anonymous": false,
      "inputs": [
        {
          "indexed": false,
          "internalType": "uint64",
          "name": "trustedBlock",
          "type": "uint64"
        },
        {
          "indexed": false,
          "internalType": "uint64",
          "name": "targetBlock",
          "type": "uint64"
        },
        {
          "indexed": false,
          "internalType": "uint256",
          "name": "validatorBitmap",
          "type": "uint256"
        }
      ],
      "name": "ValidatorBitmapEquivocation",
      "type": "event"
    },
    {
      "inputs": [
        {
          "internalType": "address",
          "name": "target",
          "type": "address"
        }
      ],
      "name": "AddressEmptyCode",
      "type": "error"
    },
    {
      "inputs": [
        {
          "internalType": "address",
          "name": "implementation",
          "type": "address"
        }
      ],
      "name": "ERC1967InvalidImplementation",
      "type": "error"
    },
    {
      "inputs": [],
      "name": "ERC1967NonPayable",
      "type": "error"
    },
    {
      "inputs": [],
      "name": "FailedInnerCall",
      "type": "error"
    },
    {
      "inputs": [],
      "name": "InvalidInitialization",
      "type": "error"
    },
    {
      "inputs": [],
      "name": "InvalidTargetHeight",
      "type": "error"
    },
    {
      "inputs": [],
      "name": "InvalidTrustedHeaderHash",
      "type": "error"
    },
    {
      "inputs": [],
      "name": "NotInitializing",
      "type": "error"
    },
    {
      "inputs": [
        {
          "internalType": "address",
          "name": "owner",
          "type": "address"
        }
      ],
      "name": "OwnableInvalidOwner",
      "type": "error"
    },
    {
      "inputs": [
        {
          "internalType": "address",
          "name": "account",
          "type": "address"
        }
      ],
      "name": "OwnableUnauthorizedAccount",
      "type": "error"
    },
    {
      "inputs": [],
      "name": "UUPSUnauthorizedCallContext",
      "type": "error"
    },
    {
      "inputs": [
        {
          "internalType": "bytes32",
          "name": "slot",
          "type": "bytes32"
        }
      ],
      "name": "UUPSUnsupportedProxiableUUID",
      "type": "error"
    }
  ],
  "bytecode": {
    "linkReferences": {},
    "object": "0x60a06040523073ffffffffffffffffffffffffffffffffffffffff1660809073ffffffffffffffffffffffffffffffffffffffff16815250348015610042575f80fd5b50608051612c356100695f395f8181610f2501528181610f7a01526111340152612c355ff3fe60806040526004361061011e575f3560e01c8063a7e476291161009f578063e30c397811610063578063e30c39781461036c578063e405bbc314610396578063e6679c26146103c0578063ef3f7dd5146103e8578063f2fde38b146104125761011e565b8063a7e47629146102a0578063ad3cb1cc146102c8578063c532514b146102f2578063ce0bb7e41461031a578063d86ba0e2146103445761011e565b80636c4f6ba9116100e65780636c4f6ba9146101f6578063715018a61461022057806379ba5097146102365780637eeb1c671461024c5780638da5cb5b146102765761011e565b80631f3302a91461012257806323a4608b1461015e5780632b7ac3f3146101865780634f1ef286146101b057806352d1902d146101cc575b5f80fd5b34801561012d575f80fd5b5061014860048036038101906101439190611f5b565b61043a565b6040516101559190611fe1565b60405180910390f35b348015610169575f80fd5b50610184600480360381019061017f9190612037565b6104a8565b005b348015610191575f80fd5b5061019a6104e3565b6040516101a791906120ef565b60405180910390f35b6101ca60048036038101906101c591906121f3565b610508565b005b3480156101d7575f80fd5b506101e0610527565b6040516101ed919061225c565b60405180910390f35b348015610201575f80fd5b5061020a610558565b604051610217919061225c565b60405180910390f35b34801561022b575f80fd5b5061023461055e565b005b348015610241575f80fd5b5061024a610571565b005b348015610257575f80fd5b506102606105ff565b60405161026d9190612284565b60405180910390f35b348015610281575f80fd5b5061028a610616565b60405161029791906122ac565b60405180910390f35b3480156102ab575f80fd5b506102c660048036038101906102c191906122c5565b61064b565b005b3480156102d3575f80fd5b506102dc61065d565b6040516102e9919061236a565b60405180910390f35b3480156102fd575f80fd5b50610318600480360381019061031391906123e3565b610696565b005b348015610325575f80fd5b5061032e6109cd565b60405161033b9190612470565b60405180910390f35b34801561034f575f80fd5b5061036a600480360381019061036591906124c4565b6109d3565b005b348015610377575f80fd5b50610380610c2f565b60405161038d91906122ac565b60405180910390f35b3480156103a1575f80fd5b506103aa610c64565b6040516103b79190612284565b60405180910390f35b3480156103cb575f80fd5b506103e660048036038101906103e1919061253b565b610c7d565b005b3480156103f3575f80fd5b506103fc610cc8565b604051610409919061225c565b60405180910390f35b34801561041d575f80fd5b5061043860048036038101906104339190612566565b610cce565b005b5f8084148061044b57506002548410155b15610458575f90506104a1565b5f60055f8681526020019081526020015f205490505f61049882858760405160200161048491906125dc565b604051602081830303815290604052610d87565b50905080925050505b9392505050565b6104b0610e9c565b816004819055508060035f6101000a81548167ffffffffffffffff021916908367ffffffffffffffff1602179055505050565b5f60089054906101000a900473ffffffffffffffffffffffffffffffffffffffff1681565b610510610f23565b61051982611009565b6105238282611014565b5050565b5f610530611132565b7f360894a13ba1a3210667c828492db98dca3e2076cc3735a920a3ca505d382bbc5f1b905090565b60045481565b610566610e9c565b61056f5f6111b9565b565b5f61057a6111f6565b90508073ffffffffffffffffffffffffffffffffffffffff1661059b610c2f565b73ffffffffffffffffffffffffffffffffffffffff16146105f357806040517f118cdaa70000000000000000000000000000000000000000000000000000000081526004016105ea91906122ac565b60405180910390fd5b6105fc816111b9565b50565b5f8054906101000a900467ffffffffffffffff1681565b5f806106206111fd565b9050805f015f9054906101000a900473ffffffffffffffffffffffffffffffffffffffff1691505090565b610653610e9c565b8060018190555050565b6040518060400160405280600581526020017f352e302e3000000000000000000000000000000000000000000000000000000081525081565b5f84848101906106a6919061267e565b90505f8054906101000a900467ffffffffffffffff1660035f9054906101000a900467ffffffffffffffff166106dc91906126d6565b67ffffffffffffffff16816020015167ffffffffffffffff161161072c576040517f28b9cbfe00000000000000000000000000000000000000000000000000000000815260040160405180910390fd5b600454815f01511461076a576040517f52c6046300000000000000000000000000000000000000000000000000000000815260040160405180910390fd5b5f60089054906101000a900473ffffffffffffffffffffffffffffffffffffffff1673ffffffffffffffffffffffffffffffffffffffff1663ab750e75848460015460028a8a6040516107be92919061273f565b602060405180830381855afa1580156107d9573d5f803e3d5ffd5b5050506040513d601f19601f820116820180604052508101906107fc919061276b565b6040518563ffffffff1660e01b815260040161081b94939291906127d2565b5f6040518083038186803b158015610831575f80fd5b505afa158015610843573d5f803e3d5ffd5b505050508060600151816020015167ffffffffffffffff1660035f9054906101000a900467ffffffffffffffff1667ffffffffffffffff167f34dd3689f5bd77a60a3ff2e09483dcab032fa2f1fd7227af3e24bed21beab1cb6002546040516108ac9190612470565b60405180910390a47f034c7608fd99db72330fdb1bcf6386af42ee9b6125664743942b942a8df4a35160035f9054906101000a900467ffffffffffffffff168260200151836080015160405161090493929190612810565b60405180910390a1806020015160035f6101000a81548167ffffffffffffffff021916908367ffffffffffffffff16021790555080604001516004819055507f292f5abc3167175400fca463fa99530cda826ec53ec5eb1f3a2776006dacd75d60035f9054906101000a900467ffffffffffffffff1660045460405161098b929190612845565b60405180910390a1806060015160055f60025481526020019081526020015f208190555060025f8154809291906109c19061286c565b91905055505050505050565b60025481565b5f6109dc611224565b90505f815f0160089054906101000a900460ff161590505f825f015f9054906101000a900467ffffffffffffffff1690505f808267ffffffffffffffff16148015610a245750825b90505f60018367ffffffffffffffff16148015610a5757505f3073ffffffffffffffffffffffffffffffffffffffff163b145b905081158015610a65575080155b15610a9c576040517ff92ee8a900000000000000000000000000000000000000000000000000000000815260040160405180910390fd5b6001855f015f6101000a81548167ffffffffffffffff021916908367ffffffffffffffff1602179055508315610ae9576001855f0160086101000a81548160ff0219169083151502179055505b610af28a61124b565b610afa61125f565b610b02611269565b885f60086101000a81548173ffffffffffffffffffffffffffffffffffffffff021916908373ffffffffffffffffffffffffffffffffffffffff160217905550876004819055508660035f6101000a81548167ffffffffffffffff021916908367ffffffffffffffff1602179055507fe40789bddb2f73f53ef9206dda856f57d86bd1e28ff1e4d93ee417f63fb988da5f1b600181905550855f806101000a81548167ffffffffffffffff021916908367ffffffffffffffff16021790555060016002819055508315610c23575f855f0160086101000a81548160ff0219169083151502179055507fc7f505b2f371ae2175ee4913f4499e1f2633a7b5936321eed1cdaeb6115181d26001604051610c1a91906128ec565b60405180910390a15b50505050505050505050565b5f80610c39611273565b9050805f015f9054906101000a900473ffffffffffffffffffffffffffffffffffffffff1691505090565b60035f9054906101000a900467ffffffffffffffff1681565b610c85610e9c565b805f60086101000a81548173ffffffffffffffffffffffffffffffffffffffff021916908373ffffffffffffffffffffffffffffffffffffffff16021790555050565b60015481565b610cd6610e9c565b5f610cdf611273565b905081815f015f6101000a81548173ffffffffffffffffffffffffffffffffffffffff021916908373ffffffffffffffffffffffffffffffffffffffff1602179055508173ffffffffffffffffffffffffffffffffffffffff16610d41610616565b73ffffffffffffffffffffffffffffffffffffffff167f38d16b8cac22d99fc7c124b9cd0de2d3fa1faef420bfe791d8c362d765e2270060405160405180910390a35050565b5f806001846040015111610db1575f845f01515114610dac575f600191509150610e94565b610dda565b610dc38460200151856040015161129a565b845f01515114610dd9575f600191509150610e94565b5b8360400151846020015110610df5575f600291509150610e94565b5f610dff84611338565b90505f855f01515103610e32576001856040015103610e26578086145f9250925050610e94565b5f809250925050610e94565b5f80610e4b87602001518860400151858a5f01516113b2565b915091505f6005811115610e6257610e61612905565b5b816005811115610e7557610e74612905565b5b14610e88575f8194509450505050610e94565b8782145f945094505050505b935093915050565b610ea46111f6565b73ffffffffffffffffffffffffffffffffffffffff16610ec2610616565b73ffffffffffffffffffffffffffffffffffffffff1614610f2157610ee56111f6565b6040517f118cdaa7000000000000000000000000000000000000000000000000000000008152600401610f1891906122ac565b60405180910390fd5b565b7f000000000000000000000000000000000000000000000000000000000000000073ffffffffffffffffffffffffffffffffffffffff163073ffffffffffffffffffffffffffffffffffffffff161480610fd057507f000000000000000000000000000000000000000000000000000000000000000073ffffffffffffffffffffffffffffffffffffffff16610fb7611569565b73ffffffffffffffffffffffffffffffffffffffff1614155b15611007576040517fe07c8dba00000000000000000000000000000000000000000000000000000000815260040160405180910390fd5b565b611011610e9c565b50565b8173ffffffffffffffffffffffffffffffffffffffff166352d1902d6040518163ffffffff1660e01b8152600401602060405180830381865afa92505050801561107c57506040513d601f19601f82011682018060405250810190611079919061276b565b60015b6110bd57816040517f4c9c8ce30000000000000000000000000000000000000000000000000000000081526004016110b491906122ac565b60405180910390fd5b7f360894a13ba1a3210667c828492db98dca3e2076cc3735a920a3ca505d382bbc5f1b811461112357806040517faa1d49a400000000000000000000000000000000000000000000000000000000815260040161111a919061225c565b60405180910390fd5b61112d83836115bc565b505050565b7f000000000000000000000000000000000000000000000000000000000000000073ffffffffffffffffffffffffffffffffffffffff163073ffffffffffffffffffffffffffffffffffffffff16146111b7576040517fe07c8dba00000000000000000000000000000000000000000000000000000000815260040160405180910390fd5b565b5f6111c2611273565b9050805f015f6101000a81549073ffffffffffffffffffffffffffffffffffffffff02191690556111f28261162e565b5050565b5f33905090565b5f7f9016d09d72d40fdae2fd8ceac6b6234c7706214fd39c1cd1e609a0528c199300905090565b5f7ff0c57e16840df040f15088dc2f81fe391c3923bec73e23a9662efc9c229c6a00905090565b6112536116ff565b61125c8161173f565b50565b6112676116ff565b565b6112716116ff565b565b5f7f237e158222e3e6968b72b9db0d8043aacf074ad9f650f0d1606b4d82ee432c00905090565b5f600182116112ab575f9050611332565b6112b4826117c3565b6101006112c19190612932565b90505f6001826112d19190612932565b6001901b90506001816112e49190612932565b84116112f05750611332565b60018103611302576001915050611332565b61132281856113119190612932565b828561131d9190612932565b61129a565b600161132e9190612965565b9150505b92915050565b5f60025f60f81b83604051602001611351929190612a1d565b60405160208183030381529060405260405161136d9190612a44565b602060405180830381855afa158015611388573d5f803e3d5ffd5b5050506040513d601f19601f820116820180604052508101906113ab919061276b565b9050919050565b5f805f85036113c75783600391509150611560565b600185036113ee575f8351146113e35783600491509150611560565b835f91509150611560565b5f8351036114025783600591509150611560565b5f61140c866117fa565b90505f611427855f600188516114229190612932565b611841565b90505f828910156114c0575f61143f8a858a866113b2565b80935081925050505f600581111561145a57611459612905565b5b82600581111561146d5761146c612905565b5b146114815787829550955050505050611560565b6114b2818860018a516114949190612932565b815181106114a5576114a4612a5a565b5b6020026020010151611997565b5f9550955050505050611560565b5f6114e3848b6114d09190612932565b858b6114dc9190612932565b8a866113b2565b80935081925050505f60058111156114fe576114fd612905565b5b82600581111561151157611510612905565b5b146115255787829550955050505050611560565b61155687600189516115379190612932565b8151811061154857611547612a5a565b5b602002602001015182611997565b5f95509550505050505b94509492505050565b5f6115957f360894a13ba1a3210667c828492db98dca3e2076cc3735a920a3ca505d382bbc5f1b611a15565b5f015f9054906101000a900473ffffffffffffffffffffffffffffffffffffffff16905090565b6115c582611a1e565b8173ffffffffffffffffffffffffffffffffffffffff167fbc7cd75a20ee27fd9adebab32041f755214dbc6bffa90cc0225b39da2e5c2d3b60405160405180910390a25f815111156116215761161b8282611ae7565b5061162a565b611629611b67565b5b5050565b5f6116376111fd565b90505f815f015f9054906101000a900473ffffffffffffffffffffffffffffffffffffffff16905082825f015f6101000a81548173ffffffffffffffffffffffffffffffffffffffff021916908373ffffffffffffffffffffffffffffffffffffffff1602179055508273ffffffffffffffffffffffffffffffffffffffff168173ffffffffffffffffffffffffffffffffffffffff167f8be0079c531659141344cd1fd0a4f28419497f9722a3daafe3b4186f6b6457e060405160405180910390a3505050565b611707611ba3565b61173d576040517fd7e6bcf800000000000000000000000000000000000000000000000000000000815260040160405180910390fd5b565b6117476116ff565b5f73ffffffffffffffffffffffffffffffffffffffff168173ffffffffffffffffffffffffffffffffffffffff16036117b7575f6040517f1e4fbdf70000000000000000000000000000000000000000000000000000000081526004016117ae91906122ac565b60405180910390fd5b6117c0816111b9565b50565b5f5b81816001901b10156117e5576001816117de9190612965565b90506117c5565b806101006117f39190612932565b9050919050565b5f6001821015611808575f80fd5b5f61181283611bc1565b90505f6001826118229190612932565b6001901b905083810361183757600181901c90505b8092505050919050565b606081831115611886576040517f08c379a000000000000000000000000000000000000000000000000000000000815260040161187d90612af7565b60405180910390fd5b83518311806118955750835182115b156118d5576040517f08c379a00000000000000000000000000000000000000000000000000000000081526004016118cc90612b85565b60405180910390fd5b5f83836118e29190612932565b67ffffffffffffffff8111156118fb576118fa611d1a565b5b6040519080825280602002602001820160405280156119295781602001602082028036833780820191505090505b5090505f8490505b8381101561198b5785818151811061194c5761194b612a5a565b5b60200260200101518286836119619190612932565b8151811061197257611971612a5a565b5b6020026020010181815250508080600101915050611931565b50809150509392505050565b5f6002600160f81b84846040516020016119b393929190612bc3565b6040516020818303038152906040526040516119cf9190612a44565b602060405180830381855afa1580156119ea573d5f803e3d5ffd5b5050506040513d601f19601f82011682018060405250810190611a0d919061276b565b905092915050565b5f819050919050565b5f8173ffffffffffffffffffffffffffffffffffffffff163b03611a7957806040517f4c9c8ce3000000000000000000000000000000000000000000000000000000008152600401611a7091906122ac565b60405180910390fd5b80611aa57f360894a13ba1a3210667c828492db98dca3e2076cc3735a920a3ca505d382bbc5f1b611a15565b5f015f6101000a81548173ffffffffffffffffffffffffffffffffffffffff021916908373ffffffffffffffffffffffffffffffffffffffff16021790555050565b60605f808473ffffffffffffffffffffffffffffffffffffffff1684604051611b109190612a44565b5f60405180830381855af49150503d805f8114611b48576040519150601f19603f3d011682016040523d82523d5f602084013e611b4d565b606091505b5091509150611b5d858383611bf1565b9250505092915050565b5f341115611ba1576040517fb398979f00000000000000000000000000000000000000000000000000000000815260040160405180910390fd5b565b5f611bac611224565b5f0160089054906101000a900460ff16905090565b5f805f90505b5f8314611be8578080611bd99061286c565b915050600183901c9250611bc7565b80915050919050565b606082611c0657611c0182611c7e565b611c76565b5f8251148015611c2c57505f8473ffffffffffffffffffffffffffffffffffffffff163b145b15611c6e57836040517f9996b315000000000000000000000000000000000000000000000000000000008152600401611c6591906122ac565b60405180910390fd5b819050611c77565b5b9392505050565b5f81511115611c905780518082602001fd5b6040517f1425ea4200000000000000000000000000000000000000000000000000000000815260040160405180910390fd5b5f604051905090565b5f80fd5b5f80fd5b5f819050919050565b611ce581611cd3565b8114611cef575f80fd5b50565b5f81359050611d0081611cdc565b92915050565b5f80fd5b5f601f19601f8301169050919050565b7f4e487b71000000000000000000000000000000000000000000000000000000005f52604160045260245ffd5b611d5082611d0a565b810181811067ffffffffffffffff82111715611d6f57611d6e611d1a565b5b80604052505050565b5f611d81611cc2565b9050611d8d8282611d47565b919050565b5f80fd5b5f819050919050565b611da881611d96565b8114611db2575f80fd5b50565b5f81359050611dc381611d9f565b92915050565b5f60408284031215611dde57611ddd611d06565b5b611de86040611d78565b90505f611df784828501611cf2565b5f830152506020611e0a84828501611db5565b60208301525092915050565b5f80fd5b5f67ffffffffffffffff821115611e3457611e33611d1a565b5b602082029050602081019050919050565b5f80fd5b5f611e5b611e5684611e1a565b611d78565b90508083825260208201905060208402830185811115611e7e57611e7d611e45565b5b835b81811015611ea75780611e938882611db5565b845260208401935050602081019050611e80565b5050509392505050565b5f82601f830112611ec557611ec4611e16565b5b8135611ed5848260208601611e49565b91505092915050565b5f60608284031215611ef357611ef2611d06565b5b611efd6060611d78565b90505f82013567ffffffffffffffff811115611f1c57611f1b611d92565b5b611f2884828501611eb1565b5f830152506020611f3b84828501611cf2565b6020830152506040611f4f84828501611cf2565b60408301525092915050565b5f805f60808486031215611f7257611f71611ccb565b5b5f611f7f86828701611cf2565b9350506020611f9086828701611dc9565b925050606084013567ffffffffffffffff811115611fb157611fb0611ccf565b5b611fbd86828701611ede565b9150509250925092565b5f8115159050919050565b611fdb81611fc7565b82525050565b5f602082019050611ff45f830184611fd2565b92915050565b5f67ffffffffffffffff82169050919050565b61201681611ffa565b8114612020575f80fd5b50565b5f813590506120318161200d565b92915050565b5f806040838503121561204d5761204c611ccb565b5b5f61205a85828601611db5565b925050602061206b85828601612023565b9150509250929050565b5f73ffffffffffffffffffffffffffffffffffffffff82169050919050565b5f819050919050565b5f6120b76120b26120ad84612075565b612094565b612075565b9050919050565b5f6120c88261209d565b9050919050565b5f6120d9826120be565b9050919050565b6120e9816120cf565b82525050565b5f6020820190506121025f8301846120e0565b92915050565b5f61211282612075565b9050919050565b61212281612108565b811461212c575f80fd5b50565b5f8135905061213d81612119565b92915050565b5f80fd5b5f67ffffffffffffffff82111561216157612160611d1a565b5b61216a82611d0a565b9050602081019050919050565b828183375f83830152505050565b5f61219761219284612147565b611d78565b9050828152602081018484840111156121b3576121b2612143565b5b6121be848285612177565b509392505050565b5f82601f8301126121da576121d9611e16565b5b81356121ea848260208601612185565b91505092915050565b5f806040838503121561220957612208611ccb565b5b5f6122168582860161212f565b925050602083013567ffffffffffffffff81111561223757612236611ccf565b5b612243858286016121c6565b9150509250929050565b61225681611d96565b82525050565b5f60208201905061226f5f83018461224d565b92915050565b61227e81611ffa565b82525050565b5f6020820190506122975f830184612275565b92915050565b6122a681612108565b82525050565b5f6020820190506122bf5f83018461229d565b92915050565b5f602082840312156122da576122d9611ccb565b5b5f6122e784828501611db5565b91505092915050565b5f81519050919050565b5f82825260208201905092915050565b5f5b8381101561232757808201518184015260208101905061230c565b5f8484015250505050565b5f61233c826122f0565b61234681856122fa565b935061235681856020860161230a565b61235f81611d0a565b840191505092915050565b5f6020820190508181035f8301526123828184612332565b905092915050565b5f80fd5b5f8083601f8401126123a3576123a2611e16565b5b8235905067ffffffffffffffff8111156123c0576123bf61238a565b5b6020830191508360018202830111156123dc576123db611e45565b5b9250929050565b5f805f80604085870312156123fb576123fa611ccb565b5b5f85013567ffffffffffffffff81111561241857612417611ccf565b5b6124248782880161238e565b9450945050602085013567ffffffffffffffff81111561244757612446611ccf565b5b6124538782880161238e565b925092505092959194509250565b61246a81611cd3565b82525050565b5f6020820190506124835f830184612461565b92915050565b5f61249382612108565b9050919050565b6124a381612489565b81146124ad575f80fd5b50565b5f813590506124be8161249a565b92915050565b5f805f805f60a086880312156124dd576124dc611ccb565b5b5f6124ea8882890161212f565b95505060206124fb888289016124b0565b945050604061250c88828901611db5565b935050606061251d88828901612023565b925050608061252e88828901612023565b9150509295509295909350565b5f602082840312156125505761254f611ccb565b5b5f61255d848285016124b0565b91505092915050565b5f6020828403121561257b5761257a611ccb565b5b5f6125888482850161212f565b91505092915050565b61259a81611cd3565b82525050565b6125a981611d96565b82525050565b604082015f8201516125c35f850182612591565b5060208201516125d660208501826125a0565b50505050565b5f6040820190506125ef5f8301846125af565b92915050565b5f60a0828403121561260a57612609611d06565b5b61261460a0611d78565b90505f61262384828501611db5565b5f83015250602061263684828501612023565b602083015250604061264a84828501611db5565b604083015250606061265e84828501611db5565b606083015250608061267284828501611cf2565b60808301525092915050565b5f60a0828403121561269357612692611ccb565b5b5f6126a0848285016125f5565b91505092915050565b7f4e487b71000000000000000000000000000000000000000000000000000000005f52601160045260245ffd5b5f6126e082611ffa565b91506126eb83611ffa565b9250828201905067ffffffffffffffff81111561270b5761270a6126a9565b5b92915050565b5f81905092915050565b5f6127268385612711565b9350612733838584612177565b82840190509392505050565b5f61274b82848661271b565b91508190509392505050565b5f8151905061276581611d9f565b92915050565b5f602082840312156127805761277f611ccb565b5b5f61278d84828501612757565b91505092915050565b5f82825260208201905092915050565b5f6127b18385612796565b93506127be838584612177565b6127c783611d0a565b840190509392505050565b5f6060820190508181035f8301526127eb8186886127a6565b90506127fa602083018561224d565b612807604083018461224d565b95945050505050565b5f6060820190506128235f830186612275565b6128306020830185612275565b61283d6040830184612461565b949350505050565b5f6040820190506128585f830185612275565b612865602083018461224d565b9392505050565b5f61287682611cd3565b91507fffffffffffffffffffffffffffffffffffffffffffffffffffffffffffffffff82036128a8576128a76126a9565b5b600182019050919050565b5f819050919050565b5f6128d66128d16128cc846128b3565b612094565b611ffa565b9050919050565b6128e6816128bc565b82525050565b5f6020820190506128ff5f8301846128dd565b92915050565b7f4e487b71000000000000000000000000000000000000000000000000000000005f52602160045260245ffd5b5f61293c82611cd3565b915061294783611cd3565b925082820390508181111561295f5761295e6126a9565b5b92915050565b5f61296f82611cd3565b915061297a83611cd3565b9250828201905080821115612992576129916126a9565b5b92915050565b5f7fff0000000000000000000000000000000000000000000000000000000000000082169050919050565b5f819050919050565b6129dd6129d882612998565b6129c3565b82525050565b5f81519050919050565b5f6129f7826129e3565b612a018185612711565b9350612a1181856020860161230a565b80840191505092915050565b5f612a2882856129cc565b600182019150612a3882846129ed565b91508190509392505050565b5f612a4f82846129ed565b915081905092915050565b7f4e487b71000000000000000000000000000000000000000000000000000000005f52603260045260245ffd5b7f496e76616c69642072616e67653a205f626567696e20697320677265617465725f8201527f207468616e205f656e6400000000000000000000000000000000000000000000602082015250565b5f612ae1602a836122fa565b9150612aec82612a87565b604082019050919050565b5f6020820190508181035f830152612b0e81612ad5565b9050919050565b7f496e76616c69642072616e67653a205f626567696e206f72205f656e642061725f8201527f65206f7574206f6620626f756e64730000000000000000000000000000000000602082015250565b5f612b6f602f836122fa565b9150612b7a82612b15565b604082019050919050565b5f6020820190508181035f830152612b9c81612b63565b9050919050565b5f819050919050565b612bbd612bb882611d96565b612ba3565b82525050565b5f612bce82866129cc565b600182019150612bde8285612bac565b602082019150612bee8284612bac565b60208201915081905094935050505056fea2646970667358221220c1796b49783d1aa9ed4b678c6b031ad6192c5c62f066a01e05a97ab643f8bf3064736f6c63430008180033"
  },
  "id": 29,
  "methodIdentifiers": {
    "UPGRADE_INTERFACE_VERSION()": "ad3cb1cc",
    "acceptOwnership()": "79ba5097",
    "adminSetImageId(bytes32)": "a7e47629",
    "adminSetTrustedState(bytes32,uint64)": "23a4608b",
    "adminSetVerifier(address)": "e6679c26",
    "imageId()": "ef3f7dd5",
    "initialize(address,address,bytes32,uint64,uint64)": "d86ba0e2",
    "latestBlockHash()": "6c4f6ba9",
    "latestHeight()": "e405bbc3",
    "minBatchSize()": "7eeb1c67",
    "owner()": "8da5cb5b",
    "pendingOwner()": "e30c3978",
    "proofNonce()": "ce0bb7e4",
    "proxiableUUID()": "52d1902d",
    "renounceOwnership()": "715018a6",
    "transferOwnership(address)": "f2fde38b",
    "updateRange(bytes,bytes)": "c532514b",
    "upgradeToAndCall(address,bytes)": "4f1ef286",
    "verifier()": "2b7ac3f3",
    "verifyAttestation(uint256,(uint256,bytes32),(bytes32[],uint256,uint256))": "1f3302a9"
  }
}