{
  "abi": [
    {
      "type": "constructor",
      "inputs": [
        {
          "name": "_verifier",
          "type": "address",
          "internalType": "contract IRiscZeroVerifier"
        }
      ],
      "stateMutability": "nonpayable"
    },
    {
      "type": "function",
      "name": "imageId",
      "inputs": [],
      "outputs": [
        {
          "name": "",
          "type": "bytes32",
          "internalType": "bytes32"
        }
      ],
      "stateMutability": "view"
    },
    {
      "type": "function",
      "name": "proofNonce",
      "inputs": [],
      "outputs": [
        {
          "name": "",
          "type": "uint256",
          "internalType": "uint256"
        }
      ],
      "stateMutability": "view"
    },
    {
      "type": "function",
      "name": "updateRange",
      "inputs": [
        {
          "name": "_commit",
          "type": "tuple",
          "internalType": "struct Blobstream0.RangeCommitment",
          "components": [
            {
              "name": "trustedHeaderHash",
              "type": "bytes32",
              "internalType": "bytes32"
            },
            {
              "name": "newHeight",
              "type": "uint256",
              "internalType": "uint256"
            },
            {
              "name": "newHeaderHash",
              "type": "bytes32",
              "internalType": "bytes32"
            },
            {
              "name": "merkleRoot",
              "type": "bytes32",
              "internalType": "bytes32"
            }
          ]
        },
        {
          "name": "_seal",
          "type": "bytes",
          "internalType": "bytes"
        }
      ],
      "outputs": [],
      "stateMutability": "nonpayable"
    },
    {
      "type": "function",
      "name": "verifier",
      "inputs": [],
      "outputs": [
        {
          "name": "",
          "type": "address",
          "internalType": "contract IRiscZeroVerifier"
        }
      ],
      "stateMutability": "view"
    },
    {
      "type": "function",
      "name": "verifyAttestation",
      "inputs": [
        {
          "name": "_proofNonce",
          "type": "uint256",
          "internalType": "uint256"
        },
        {
          "name": "_tuple",
          "type": "tuple",
          "internalType": "struct DataRootTuple",
          "components": [
            {
              "name": "height",
              "type": "uint256",
              "internalType": "uint256"
            },
            {
              "name": "dataRoot",
              "type": "bytes32",
              "internalType": "bytes32"
            }
          ]
        },
        {
          "name": "_proof",
          "type": "tuple",
          "internalType": "struct BinaryMerkleProof",
          "components": [
            {
              "name": "sideNodes",
              "type": "bytes32[]",
              "internalType": "bytes32[]"
            },
            {
              "name": "key",
              "type": "uint256",
              "internalType": "uint256"
            },
            {
              "name": "numLeaves",
              "type": "uint256",
              "internalType": "uint256"
            }
          ]
        }
      ],
      "outputs": [
        {
          "name": "",
          "type": "bool",
          "internalType": "bool"
        }
      ],
      "stateMutability": "view"
    }
  ],
  "bytecode": {
    "object": "0x60a060405234801561001057600080fd5b50604051610d80380380610d8083398101604081905261002f91610040565b6001600160a01b0316608052610070565b60006020828403121561005257600080fd5b81516001600160a01b038116811461006957600080fd5b9392505050565b608051610cef61009160003960008181608901526101c70152610cef6000f3fe608060405234801561001057600080fd5b50600436106100575760003560e01c80631f3302a91461005c5780632b7ac3f3146100845780639e3a09be146100c3578063ce0bb7e4146100d8578063ef3f7dd5146100ef575b600080fd5b61006f61006a3660046109a7565b610116565b60405190151581526020015b60405180910390f35b6100ab7f000000000000000000000000000000000000000000000000000000000000000081565b6040516001600160a01b03909116815260200161007b565b6100d66100d1366004610ac9565b610183565b005b6100e160005481565b60405190815260200161007b565b6100e17f6cd5f9098a32e899c8ad703f0799470fcaa9819ff614031e96ce74e7934e1a1081565b600083158061012757506000548410155b156101345750600061017c565b600084815260016020908152604080832054815187518185015292870151838301528151808403830181526060909301909152919061017690839086906102bf565b50925050505b9392505050565b6040805184516020808301919091528501518183015290840151606080830191909152840151608082015260009060a00160405160208183030381529060405290507f00000000000000000000000000000000000000000000000000000000000000006001600160a01b031663ab750e7584847f6cd5f9098a32e899c8ad703f0799470fcaa9819ff614031e96ce74e7934e1a1060001b60028660405161022a9190610baf565b602060405180830381855afa158015610247573d6000803e3d6000fd5b5050506040513d601f19601f8201168201806040525081019061026a9190610bbb565b6040518563ffffffff1660e01b81526004016102899493929190610bd4565b60006040518083038186803b1580156102a157600080fd5b505afa1580156102b5573d6000803e3d6000fd5b5050505050505050565b60008060018460400151116102e757835151156102e257506000905060016103b8565b61030d565b6102f9846020015185604001516103c0565b8451511461030d57506000905060016103b8565b836040015184602001511061032857506000905060026103b8565b600061033384610458565b8551519091506000036103665784604001516001036103595785149150600090506103b8565b60008092509250506103b8565b60008061038187602001518860400151858a600001516104cd565b9092509050600081600581111561039a5761039a610c14565b146103ad576000945092506103b8915050565b508614925060009150505b935093915050565b6000600182116103d257506000610452565b6103db82610657565b6103e790610100610c40565b905060006103f6600183610c40565b6001901b90506001816104099190610c40565b84116104155750610452565b80600103610427576001915050610452565b6104436104348286610c40565b61043e8386610c40565b6103c0565b61044e906001610c53565b9150505b92915050565b60006002600060f81b83604051602001610473929190610c66565b60408051601f198184030181529082905261048d91610baf565b602060405180830381855afa1580156104aa573d6000803e3d6000fd5b5050506040513d601f19601f820116820180604052508101906104529190610bbb565b600080846000036104e35750829050600361064e565b84600103610508578251156104fd5750829050600461064e565b50829050600061064e565b825160000361051c5750829050600561064e565b600061052786610684565b905060006105448560006001885161053f9190610c40565b6106c5565b90506000828910156105c857600061055e8a858a866104cd565b92509050600082600581111561057657610576610c14565b146105895750869450925061064e915050565b6105b9818860018a5161059c9190610c40565b815181106105ac576105ac610c8a565b6020026020010151610850565b6000955095505050505061064e565b60006105e86105d7858c610c40565b6105e1868c610c40565b8a866104cd565b92509050600082600581111561060057610600610c14565b146106135750869450925061064e915050565b61064387600189516106259190610c40565b8151811061063557610635610c8a565b602002602001015182610850565b600095509550505050505b94509492505050565b60005b81816001901b101561067857610671600182610c53565b905061065a565b61045281610100610c40565b6000600182101561069457600080fd5b600061069f836108ce565b905060006106ae600183610c40565b6001901b905083810361017c5760011c9392505050565b60608183111561072f5760405162461bcd60e51b815260206004820152602a60248201527f496e76616c69642072616e67653a205f626567696e2069732067726561746572604482015269081d1a185b8817d95b9960b21b60648201526084015b60405180910390fd5b835183118061073e5750835182115b156107a35760405162461bcd60e51b815260206004820152602f60248201527f496e76616c69642072616e67653a205f626567696e206f72205f656e6420617260448201526e65206f7574206f6620626f756e647360881b6064820152608401610726565b60006107af8484610c40565b67ffffffffffffffff8111156107c7576107c76108f1565b6040519080825280602002602001820160405280156107f0578160200160208202803683370190505b509050835b838110156108475785818151811061080f5761080f610c8a565b60200260200101518286836108249190610c40565b8151811061083457610834610c8a565b60209081029190910101526001016107f5565b50949350505050565b604051600160f81b6020820152602181018390526041810182905260009060029060610160408051601f198184030181529082905261088e91610baf565b602060405180830381855afa1580156108ab573d6000803e3d6000fd5b5050506040513d601f19601f8201168201806040525081019061017c9190610bbb565b6000805b821561045257806108e281610ca0565b915050600183901c92506108d2565b634e487b7160e01b600052604160045260246000fd5b6040805190810167ffffffffffffffff8111828210171561092a5761092a6108f1565b60405290565b6040516060810167ffffffffffffffff8111828210171561092a5761092a6108f1565b6040516080810167ffffffffffffffff8111828210171561092a5761092a6108f1565b604051601f8201601f1916810167ffffffffffffffff8111828210171561099f5761099f6108f1565b604052919050565b600080600083850360808112156109bd57600080fd5b8435935060206040601f19830112156109d557600080fd5b6109dd610907565b86820135815260408701358282015293506060860135915067ffffffffffffffff80831115610a0b57600080fd5b9186019160608389031215610a1f57600080fd5b610a27610930565b833582811115610a3657600080fd5b8401601f81018a13610a4757600080fd5b803583811115610a5957610a596108f1565b8060051b9350610a6a858501610976565b818152938201850193858101908c861115610a8457600080fd5b928601925b85841015610aa257833582529286019290860190610a89565b80855250505050828401358382015260408401356040820152809450505050509250925092565b600080600083850360a0811215610adf57600080fd5b6080811215610aed57600080fd5b50610af6610953565b8435815260208501356020820152604085013560408201526060850135606082015280935050608084013567ffffffffffffffff80821115610b3757600080fd5b818601915086601f830112610b4b57600080fd5b813581811115610b5a57600080fd5b876020828501011115610b6c57600080fd5b6020830194508093505050509250925092565b6000815160005b81811015610ba05760208185018101518683015201610b86565b50600093019283525090919050565b600061017c8284610b7f565b600060208284031215610bcd57600080fd5b5051919050565b606081528360608201528385608083013760006080858301015260006080601f19601f870116830101905083602083015282604083015295945050505050565b634e487b7160e01b600052602160045260246000fd5b634e487b7160e01b600052601160045260246000fd5b8181038181111561045257610452610c2a565b8082018082111561045257610452610c2a565b6001600160f81b0319831681526000610c826001830184610b7f565b949350505050565b634e487b7160e01b600052603260045260246000fd5b600060018201610cb257610cb2610c2a565b506001019056fea264697066735822122056c994ae416acf08a16567467af2812e22337e9c714ab47ad7398006e77bffce64736f6c63430008170033",
    "linkReferences": {}
  },
  "methodIdentifiers": {
    "imageId()": "ef3f7dd5",
    "proofNonce()": "ce0bb7e4",
    "updateRange((bytes32,uint256,bytes32,bytes32),bytes)": "9e3a09be",
    "verifier()": "2b7ac3f3",
    "verifyAttestation(uint256,(uint256,bytes32),(bytes32[],uint256,uint256))": "1f3302a9"
  },
  "id": 43
}