{
  "abi": [
    {
      "type": "constructor",
      "inputs": [
        {
          "name": "_verifier",
          "type": "address",
          "internalType": "contract IRiscZeroVerifier"
        }
      ],
      "stateMutability": "nonpayable"
    },
    {
      "type": "function",
      "name": "imageId",
      "inputs": [],
      "outputs": [
        {
          "name": "",
          "type": "bytes32",
          "internalType": "bytes32"
        }
      ],
      "stateMutability": "view"
    },
    {
      "type": "function",
      "name": "proofNonce",
      "inputs": [],
      "outputs": [
        {
          "name": "",
          "type": "uint256",
          "internalType": "uint256"
        }
      ],
      "stateMutability": "view"
    },
    {
      "type": "function",
      "name": "verifier",
      "inputs": [],
      "outputs": [
        {
          "name": "",
          "type": "address",
          "internalType": "contract IRiscZeroVerifier"
        }
      ],
      "stateMutability": "view"
    },
    {
      "type": "function",
      "name": "verifyAttestation",
      "inputs": [
        {
          "name": "_proofNonce",
          "type": "uint256",
          "internalType": "uint256"
        },
        {
          "name": "_tuple",
          "type": "tuple",
          "internalType": "struct DataRootTuple",
          "components": [
            {
              "name": "height",
              "type": "uint256",
              "internalType": "uint256"
            },
            {
              "name": "dataRoot",
              "type": "bytes32",
              "internalType": "bytes32"
            }
          ]
        },
        {
          "name": "_proof",
          "type": "tuple",
          "internalType": "struct BinaryMerkleProof",
          "components": [
            {
              "name": "sideNodes",
              "type": "bytes32[]",
              "internalType": "bytes32[]"
            },
            {
              "name": "key",
              "type": "uint256",
              "internalType": "uint256"
            },
            {
              "name": "numLeaves",
              "type": "uint256",
              "internalType": "uint256"
            }
          ]
        }
      ],
      "outputs": [
        {
          "name": "",
          "type": "bool",
          "internalType": "bool"
        }
      ],
      "stateMutability": "view"
    }
  ],
  "bytecode": {
    "object": "0x60a060405234801561001057600080fd5b50604051610b04380380610b0483398101604081905261002f91610040565b6001600160a01b0316608052610070565b60006020828403121561005257600080fd5b81516001600160a01b038116811461006957600080fd5b9392505050565b608051610a7a61008a6000396000607e0152610a7a6000f3fe608060405234801561001057600080fd5b506004361061004c5760003560e01c80631f3302a9146100515780632b7ac3f314610079578063ce0bb7e4146100b8578063ef3f7dd5146100cf575b600080fd5b61006461005f366004610828565b6100f6565b60405190151581526020015b60405180910390f35b6100a07f000000000000000000000000000000000000000000000000000000000000000081565b6040516001600160a01b039091168152602001610070565b6100c160005481565b604051908152602001610070565b6100c17fab69942352c0625a491f19592819a22f0150917c48de5d99cd3fc86441ed5faf81565b600083158061010757506000548410155b156101145750600061015c565b60008481526001602090815260408083205481518751818501529287015183830152815180840383018152606090930190915291906101569083908690610163565b50925050505b9392505050565b600080600184604001511161018b5783515115610186575060009050600161025c565b6101b1565b61019d84602001518560400151610264565b845151146101b1575060009050600161025c565b83604001518460200151106101cc575060009050600261025c565b60006101d7846102fc565b85515190915060000361020a5784604001516001036101fd57851491506000905061025c565b600080925092505061025c565b60008061022587602001518860400151858a60000151610371565b9092509050600081600581111561023e5761023e61094a565b146102515760009450925061025c915050565b508614925060009150505b935093915050565b600060018211610276575060006102f6565b61027f826104fb565b61028b90610100610976565b9050600061029a600183610976565b6001901b90506001816102ad9190610976565b84116102b957506102f6565b806001036102cb5760019150506102f6565b6102e76102d88286610976565b6102e28386610976565b610264565b6102f2906001610989565b9150505b92915050565b60006002600060f81b836040516020016103179291906109cc565b60408051601f1981840301815290829052610331916109f0565b602060405180830381855afa15801561034e573d6000803e3d6000fd5b5050506040513d601f19601f820116820180604052508101906102f691906109fc565b60008084600003610387575082905060036104f2565b846001036103ac578251156103a1575082905060046104f2565b5082905060006104f2565b82516000036103c0575082905060056104f2565b60006103cb86610528565b905060006103e8856000600188516103e39190610976565b610569565b905060008289101561046c5760006104028a858a86610371565b92509050600082600581111561041a5761041a61094a565b1461042d575086945092506104f2915050565b61045d818860018a516104409190610976565b8151811061045057610450610a15565b60200260200101516106f4565b600095509550505050506104f2565b600061048c61047b858c610976565b610485868c610976565b8a86610371565b9250905060008260058111156104a4576104a461094a565b146104b7575086945092506104f2915050565b6104e787600189516104c99190610976565b815181106104d9576104d9610a15565b6020026020010151826106f4565b600095509550505050505b94509492505050565b60005b81816001901b101561051c57610515600182610989565b90506104fe565b6102f681610100610976565b6000600182101561053857600080fd5b600061054383610772565b90506000610552600183610976565b6001901b905083810361015c5760011c9392505050565b6060818311156105d35760405162461bcd60e51b815260206004820152602a60248201527f496e76616c69642072616e67653a205f626567696e2069732067726561746572604482015269081d1a185b8817d95b9960b21b60648201526084015b60405180910390fd5b83518311806105e25750835182115b156106475760405162461bcd60e51b815260206004820152602f60248201527f496e76616c69642072616e67653a205f626567696e206f72205f656e6420617260448201526e65206f7574206f6620626f756e647360881b60648201526084016105ca565b60006106538484610976565b67ffffffffffffffff81111561066b5761066b610795565b604051908082528060200260200182016040528015610694578160200160208202803683370190505b509050835b838110156106eb578581815181106106b3576106b3610a15565b60200260200101518286836106c89190610976565b815181106106d8576106d8610a15565b6020908102919091010152600101610699565b50949350505050565b604051600160f81b6020820152602181018390526041810182905260009060029060610160408051601f1981840301815290829052610732916109f0565b602060405180830381855afa15801561074f573d6000803e3d6000fd5b5050506040513d601f19601f8201168201806040525081019061015c91906109fc565b6000805b82156102f6578061078681610a2b565b915050600183901c9250610776565b634e487b7160e01b600052604160045260246000fd5b6040805190810167ffffffffffffffff811182821017156107ce576107ce610795565b60405290565b6040516060810167ffffffffffffffff811182821017156107ce576107ce610795565b604051601f8201601f1916810167ffffffffffffffff8111828210171561082057610820610795565b604052919050565b6000806000838503608081121561083e57600080fd5b8435935060206040601f198301121561085657600080fd5b61085e6107ab565b86820135815260408701358282015293506060860135915067ffffffffffffffff8083111561088c57600080fd5b91860191606083890312156108a057600080fd5b6108a86107d4565b8335828111156108b757600080fd5b8401601f81018a136108c857600080fd5b8035838111156108da576108da610795565b8060051b93506108eb8585016107f7565b818152938201850193858101908c86111561090557600080fd5b928601925b858410156109235783358252928601929086019061090a565b80855250505050828401358382015260408401356040820152809450505050509250925092565b634e487b7160e01b600052602160045260246000fd5b634e487b7160e01b600052601160045260246000fd5b818103818111156102f6576102f6610960565b808201808211156102f6576102f6610960565b6000815160005b818110156109bd57602081850181015186830152016109a3565b50600093019283525090919050565b6001600160f81b03198316815260006109e8600183018461099c565b949350505050565b600061015c828461099c565b600060208284031215610a0e57600080fd5b5051919050565b634e487b7160e01b600052603260045260246000fd5b600060018201610a3d57610a3d610960565b506001019056fea26469706673582212209a34e44a95a0180124be18420d5e6c03d4e38dbd5906be5ff249ab9177cf259c64736f6c63430008170033",
    "linkReferences": {}
  },
  "methodIdentifiers": {
    "imageId()": "ef3f7dd5",
    "proofNonce()": "ce0bb7e4",
    "verifier()": "2b7ac3f3",
    "verifyAttestation(uint256,(uint256,bytes32),(bytes32[],uint256,uint256))": "1f3302a9"
  },
  "id": 43
}