{
  "abi": [
    {
      "inputs": [
        {
          "internalType": "address",
          "name": "_admin",
          "type": "address"
        },
        {
          "internalType": "contract IRiscZeroVerifier",
          "name": "_verifier",
          "type": "address"
        },
        {
          "internalType": "bytes32",
          "name": "_trustedHash",
          "type": "bytes32"
        },
        {
          "internalType": "uint64",
          "name": "_trustedHeight",
          "type": "uint64"
        }
      ],
      "stateMutability": "nonpayable",
      "type": "constructor"
    },
    {
      "inputs": [],
      "name": "acceptOwnership",
      "outputs": [],
      "stateMutability": "nonpayable",
      "type": "function"
    },
    {
      "inputs": [
        {
          "internalType": "bytes32",
          "name": "_imageId",
          "type": "bytes32"
        }
      ],
      "name": "adminSetImageId",
      "outputs": [],
      "stateMutability": "nonpayable",
      "type": "function"
    },
    {
      "inputs": [
        {
          "internalType": "bytes32",
          "name": "_trustedHash",
          "type": "bytes32"
        },
        {
          "internalType": "uint64",
          "name": "_trustedHeight",
          "type": "uint64"
        }
      ],
      "name": "adminSetTrustedState",
      "outputs": [],
      "stateMutability": "nonpayable",
      "type": "function"
    },
    {
      "inputs": [
        {
          "internalType": "contract IRiscZeroVerifier",
          "name": "_verifier",
          "type": "address"
        }
      ],
      "name": "adminSetVerifier",
      "outputs": [],
      "stateMutability": "nonpayable",
      "type": "function"
    },
    {
      "inputs": [],
      "name": "imageId",
      "outputs": [
        {
          "internalType": "bytes32",
          "name": "",
          "type": "bytes32"
        }
      ],
      "stateMutability": "view",
      "type": "function"
    },
    {
      "inputs": [],
      "name": "latestBlockHash",
      "outputs": [
        {
          "internalType": "bytes32",
          "name": "",
          "type": "bytes32"
        }
      ],
      "stateMutability": "view",
      "type": "function"
    },
    {
      "inputs": [],
      "name": "latestHeight",
      "outputs": [
        {
          "internalType": "uint64",
          "name": "",
          "type": "uint64"
        }
      ],
      "stateMutability": "view",
      "type": "function"
    },
    {
      "inputs": [],
      "name": "owner",
      "outputs": [
        {
          "internalType": "address",
          "name": "",
          "type": "address"
        }
      ],
      "stateMutability": "view",
      "type": "function"
    },
    {
      "inputs": [],
      "name": "pendingOwner",
      "outputs": [
        {
          "internalType": "address",
          "name": "",
          "type": "address"
        }
      ],
      "stateMutability": "view",
      "type": "function"
    },
    {
      "inputs": [],
      "name": "proofNonce",
      "outputs": [
        {
          "internalType": "uint256",
          "name": "",
          "type": "uint256"
        }
      ],
      "stateMutability": "view",
      "type": "function"
    },
    {
      "inputs": [],
      "name": "renounceOwnership",
      "outputs": [],
      "stateMutability": "nonpayable",
      "type": "function"
    },
    {
      "inputs": [
        {
          "internalType": "address",
          "name": "newOwner",
          "type": "address"
        }
      ],
      "name": "transferOwnership",
      "outputs": [],
      "stateMutability": "nonpayable",
      "type": "function"
    },
    {
      "inputs": [
        {
          "components": [
            {
              "internalType": "bytes32",
              "name": "trustedHeaderHash",
              "type": "bytes32"
            },
            {
              "internalType": "uint64",
              "name": "newHeight",
              "type": "uint64"
            },
            {
              "internalType": "bytes32",
              "name": "newHeaderHash",
              "type": "bytes32"
            },
            {
              "internalType": "bytes32",
              "name": "merkleRoot",
              "type": "bytes32"
            }
          ],
          "internalType": "struct RangeCommitment",
          "name": "_commit",
          "type": "tuple"
        },
        {
          "internalType": "bytes",
          "name": "_seal",
          "type": "bytes"
        }
      ],
      "name": "updateRange",
      "outputs": [],
      "stateMutability": "nonpayable",
      "type": "function"
    },
    {
      "inputs": [],
      "name": "verifier",
      "outputs": [
        {
          "internalType": "contract IRiscZeroVerifier",
          "name": "",
          "type": "address"
        }
      ],
      "stateMutability": "view",
      "type": "function"
    },
    {
      "inputs": [
        {
          "internalType": "uint256",
          "name": "_proofNonce",
          "type": "uint256"
        },
        {
          "components": [
            {
              "internalType": "uint256",
              "name": "height",
              "type": "uint256"
            },
            {
              "internalType": "bytes32",
              "name": "dataRoot",
              "type": "bytes32"
            }
          ],
          "internalType": "struct DataRootTuple",
          "name": "_tuple",
          "type": "tuple"
        },
        {
          "components": [
            {
              "internalType": "bytes32[]",
              "name": "sideNodes",
              "type": "bytes32[]"
            },
            {
              "internalType": "uint256",
              "name": "key",
              "type": "uint256"
            },
            {
              "internalType": "uint256",
              "name": "numLeaves",
              "type": "uint256"
            }
          ],
          "internalType": "struct BinaryMerkleProof",
          "name": "_proof",
          "type": "tuple"
        }
      ],
      "name": "verifyAttestation",
      "outputs": [
        {
          "internalType": "bool",
          "name": "",
          "type": "bool"
        }
      ],
      "stateMutability": "view",
      "type": "function"
    },
    {
      "anonymous": false,
      "inputs": [
        {
          "indexed": false,
          "internalType": "uint256",
          "name": "proofNonce",
          "type": "uint256"
        },
        {
          "indexed": true,
          "internalType": "uint64",
          "name": "startBlock",
          "type": "uint64"
        },
        {
          "indexed": true,
          "internalType": "uint64",
          "name": "endBlock",
          "type": "uint64"
        },
        {
          "indexed": true,
          "internalType": "bytes32",
          "name": "dataCommitment",
          "type": "bytes32"
        }
      ],
      "name": "DataCommitmentStored",
      "type": "event"
    },
    {
      "anonymous": false,
      "inputs": [
        {
          "indexed": false,
          "internalType": "uint64",
          "name": "blockNumber",
          "type": "uint64"
        },
        {
          "indexed": false,
          "internalType": "bytes32",
          "name": "headerHash",
          "type": "bytes32"
        }
      ],
      "name": "HeadUpdate",
      "type": "event"
    },
    {
      "anonymous": false,
      "inputs": [
        {
          "indexed": true,
          "internalType": "address",
          "name": "previousOwner",
          "type": "address"
        },
        {
          "indexed": true,
          "internalType": "address",
          "name": "newOwner",
          "type": "address"
        }
      ],
      "name": "OwnershipTransferStarted",
      "type": "event"
    },
    {
      "anonymous": false,
      "inputs": [
        {
          "indexed": true,
          "internalType": "address",
          "name": "previousOwner",
          "type": "address"
        },
        {
          "indexed": true,
          "internalType": "address",
          "name": "newOwner",
          "type": "address"
        }
      ],
      "name": "OwnershipTransferred",
      "type": "event"
    },
    {
      "inputs": [],
      "name": "InvalidTargetHeight",
      "type": "error"
    },
    {
      "inputs": [],
      "name": "InvalidTrustedHeaderHash",
      "type": "error"
    },
    {
      "inputs": [
        {
          "internalType": "address",
          "name": "owner",
          "type": "address"
        }
      ],
      "name": "OwnableInvalidOwner",
      "type": "error"
    },
    {
      "inputs": [
        {
          "internalType": "address",
          "name": "account",
          "type": "address"
        }
      ],
      "name": "OwnableUnauthorizedAccount",
      "type": "error"
    }
  ],
  "bytecode": {
    "linkReferences": {},
    "object": "0x60806040527f78ec222d72105c196e428d11eafb6be20e9a116db361600087310d17c86e06ca6003553480156200003557600080fd5b506040516200131138038062001311833981016040819052620000589162000167565b836001600160a01b0381166200008857604051631e4fbdf760e01b81526000600482015260240160405180910390fd5b6200009381620000e3565b50600280546001600160a01b0319166001600160a01b039490941693909317909255600655600580546001600160401b0319166001600160401b03909216919091179055506001600455620001ce565b600180546001600160a01b0319169055620000fe8162000101565b50565b600080546001600160a01b038381166001600160a01b0319831681178455604051919092169283917f8be0079c531659141344cd1fd0a4f28419497f9722a3daafe3b4186f6b6457e09190a35050565b6001600160a01b0381168114620000fe57600080fd5b600080600080608085870312156200017e57600080fd5b84516200018b8162000151565b60208601519094506200019e8162000151565b6040860151606087015191945092506001600160401b0381168114620001c357600080fd5b939692955090935050565b61113380620001de6000396000f3fe608060405234801561001057600080fd5b50600436106100f55760003560e01c80638da5cb5b11610097578063e405bbc311610066578063e405bbc3146101da578063e6679c2614610205578063ef3f7dd514610218578063f2fde38b1461022157600080fd5b80638da5cb5b1461019c578063a7e47629146101ad578063ce0bb7e4146101c0578063e30c3978146101c957600080fd5b80636c4f6ba9116100d35780636c4f6ba914610162578063715018a61461017957806379ba5097146101815780638a9fbdec1461018957600080fd5b80631f3302a9146100fa57806323a4608b146101225780632b7ac3f314610137575b600080fd5b61010d610108366004610d53565b610234565b60405190151581526020015b60405180910390f35b610135610130366004610e90565b6102a1565b005b60025461014a906001600160a01b031681565b6040516001600160a01b039091168152602001610119565b61016b60065481565b604051908152602001610119565b6101356102d1565b6101356102e5565b610135610197366004610ebc565b61032e565b6000546001600160a01b031661014a565b6101356101bb366004610f78565b610537565b61016b60045481565b6001546001600160a01b031661014a565b6005546101ed906001600160401b031681565b6040516001600160401b039091168152602001610119565b610135610213366004610fa6565b610544565b61016b60035481565b61013561022f366004610fa6565b61056e565b600083158061024557506004548410155b156102525750600061029a565b600084815260076020908152604080832054815187518185015292870151838301528151808403830181526060909301909152919061029490839086906105df565b50925050505b9392505050565b6102a96106e0565b6006919091556005805467ffffffffffffffff19166001600160401b03909216919091179055565b6102d96106e0565b6102e3600061070d565b565b60015433906001600160a01b031681146103225760405163118cdaa760e01b81526001600160a01b03821660048201526024015b60405180910390fd5b61032b8161070d565b50565b60055460208401516001600160401b039182169116116103615760405163145ce5ff60e11b815260040160405180910390fd5b600654835114610384576040516352c6046360e01b815260040160405180910390fd5b6040805184516020808301919091528501516001600160401b03168183015290840151606080830191909152840151608082015260009060a00160408051601f1981840301815290829052600280546003549294506001600160a01b03169263ab750e7592879287926103f8908890610ff3565b602060405180830381855afa158015610415573d6000803e3d6000fd5b5050506040513d601f19601f820116820180604052508101906104389190610fff565b6040518563ffffffff1660e01b81526004016104579493929190611018565b60006040518083038186803b15801561046f57600080fd5b505afa158015610483573d6000803e3d6000fd5b50505060608501516020808701516005546004546040519081529394506001600160401b03918216939116917f34dd3689f5bd77a60a3ff2e09483dcab032fa2f1fd7227af3e24bed21beab1cb910160405180910390a46020848101516005805467ffffffffffffffff19166001600160401b03909216919091179055604080860151600655606086015160048054600090815260079094529183205580549161052c8361106e565b919050555050505050565b61053f6106e0565b600355565b61054c6106e0565b600280546001600160a01b0319166001600160a01b0392909216919091179055565b6105766106e0565b600180546001600160a01b0383166001600160a01b031990911681179091556105a76000546001600160a01b031690565b6001600160a01b03167f38d16b8cac22d99fc7c124b9cd0de2d3fa1faef420bfe791d8c362d765e2270060405160405180910390a350565b6000806001846040015111610607578351511561060257506000905060016106d8565b61062d565b61061984602001518560400151610726565b8451511461062d57506000905060016106d8565b836040015184602001511061064857506000905060026106d8565b6000610653846107be565b8551519091506000036106865784604001516001036106795785149150600090506106d8565b60008092509250506106d8565b6000806106a187602001518860400151858a60000151610833565b909250905060008160058111156106ba576106ba611087565b146106cd576000945092506106d8915050565b508614925060009150505b935093915050565b6000546001600160a01b031633146102e35760405163118cdaa760e01b8152336004820152602401610319565b600180546001600160a01b031916905561032b816109bd565b600060018211610738575060006107b8565b61074182610a0d565b61074d9061010061109d565b9050600061075c60018361109d565b6001901b905060018161076f919061109d565b841161077b57506107b8565b8060010361078d5760019150506107b8565b6107a961079a828661109d565b6107a4838661109d565b610726565b6107b49060016110b0565b9150505b92915050565b60006002600060f81b836040516020016107d99291906110c3565b60408051601f19818403018152908290526107f391610ff3565b602060405180830381855afa158015610810573d6000803e3d6000fd5b5050506040513d601f19601f820116820180604052508101906107b89190610fff565b60008084600003610849575082905060036109b4565b8460010361086e57825115610863575082905060046109b4565b5082905060006109b4565b8251600003610882575082905060056109b4565b600061088d86610a3a565b905060006108aa856000600188516108a5919061109d565b610a7b565b905060008289101561092e5760006108c48a858a86610833565b9250905060008260058111156108dc576108dc611087565b146108ef575086945092506109b4915050565b61091f818860018a51610902919061109d565b81518110610912576109126110e7565b6020026020010151610c00565b600095509550505050506109b4565b600061094e61093d858c61109d565b610947868c61109d565b8a86610833565b92509050600082600581111561096657610966611087565b14610979575086945092506109b4915050565b6109a9876001895161098b919061109d565b8151811061099b5761099b6110e7565b602002602001015182610c00565b600095509550505050505b94509492505050565b600080546001600160a01b038381166001600160a01b0319831681178455604051919092169283917f8be0079c531659141344cd1fd0a4f28419497f9722a3daafe3b4186f6b6457e09190a35050565b60005b81816001901b1015610a2e57610a276001826110b0565b9050610a10565b6107b88161010061109d565b60006001821015610a4a57600080fd5b6000610a5583610c7e565b90506000610a6460018361109d565b6001901b905083810361029a5760011c9392505050565b606081831115610ae05760405162461bcd60e51b815260206004820152602a60248201527f496e76616c69642072616e67653a205f626567696e2069732067726561746572604482015269081d1a185b8817d95b9960b21b6064820152608401610319565b8351831180610aef5750835182115b15610b545760405162461bcd60e51b815260206004820152602f60248201527f496e76616c69642072616e67653a205f626567696e206f72205f656e6420617260448201526e65206f7574206f6620626f756e647360881b6064820152608401610319565b6000610b60848461109d565b6001600160401b03811115610b7757610b77610ca1565b604051908082528060200260200182016040528015610ba0578160200160208202803683370190505b509050835b83811015610bf757858181518110610bbf57610bbf6110e7565b6020026020010151828683610bd4919061109d565b81518110610be457610be46110e7565b6020908102919091010152600101610ba5565b50949350505050565b604051600160f81b6020820152602181018390526041810182905260009060029060610160408051601f1981840301815290829052610c3e91610ff3565b602060405180830381855afa158015610c5b573d6000803e3d6000fd5b5050506040513d601f19601f8201168201806040525081019061029a9190610fff565b6000805b82156107b85780610c928161106e565b915050600183901c9250610c82565b634e487b7160e01b600052604160045260246000fd5b604080519081016001600160401b0381118282101715610cd957610cd9610ca1565b60405290565b604051606081016001600160401b0381118282101715610cd957610cd9610ca1565b604051608081016001600160401b0381118282101715610cd957610cd9610ca1565b604051601f8201601f191681016001600160401b0381118282101715610d4b57610d4b610ca1565b604052919050565b60008060008385036080811215610d6957600080fd5b8435935060206040601f1983011215610d8157600080fd5b610d89610cb7565b8682013581526040870135828201529350606086013591506001600160401b0380831115610db657600080fd5b9186019160608389031215610dca57600080fd5b610dd2610cdf565b833582811115610de157600080fd5b8401601f81018a13610df257600080fd5b803583811115610e0457610e04610ca1565b8060051b9350610e15858501610d23565b818152938201850193858101908c861115610e2f57600080fd5b928601925b85841015610e4d57833582529286019290860190610e34565b80855250505050828401358382015260408401356040820152809450505050509250925092565b80356001600160401b0381168114610e8b57600080fd5b919050565b60008060408385031215610ea357600080fd5b82359150610eb360208401610e74565b90509250929050565b600080600083850360a0811215610ed257600080fd5b6080811215610ee057600080fd5b50610ee9610d01565b84358152610ef960208601610e74565b602082015260408501356040820152606085013560608201528093505060808401356001600160401b0380821115610f3057600080fd5b818601915086601f830112610f4457600080fd5b813581811115610f5357600080fd5b876020828501011115610f6557600080fd5b6020830194508093505050509250925092565b600060208284031215610f8a57600080fd5b5035919050565b6001600160a01b038116811461032b57600080fd5b600060208284031215610fb857600080fd5b813561029a81610f91565b6000815160005b81811015610fe45760208185018101518683015201610fca565b50600093019283525090919050565b600061029a8284610fc3565b60006020828403121561101157600080fd5b5051919050565b606081528360608201528385608083013760006080858301015260006080601f19601f870116830101905083602083015282604083015295945050505050565b634e487b7160e01b600052601160045260246000fd5b60006001820161108057611080611058565b5060010190565b634e487b7160e01b600052602160045260246000fd5b818103818111156107b8576107b8611058565b808201808211156107b8576107b8611058565b6001600160f81b03198316815260006110df6001830184610fc3565b949350505050565b634e487b7160e01b600052603260045260246000fdfea2646970667358221220c38f0142826ac2ff128b9cf4a6d0dde56a56b34b8a885a8cbd4b33e6d42b6d2064736f6c63430008170033"
  },
  "id": 13,
  "methodIdentifiers": {
    "acceptOwnership()": "79ba5097",
    "adminSetImageId(bytes32)": "a7e47629",
    "adminSetTrustedState(bytes32,uint64)": "23a4608b",
    "adminSetVerifier(address)": "e6679c26",
    "imageId()": "ef3f7dd5",
    "latestBlockHash()": "6c4f6ba9",
    "latestHeight()": "e405bbc3",
    "owner()": "8da5cb5b",
    "pendingOwner()": "e30c3978",
    "proofNonce()": "ce0bb7e4",
    "renounceOwnership()": "715018a6",
    "transferOwnership(address)": "f2fde38b",
    "updateRange((bytes32,uint64,bytes32,bytes32),bytes)": "8a9fbdec",
    "verifier()": "2b7ac3f3",
    "verifyAttestation(uint256,(uint256,bytes32),(bytes32[],uint256,uint256))": "1f3302a9"
  }
}