{
  "abi": [
    {
      "inputs": [
        {
          "internalType": "contract IRiscZeroVerifier",
          "name": "_verifier",
          "type": "address"
        },
        {
          "internalType": "bytes32",
          "name": "_trustedHash",
          "type": "bytes32"
        },
        {
          "internalType": "uint64",
          "name": "_trustedHeight",
          "type": "uint64"
        }
      ],
      "stateMutability": "nonpayable",
      "type": "constructor"
    },
    {
      "inputs": [],
      "name": "imageId",
      "outputs": [
        {
          "internalType": "bytes32",
          "name": "",
          "type": "bytes32"
        }
      ],
      "stateMutability": "view",
      "type": "function"
    },
    {
      "inputs": [],
      "name": "latestBlockHash",
      "outputs": [
        {
          "internalType": "bytes32",
          "name": "",
          "type": "bytes32"
        }
      ],
      "stateMutability": "view",
      "type": "function"
    },
    {
      "inputs": [],
      "name": "latestHeight",
      "outputs": [
        {
          "internalType": "uint64",
          "name": "",
          "type": "uint64"
        }
      ],
      "stateMutability": "view",
      "type": "function"
    },
    {
      "inputs": [],
      "name": "proofNonce",
      "outputs": [
        {
          "internalType": "uint256",
          "name": "",
          "type": "uint256"
        }
      ],
      "stateMutability": "view",
      "type": "function"
    },
    {
      "inputs": [
        {
          "components": [
            {
              "internalType": "bytes32",
              "name": "trustedHeaderHash",
              "type": "bytes32"
            },
            {
              "internalType": "uint64",
              "name": "newHeight",
              "type": "uint64"
            },
            {
              "internalType": "bytes32",
              "name": "newHeaderHash",
              "type": "bytes32"
            },
            {
              "internalType": "bytes32",
              "name": "merkleRoot",
              "type": "bytes32"
            }
          ],
          "internalType": "struct RangeCommitment",
          "name": "_commit",
          "type": "tuple"
        },
        {
          "internalType": "bytes",
          "name": "_seal",
          "type": "bytes"
        }
      ],
      "name": "updateRange",
      "outputs": [],
      "stateMutability": "nonpayable",
      "type": "function"
    },
    {
      "inputs": [],
      "name": "verifier",
      "outputs": [
        {
          "internalType": "contract IRiscZeroVerifier",
          "name": "",
          "type": "address"
        }
      ],
      "stateMutability": "view",
      "type": "function"
    },
    {
      "inputs": [
        {
          "internalType": "uint256",
          "name": "_proofNonce",
          "type": "uint256"
        },
        {
          "components": [
            {
              "internalType": "uint256",
              "name": "height",
              "type": "uint256"
            },
            {
              "internalType": "bytes32",
              "name": "dataRoot",
              "type": "bytes32"
            }
          ],
          "internalType": "struct DataRootTuple",
          "name": "_tuple",
          "type": "tuple"
        },
        {
          "components": [
            {
              "internalType": "bytes32[]",
              "name": "sideNodes",
              "type": "bytes32[]"
            },
            {
              "internalType": "uint256",
              "name": "key",
              "type": "uint256"
            },
            {
              "internalType": "uint256",
              "name": "numLeaves",
              "type": "uint256"
            }
          ],
          "internalType": "struct BinaryMerkleProof",
          "name": "_proof",
          "type": "tuple"
        }
      ],
      "name": "verifyAttestation",
      "outputs": [
        {
          "internalType": "bool",
          "name": "",
          "type": "bool"
        }
      ],
      "stateMutability": "view",
      "type": "function"
    },
    {
      "anonymous": false,
      "inputs": [
        {
          "indexed": false,
          "internalType": "uint256",
          "name": "proofNonce",
          "type": "uint256"
        },
        {
          "indexed": true,
          "internalType": "uint64",
          "name": "startBlock",
          "type": "uint64"
        },
        {
          "indexed": true,
          "internalType": "uint64",
          "name": "endBlock",
          "type": "uint64"
        },
        {
          "indexed": true,
          "internalType": "bytes32",
          "name": "dataCommitment",
          "type": "bytes32"
        }
      ],
      "name": "DataCommitmentStored",
      "type": "event"
    },
    {
      "anonymous": false,
      "inputs": [
        {
          "indexed": false,
          "internalType": "uint64",
          "name": "blockNumber",
          "type": "uint64"
        },
        {
          "indexed": false,
          "internalType": "bytes32",
          "name": "headerHash",
          "type": "bytes32"
        }
      ],
      "name": "HeadUpdate",
      "type": "event"
    },
    {
      "inputs": [],
      "name": "InvalidTargetHeight",
      "type": "error"
    },
    {
      "inputs": [],
      "name": "InvalidTrustedHeaderHash",
      "type": "error"
    }
  ],
  "bytecode": {
    "linkReferences": {},
    "object": "0x60a060405234801561001057600080fd5b50604051610f4f380380610f4f83398101604081905261002f91610068565b6001600160a01b0392909216608052600255600180546001600160401b0319166001600160401b039092169190911781556000556100c3565b60008060006060848603121561007d57600080fd5b83516001600160a01b038116811461009457600080fd5b6020850151604086015191945092506001600160401b03811681146100b857600080fd5b809150509250925092565b608051610e6b6100e46000396000818160af01526102800152610e6b6000f3fe608060405234801561001057600080fd5b506004361061007d5760003560e01c80638a9fbdec1161005b5780638a9fbdec14610100578063ce0bb7e414610115578063e405bbc31461011e578063ef3f7dd51461014957600080fd5b80631f3302a9146100825780632b7ac3f3146100aa5780636c4f6ba9146100e9575b600080fd5b610095610090366004610ae1565b610170565b60405190151581526020015b60405180910390f35b6100d17f000000000000000000000000000000000000000000000000000000000000000081565b6040516001600160a01b0390911681526020016100a1565b6100f260025481565b6040519081526020016100a1565b61011361010e366004610c4a565b6101dd565b005b6100f260005481565b600154610131906001600160401b031681565b6040516001600160401b0390911681526020016100a1565b6100f27f170f42765e037ee816032d325c15d81f8e72810d1e14b79694c5db6402561cb081565b600083158061018157506000548410155b1561018e575060006101d6565b60008481526003602090815260408083205481518751818501529287015183830152815180840383018152606090930190915291906101d09083908690610420565b50925050505b9392505050565b60015460208401516001600160401b039182169116116102105760405163145ce5ff60e11b815260040160405180910390fd5b600254835114610233576040516352c6046360e01b815260040160405180910390fd5b6040805184516020808301919091528501516001600160401b03168183015290840151606080830191909152840151608082015260009060a00160405160208183030381529060405290507f00000000000000000000000000000000000000000000000000000000000000006001600160a01b031663ab750e7584847f170f42765e037ee816032d325c15d81f8e72810d1e14b79694c5db6402561cb060001b6002866040516102e39190610d2b565b602060405180830381855afa158015610300573d6000803e3d6000fd5b5050506040513d601f19601f820116820180604052508101906103239190610d37565b6040518563ffffffff1660e01b81526004016103429493929190610d50565b60006040518083038186803b15801561035a57600080fd5b505afa15801561036e573d6000803e3d6000fd5b50505060608501516020808701516001546000546040519081529394506001600160401b03918216939116917f34dd3689f5bd77a60a3ff2e09483dcab032fa2f1fd7227af3e24bed21beab1cb910160405180910390a46020848101516001805467ffffffffffffffff19166001600160401b0390921691909117905560408086015160025560608601516000805481526003909352908220558054908061041583610da6565b919050555050505050565b600080600184604001511161044857835151156104435750600090506001610519565b61046e565b61045a84602001518560400151610521565b8451511461046e5750600090506001610519565b83604001518460200151106104895750600090506002610519565b6000610494846105b9565b8551519091506000036104c75784604001516001036104ba578514915060009050610519565b6000809250925050610519565b6000806104e287602001518860400151858a6000015161062e565b909250905060008160058111156104fb576104fb610dbf565b1461050e57600094509250610519915050565b508614925060009150505b935093915050565b600060018211610533575060006105b3565b61053c826107b8565b61054890610100610dd5565b90506000610557600183610dd5565b6001901b905060018161056a9190610dd5565b841161057657506105b3565b806001036105885760019150506105b3565b6105a46105958286610dd5565b61059f8386610dd5565b610521565b6105af906001610de8565b9150505b92915050565b60006002600060f81b836040516020016105d4929190610dfb565b60408051601f19818403018152908290526105ee91610d2b565b602060405180830381855afa15801561060b573d6000803e3d6000fd5b5050506040513d601f19601f820116820180604052508101906105b39190610d37565b60008084600003610644575082905060036107af565b846001036106695782511561065e575082905060046107af565b5082905060006107af565b825160000361067d575082905060056107af565b6000610688866107e5565b905060006106a5856000600188516106a09190610dd5565b610826565b90506000828910156107295760006106bf8a858a8661062e565b9250905060008260058111156106d7576106d7610dbf565b146106ea575086945092506107af915050565b61071a818860018a516106fd9190610dd5565b8151811061070d5761070d610e1f565b60200260200101516109b0565b600095509550505050506107af565b6000610749610738858c610dd5565b610742868c610dd5565b8a8661062e565b92509050600082600581111561076157610761610dbf565b14610774575086945092506107af915050565b6107a487600189516107869190610dd5565b8151811061079657610796610e1f565b6020026020010151826109b0565b600095509550505050505b94509492505050565b60005b81816001901b10156107d9576107d2600182610de8565b90506107bb565b6105b381610100610dd5565b600060018210156107f557600080fd5b600061080083610a2e565b9050600061080f600183610dd5565b6001901b90508381036101d65760011c9392505050565b6060818311156108905760405162461bcd60e51b815260206004820152602a60248201527f496e76616c69642072616e67653a205f626567696e2069732067726561746572604482015269081d1a185b8817d95b9960b21b60648201526084015b60405180910390fd5b835183118061089f5750835182115b156109045760405162461bcd60e51b815260206004820152602f60248201527f496e76616c69642072616e67653a205f626567696e206f72205f656e6420617260448201526e65206f7574206f6620626f756e647360881b6064820152608401610887565b60006109108484610dd5565b6001600160401b0381111561092757610927610a51565b604051908082528060200260200182016040528015610950578160200160208202803683370190505b509050835b838110156109a75785818151811061096f5761096f610e1f565b60200260200101518286836109849190610dd5565b8151811061099457610994610e1f565b6020908102919091010152600101610955565b50949350505050565b604051600160f81b6020820152602181018390526041810182905260009060029060610160408051601f19818403018152908290526109ee91610d2b565b602060405180830381855afa158015610a0b573d6000803e3d6000fd5b5050506040513d601f19601f820116820180604052508101906101d69190610d37565b6000805b82156105b35780610a4281610da6565b915050600183901c9250610a32565b634e487b7160e01b600052604160045260246000fd5b604080519081016001600160401b0381118282101715610a8957610a89610a51565b60405290565b604051606081016001600160401b0381118282101715610a8957610a89610a51565b604051601f8201601f191681016001600160401b0381118282101715610ad957610ad9610a51565b604052919050565b60008060008385036080811215610af757600080fd5b8435935060206040601f1983011215610b0f57600080fd5b610b17610a67565b8682013581526040870135828201529350606086013591506001600160401b0380831115610b4457600080fd5b9186019160608389031215610b5857600080fd5b610b60610a8f565b833582811115610b6f57600080fd5b8401601f81018a13610b8057600080fd5b803583811115610b9257610b92610a51565b8060051b9350610ba3858501610ab1565b818152938201850193858101908c861115610bbd57600080fd5b928601925b85841015610bdb57833582529286019290860190610bc2565b80855250505050828401358382015260408401356040820152809450505050509250925092565b60008083601f840112610c1457600080fd5b5081356001600160401b03811115610c2b57600080fd5b602083019150836020828501011115610c4357600080fd5b9250929050565b600080600083850360a0811215610c6057600080fd5b6080811215610c6e57600080fd5b50604051608081016001600160401b038282108183111715610c9257610c92610a51565b8160405286358352602087013591508082168214610caf57600080fd5b81602084015260408701356040840152606087013560608401528295506080870135925080831115610ce057600080fd5b5050610cee86828701610c02565b9497909650939450505050565b6000815160005b81811015610d1c5760208185018101518683015201610d02565b50600093019283525090919050565b60006101d68284610cfb565b600060208284031215610d4957600080fd5b5051919050565b606081528360608201528385608083013760006080858301015260006080601f19601f870116830101905083602083015282604083015295945050505050565b634e487b7160e01b600052601160045260246000fd5b600060018201610db857610db8610d90565b5060010190565b634e487b7160e01b600052602160045260246000fd5b818103818111156105b3576105b3610d90565b808201808211156105b3576105b3610d90565b6001600160f81b0319831681526000610e176001830184610cfb565b949350505050565b634e487b7160e01b600052603260045260246000fdfea26469706673582212208a7bcd0dde9ac521bc9a415cc850f5bfcc11a32f88dcb0baa097106c0bed971b64736f6c63430008170033"
  },
  "id": 43,
  "methodIdentifiers": {
    "imageId()": "ef3f7dd5",
    "latestBlockHash()": "6c4f6ba9",
    "latestHeight()": "e405bbc3",
    "proofNonce()": "ce0bb7e4",
    "updateRange((bytes32,uint64,bytes32,bytes32),bytes)": "8a9fbdec",
    "verifier()": "2b7ac3f3",
    "verifyAttestation(uint256,(uint256,bytes32),(bytes32[],uint256,uint256))": "1f3302a9"
  }
}