{
  "abi": [
    {
      "inputs": [
        {
          "internalType": "address",
          "name": "_admin",
          "type": "address"
        },
        {
          "internalType": "contract IRiscZeroVerifier",
          "name": "_verifier",
          "type": "address"
        },
        {
          "internalType": "bytes32",
          "name": "_trustedHash",
          "type": "bytes32"
        },
        {
          "internalType": "uint64",
          "name": "_trustedHeight",
          "type": "uint64"
        }
      ],
      "stateMutability": "nonpayable",
      "type": "constructor"
    },
    {
      "inputs": [],
      "name": "acceptOwnership",
      "outputs": [],
      "stateMutability": "nonpayable",
      "type": "function"
    },
    {
      "inputs": [
        {
          "internalType": "bytes32",
          "name": "_imageId",
          "type": "bytes32"
        }
      ],
      "name": "adminSetImageId",
      "outputs": [],
      "stateMutability": "nonpayable",
      "type": "function"
    },
    {
      "inputs": [
        {
          "internalType": "bytes32",
          "name": "_trustedHash",
          "type": "bytes32"
        },
        {
          "internalType": "uint64",
          "name": "_trustedHeight",
          "type": "uint64"
        }
      ],
      "name": "adminSetTrustedState",
      "outputs": [],
      "stateMutability": "nonpayable",
      "type": "function"
    },
    {
      "inputs": [
        {
          "internalType": "contract IRiscZeroVerifier",
          "name": "_verifier",
          "type": "address"
        }
      ],
      "name": "adminSetVerifier",
      "outputs": [],
      "stateMutability": "nonpayable",
      "type": "function"
    },
    {
      "inputs": [],
      "name": "imageId",
      "outputs": [
        {
          "internalType": "bytes32",
          "name": "",
          "type": "bytes32"
        }
      ],
      "stateMutability": "view",
      "type": "function"
    },
    {
      "inputs": [],
      "name": "latestBlockHash",
      "outputs": [
        {
          "internalType": "bytes32",
          "name": "",
          "type": "bytes32"
        }
      ],
      "stateMutability": "view",
      "type": "function"
    },
    {
      "inputs": [],
      "name": "latestHeight",
      "outputs": [
        {
          "internalType": "uint64",
          "name": "",
          "type": "uint64"
        }
      ],
      "stateMutability": "view",
      "type": "function"
    },
    {
      "inputs": [],
      "name": "owner",
      "outputs": [
        {
          "internalType": "address",
          "name": "",
          "type": "address"
        }
      ],
      "stateMutability": "view",
      "type": "function"
    },
    {
      "inputs": [],
      "name": "pendingOwner",
      "outputs": [
        {
          "internalType": "address",
          "name": "",
          "type": "address"
        }
      ],
      "stateMutability": "view",
      "type": "function"
    },
    {
      "inputs": [],
      "name": "proofNonce",
      "outputs": [
        {
          "internalType": "uint256",
          "name": "",
          "type": "uint256"
        }
      ],
      "stateMutability": "view",
      "type": "function"
    },
    {
      "inputs": [],
      "name": "renounceOwnership",
      "outputs": [],
      "stateMutability": "nonpayable",
      "type": "function"
    },
    {
      "inputs": [
        {
          "internalType": "address",
          "name": "newOwner",
          "type": "address"
        }
      ],
      "name": "transferOwnership",
      "outputs": [],
      "stateMutability": "nonpayable",
      "type": "function"
    },
    {
      "inputs": [
        {
          "components": [
            {
              "internalType": "bytes32",
              "name": "trustedHeaderHash",
              "type": "bytes32"
            },
            {
              "internalType": "uint64",
              "name": "newHeight",
              "type": "uint64"
            },
            {
              "internalType": "bytes32",
              "name": "newHeaderHash",
              "type": "bytes32"
            },
            {
              "internalType": "bytes32",
              "name": "merkleRoot",
              "type": "bytes32"
            }
          ],
          "internalType": "struct RangeCommitment",
          "name": "_commit",
          "type": "tuple"
        },
        {
          "internalType": "bytes",
          "name": "_seal",
          "type": "bytes"
        }
      ],
      "name": "updateRange",
      "outputs": [],
      "stateMutability": "nonpayable",
      "type": "function"
    },
    {
      "inputs": [],
      "name": "verifier",
      "outputs": [
        {
          "internalType": "contract IRiscZeroVerifier",
          "name": "",
          "type": "address"
        }
      ],
      "stateMutability": "view",
      "type": "function"
    },
    {
      "inputs": [
        {
          "internalType": "uint256",
          "name": "_proofNonce",
          "type": "uint256"
        },
        {
          "components": [
            {
              "internalType": "uint256",
              "name": "height",
              "type": "uint256"
            },
            {
              "internalType": "bytes32",
              "name": "dataRoot",
              "type": "bytes32"
            }
          ],
          "internalType": "struct DataRootTuple",
          "name": "_tuple",
          "type": "tuple"
        },
        {
          "components": [
            {
              "internalType": "bytes32[]",
              "name": "sideNodes",
              "type": "bytes32[]"
            },
            {
              "internalType": "uint256",
              "name": "key",
              "type": "uint256"
            },
            {
              "internalType": "uint256",
              "name": "numLeaves",
              "type": "uint256"
            }
          ],
          "internalType": "struct BinaryMerkleProof",
          "name": "_proof",
          "type": "tuple"
        }
      ],
      "name": "verifyAttestation",
      "outputs": [
        {
          "internalType": "bool",
          "name": "",
          "type": "bool"
        }
      ],
      "stateMutability": "view",
      "type": "function"
    },
    {
      "anonymous": false,
      "inputs": [
        {
          "indexed": false,
          "internalType": "uint256",
          "name": "proofNonce",
          "type": "uint256"
        },
        {
          "indexed": true,
          "internalType": "uint64",
          "name": "startBlock",
          "type": "uint64"
        },
        {
          "indexed": true,
          "internalType": "uint64",
          "name": "endBlock",
          "type": "uint64"
        },
        {
          "indexed": true,
          "internalType": "bytes32",
          "name": "dataCommitment",
          "type": "bytes32"
        }
      ],
      "name": "DataCommitmentStored",
      "type": "event"
    },
    {
      "anonymous": false,
      "inputs": [
        {
          "indexed": false,
          "internalType": "uint64",
          "name": "blockNumber",
          "type": "uint64"
        },
        {
          "indexed": false,
          "internalType": "bytes32",
          "name": "headerHash",
          "type": "bytes32"
        }
      ],
      "name": "HeadUpdate",
      "type": "event"
    },
    {
      "anonymous": false,
      "inputs": [
        {
          "indexed": true,
          "internalType": "address",
          "name": "previousOwner",
          "type": "address"
        },
        {
          "indexed": true,
          "internalType": "address",
          "name": "newOwner",
          "type": "address"
        }
      ],
      "name": "OwnershipTransferStarted",
      "type": "event"
    },
    {
      "anonymous": false,
      "inputs": [
        {
          "indexed": true,
          "internalType": "address",
          "name": "previousOwner",
          "type": "address"
        },
        {
          "indexed": true,
          "internalType": "address",
          "name": "newOwner",
          "type": "address"
        }
      ],
      "name": "OwnershipTransferred",
      "type": "event"
    },
    {
      "inputs": [],
      "name": "InvalidTargetHeight",
      "type": "error"
    },
    {
      "inputs": [],
      "name": "InvalidTrustedHeaderHash",
      "type": "error"
    },
    {
      "inputs": [
        {
          "internalType": "address",
          "name": "owner",
          "type": "address"
        }
      ],
      "name": "OwnableInvalidOwner",
      "type": "error"
    },
    {
      "inputs": [
        {
          "internalType": "address",
          "name": "account",
          "type": "address"
        }
      ],
      "name": "OwnableUnauthorizedAccount",
      "type": "error"
    }
  ],
  "bytecode": {
    "linkReferences": {},
    "object": "0x60806040527f875f9439fc8f3867440498d0ff8a7074bd5dc5122f6fb0dfa2431a638b9d0ab66003553480156200003557600080fd5b506040516200134d3803806200134d833981016040819052620000589162000167565b836001600160a01b0381166200008857604051631e4fbdf760e01b81526000600482015260240160405180910390fd5b6200009381620000e3565b50600280546001600160a01b0319166001600160a01b039490941693909317909255600655600580546001600160401b0319166001600160401b03909216919091179055506001600455620001ce565b600180546001600160a01b0319169055620000fe8162000101565b50565b600080546001600160a01b038381166001600160a01b0319831681178455604051919092169283917f8be0079c531659141344cd1fd0a4f28419497f9722a3daafe3b4186f6b6457e09190a35050565b6001600160a01b0381168114620000fe57600080fd5b600080600080608085870312156200017e57600080fd5b84516200018b8162000151565b60208601519094506200019e8162000151565b6040860151606087015191945092506001600160401b0381168114620001c357600080fd5b939692955090935050565b61116f80620001de6000396000f3fe608060405234801561001057600080fd5b50600436106100f55760003560e01c80638da5cb5b11610097578063e405bbc311610066578063e405bbc3146101da578063e6679c2614610205578063ef3f7dd514610218578063f2fde38b1461022157600080fd5b80638da5cb5b1461019c578063a7e47629146101ad578063ce0bb7e4146101c0578063e30c3978146101c957600080fd5b80636c4f6ba9116100d35780636c4f6ba914610162578063715018a61461017957806379ba5097146101815780638a9fbdec1461018957600080fd5b80631f3302a9146100fa57806323a4608b146101225780632b7ac3f314610137575b600080fd5b61010d610108366004610d8f565b610234565b60405190151581526020015b60405180910390f35b610135610130366004610ecc565b6102a1565b005b60025461014a906001600160a01b031681565b6040516001600160a01b039091168152602001610119565b61016b60065481565b604051908152602001610119565b6101356102d1565b6101356102e5565b610135610197366004610ef8565b61032e565b6000546001600160a01b031661014a565b6101356101bb366004610fb4565b610573565b61016b60045481565b6001546001600160a01b031661014a565b6005546101ed906001600160401b031681565b6040516001600160401b039091168152602001610119565b610135610213366004610fe2565b610580565b61016b60035481565b61013561022f366004610fe2565b6105aa565b600083158061024557506004548410155b156102525750600061029a565b6000848152600760209081526040808320548151875181850152928701518383015281518084038301815260609093019091529190610294908390869061061b565b50925050505b9392505050565b6102a961071c565b6006919091556005805467ffffffffffffffff19166001600160401b03909216919091179055565b6102d961071c565b6102e36000610749565b565b60015433906001600160a01b031681146103225760405163118cdaa760e01b81526001600160a01b03821660048201526024015b60405180910390fd5b61032b81610749565b50565b60055460208401516001600160401b039182169116116103615760405163145ce5ff60e11b815260040160405180910390fd5b600654835114610384576040516352c6046360e01b815260040160405180910390fd5b6040805184516020808301919091528501516001600160401b03168183015290840151606080830191909152840151608082015260009060a00160408051601f1981840301815290829052600280546003549294506001600160a01b03169263ab750e7592879287926103f890889061102f565b602060405180830381855afa158015610415573d6000803e3d6000fd5b5050506040513d601f19601f82011682018060405250810190610438919061103b565b6040518563ffffffff1660e01b81526004016104579493929190611054565b60006040518083038186803b15801561046f57600080fd5b505afa158015610483573d6000803e3d6000fd5b50505060608501516020808701516005546004546040519081529394506001600160401b03918216939116917f34dd3689f5bd77a60a3ff2e09483dcab032fa2f1fd7227af3e24bed21beab1cb910160405180910390a46020848101516005805467ffffffffffffffff19166001600160401b03909216918217905560408087015160068190558151928352928201929092527f292f5abc3167175400fca463fa99530cda826ec53ec5eb1f3a2776006dacd75d910160405180910390a1606084015160048054600090815260076020526040812092909255805491610568836110aa565b919050555050505050565b61057b61071c565b600355565b61058861071c565b600280546001600160a01b0319166001600160a01b0392909216919091179055565b6105b261071c565b600180546001600160a01b0383166001600160a01b031990911681179091556105e36000546001600160a01b031690565b6001600160a01b03167f38d16b8cac22d99fc7c124b9cd0de2d3fa1faef420bfe791d8c362d765e2270060405160405180910390a350565b6000806001846040015111610643578351511561063e5750600090506001610714565b610669565b61065584602001518560400151610762565b845151146106695750600090506001610714565b83604001518460200151106106845750600090506002610714565b600061068f846107fa565b8551519091506000036106c25784604001516001036106b5578514915060009050610714565b6000809250925050610714565b6000806106dd87602001518860400151858a6000015161086f565b909250905060008160058111156106f6576106f66110c3565b1461070957600094509250610714915050565b508614925060009150505b935093915050565b6000546001600160a01b031633146102e35760405163118cdaa760e01b8152336004820152602401610319565b600180546001600160a01b031916905561032b816109f9565b600060018211610774575060006107f4565b61077d82610a49565b610789906101006110d9565b905060006107986001836110d9565b6001901b90506001816107ab91906110d9565b84116107b757506107f4565b806001036107c95760019150506107f4565b6107e56107d682866110d9565b6107e083866110d9565b610762565b6107f09060016110ec565b9150505b92915050565b60006002600060f81b836040516020016108159291906110ff565b60408051601f198184030181529082905261082f9161102f565b602060405180830381855afa15801561084c573d6000803e3d6000fd5b5050506040513d601f19601f820116820180604052508101906107f4919061103b565b60008084600003610885575082905060036109f0565b846001036108aa5782511561089f575082905060046109f0565b5082905060006109f0565b82516000036108be575082905060056109f0565b60006108c986610a76565b905060006108e6856000600188516108e191906110d9565b610ab7565b905060008289101561096a5760006109008a858a8661086f565b925090506000826005811115610918576109186110c3565b1461092b575086945092506109f0915050565b61095b818860018a5161093e91906110d9565b8151811061094e5761094e611123565b6020026020010151610c3c565b600095509550505050506109f0565b600061098a610979858c6110d9565b610983868c6110d9565b8a8661086f565b9250905060008260058111156109a2576109a26110c3565b146109b5575086945092506109f0915050565b6109e587600189516109c791906110d9565b815181106109d7576109d7611123565b602002602001015182610c3c565b600095509550505050505b94509492505050565b600080546001600160a01b038381166001600160a01b0319831681178455604051919092169283917f8be0079c531659141344cd1fd0a4f28419497f9722a3daafe3b4186f6b6457e09190a35050565b60005b81816001901b1015610a6a57610a636001826110ec565b9050610a4c565b6107f4816101006110d9565b60006001821015610a8657600080fd5b6000610a9183610cba565b90506000610aa06001836110d9565b6001901b905083810361029a5760011c9392505050565b606081831115610b1c5760405162461bcd60e51b815260206004820152602a60248201527f496e76616c69642072616e67653a205f626567696e2069732067726561746572604482015269081d1a185b8817d95b9960b21b6064820152608401610319565b8351831180610b2b5750835182115b15610b905760405162461bcd60e51b815260206004820152602f60248201527f496e76616c69642072616e67653a205f626567696e206f72205f656e6420617260448201526e65206f7574206f6620626f756e647360881b6064820152608401610319565b6000610b9c84846110d9565b6001600160401b03811115610bb357610bb3610cdd565b604051908082528060200260200182016040528015610bdc578160200160208202803683370190505b509050835b83811015610c3357858181518110610bfb57610bfb611123565b6020026020010151828683610c1091906110d9565b81518110610c2057610c20611123565b6020908102919091010152600101610be1565b50949350505050565b604051600160f81b6020820152602181018390526041810182905260009060029060610160408051601f1981840301815290829052610c7a9161102f565b602060405180830381855afa158015610c97573d6000803e3d6000fd5b5050506040513d601f19601f8201168201806040525081019061029a919061103b565b6000805b82156107f45780610cce816110aa565b915050600183901c9250610cbe565b634e487b7160e01b600052604160045260246000fd5b604080519081016001600160401b0381118282101715610d1557610d15610cdd565b60405290565b604051606081016001600160401b0381118282101715610d1557610d15610cdd565b604051608081016001600160401b0381118282101715610d1557610d15610cdd565b604051601f8201601f191681016001600160401b0381118282101715610d8757610d87610cdd565b604052919050565b60008060008385036080811215610da557600080fd5b8435935060206040601f1983011215610dbd57600080fd5b610dc5610cf3565b8682013581526040870135828201529350606086013591506001600160401b0380831115610df257600080fd5b9186019160608389031215610e0657600080fd5b610e0e610d1b565b833582811115610e1d57600080fd5b8401601f81018a13610e2e57600080fd5b803583811115610e4057610e40610cdd565b8060051b9350610e51858501610d5f565b818152938201850193858101908c861115610e6b57600080fd5b928601925b85841015610e8957833582529286019290860190610e70565b80855250505050828401358382015260408401356040820152809450505050509250925092565b80356001600160401b0381168114610ec757600080fd5b919050565b60008060408385031215610edf57600080fd5b82359150610eef60208401610eb0565b90509250929050565b600080600083850360a0811215610f0e57600080fd5b6080811215610f1c57600080fd5b50610f25610d3d565b84358152610f3560208601610eb0565b602082015260408501356040820152606085013560608201528093505060808401356001600160401b0380821115610f6c57600080fd5b818601915086601f830112610f8057600080fd5b813581811115610f8f57600080fd5b876020828501011115610fa157600080fd5b6020830194508093505050509250925092565b600060208284031215610fc657600080fd5b5035919050565b6001600160a01b038116811461032b57600080fd5b600060208284031215610ff457600080fd5b813561029a81610fcd565b6000815160005b818110156110205760208185018101518683015201611006565b50600093019283525090919050565b600061029a8284610fff565b60006020828403121561104d57600080fd5b5051919050565b606081528360608201528385608083013760006080858301015260006080601f19601f870116830101905083602083015282604083015295945050505050565b634e487b7160e01b600052601160045260246000fd5b6000600182016110bc576110bc611094565b5060010190565b634e487b7160e01b600052602160045260246000fd5b818103818111156107f4576107f4611094565b808201808211156107f4576107f4611094565b6001600160f81b031983168152600061111b6001830184610fff565b949350505050565b634e487b7160e01b600052603260045260246000fdfea26469706673582212206bebdbc10c6742ffe6de1d2f297756ed90548d04138f9db61eb93095d8ce9e2f64736f6c63430008170033"
  },
  "id": 13,
  "methodIdentifiers": {
    "acceptOwnership()": "79ba5097",
    "adminSetImageId(bytes32)": "a7e47629",
    "adminSetTrustedState(bytes32,uint64)": "23a4608b",
    "adminSetVerifier(address)": "e6679c26",
    "imageId()": "ef3f7dd5",
    "latestBlockHash()": "6c4f6ba9",
    "latestHeight()": "e405bbc3",
    "owner()": "8da5cb5b",
    "pendingOwner()": "e30c3978",
    "proofNonce()": "ce0bb7e4",
    "renounceOwnership()": "715018a6",
    "transferOwnership(address)": "f2fde38b",
    "updateRange((bytes32,uint64,bytes32,bytes32),bytes)": "8a9fbdec",
    "verifier()": "2b7ac3f3",
    "verifyAttestation(uint256,(uint256,bytes32),(bytes32[],uint256,uint256))": "1f3302a9"
  }
}