{
  "abi": [
    {
      "inputs": [],
      "name": "UPGRADE_INTERFACE_VERSION",
      "outputs": [
        {
          "internalType": "string",
          "name": "",
          "type": "string"
        }
      ],
      "stateMutability": "view",
      "type": "function"
    },
    {
      "inputs": [],
      "name": "acceptOwnership",
      "outputs": [],
      "stateMutability": "nonpayable",
      "type": "function"
    },
    {
      "inputs": [
        {
          "internalType": "bytes32",
          "name": "_imageId",
          "type": "bytes32"
        }
      ],
      "name": "adminSetImageId",
      "outputs": [],
      "stateMutability": "nonpayable",
      "type": "function"
    },
    {
      "inputs": [
        {
          "internalType": "bytes32",
          "name": "_trustedHash",
          "type": "bytes32"
        },
        {
          "internalType": "uint64",
          "name": "_trustedHeight",
          "type": "uint64"
        }
      ],
      "name": "adminSetTrustedState",
      "outputs": [],
      "stateMutability": "nonpayable",
      "type": "function"
    },
    {
      "inputs": [
        {
          "internalType": "contract IRiscZeroVerifier",
          "name": "_verifier",
          "type": "address"
        }
      ],
      "name": "adminSetVerifier",
      "outputs": [],
      "stateMutability": "nonpayable",
      "type": "function"
    },
    {
      "inputs": [],
      "name": "imageId",
      "outputs": [
        {
          "internalType": "bytes32",
          "name": "",
          "type": "bytes32"
        }
      ],
      "stateMutability": "view",
      "type": "function"
    },
    {
      "inputs": [
        {
          "internalType": "address",
          "name": "_admin",
          "type": "address"
        },
        {
          "internalType": "contract IRiscZeroVerifier",
          "name": "_verifier",
          "type": "address"
        },
        {
          "internalType": "bytes32",
          "name": "_trustedHash",
          "type": "bytes32"
        },
        {
          "internalType": "uint64",
          "name": "_trustedHeight",
          "type": "uint64"
        }
      ],
      "name": "initialize",
      "outputs": [],
      "stateMutability": "nonpayable",
      "type": "function"
    },
    {
      "inputs": [],
      "name": "latestBlockHash",
      "outputs": [
        {
          "internalType": "bytes32",
          "name": "",
          "type": "bytes32"
        }
      ],
      "stateMutability": "view",
      "type": "function"
    },
    {
      "inputs": [],
      "name": "latestHeight",
      "outputs": [
        {
          "internalType": "uint64",
          "name": "",
          "type": "uint64"
        }
      ],
      "stateMutability": "view",
      "type": "function"
    },
    {
      "inputs": [],
      "name": "owner",
      "outputs": [
        {
          "internalType": "address",
          "name": "",
          "type": "address"
        }
      ],
      "stateMutability": "view",
      "type": "function"
    },
    {
      "inputs": [],
      "name": "pendingOwner",
      "outputs": [
        {
          "internalType": "address",
          "name": "",
          "type": "address"
        }
      ],
      "stateMutability": "view",
      "type": "function"
    },
    {
      "inputs": [],
      "name": "proofNonce",
      "outputs": [
        {
          "internalType": "uint256",
          "name": "",
          "type": "uint256"
        }
      ],
      "stateMutability": "view",
      "type": "function"
    },
    {
      "inputs": [],
      "name": "proxiableUUID",
      "outputs": [
        {
          "internalType": "bytes32",
          "name": "",
          "type": "bytes32"
        }
      ],
      "stateMutability": "view",
      "type": "function"
    },
    {
      "inputs": [],
      "name": "renounceOwnership",
      "outputs": [],
      "stateMutability": "nonpayable",
      "type": "function"
    },
    {
      "inputs": [
        {
          "internalType": "address",
          "name": "newOwner",
          "type": "address"
        }
      ],
      "name": "transferOwnership",
      "outputs": [],
      "stateMutability": "nonpayable",
      "type": "function"
    },
    {
      "inputs": [
        {
          "internalType": "bytes",
          "name": "_commitBytes",
          "type": "bytes"
        },
        {
          "internalType": "bytes",
          "name": "_seal",
          "type": "bytes"
        }
      ],
      "name": "updateRange",
      "outputs": [],
      "stateMutability": "nonpayable",
      "type": "function"
    },
    {
      "inputs": [
        {
          "internalType": "address",
          "name": "newImplementation",
          "type": "address"
        },
        {
          "internalType": "bytes",
          "name": "data",
          "type": "bytes"
        }
      ],
      "name": "upgradeToAndCall",
      "outputs": [],
      "stateMutability": "payable",
      "type": "function"
    },
    {
      "inputs": [],
      "name": "verifier",
      "outputs": [
        {
          "internalType": "contract IRiscZeroVerifier",
          "name": "",
          "type": "address"
        }
      ],
      "stateMutability": "view",
      "type": "function"
    },
    {
      "inputs": [
        {
          "internalType": "uint256",
          "name": "_proofNonce",
          "type": "uint256"
        },
        {
          "components": [
            {
              "internalType": "uint256",
              "name": "height",
              "type": "uint256"
            },
            {
              "internalType": "bytes32",
              "name": "dataRoot",
              "type": "bytes32"
            }
          ],
          "internalType": "struct DataRootTuple",
          "name": "_tuple",
          "type": "tuple"
        },
        {
          "components": [
            {
              "internalType": "bytes32[]",
              "name": "sideNodes",
              "type": "bytes32[]"
            },
            {
              "internalType": "uint256",
              "name": "key",
              "type": "uint256"
            },
            {
              "internalType": "uint256",
              "name": "numLeaves",
              "type": "uint256"
            }
          ],
          "internalType": "struct BinaryMerkleProof",
          "name": "_proof",
          "type": "tuple"
        }
      ],
      "name": "verifyAttestation",
      "outputs": [
        {
          "internalType": "bool",
          "name": "",
          "type": "bool"
        }
      ],
      "stateMutability": "view",
      "type": "function"
    },
    {
      "anonymous": false,
      "inputs": [
        {
          "indexed": false,
          "internalType": "uint256",
          "name": "proofNonce",
          "type": "uint256"
        },
        {
          "indexed": true,
          "internalType": "uint64",
          "name": "startBlock",
          "type": "uint64"
        },
        {
          "indexed": true,
          "internalType": "uint64",
          "name": "endBlock",
          "type": "uint64"
        },
        {
          "indexed": true,
          "internalType": "bytes32",
          "name": "dataCommitment",
          "type": "bytes32"
        }
      ],
      "name": "DataCommitmentStored",
      "type": "event"
    },
    {
      "anonymous": false,
      "inputs": [
        {
          "indexed": false,
          "internalType": "uint64",
          "name": "blockNumber",
          "type": "uint64"
        },
        {
          "indexed": false,
          "internalType": "bytes32",
          "name": "headerHash",
          "type": "bytes32"
        }
      ],
      "name": "HeadUpdate",
      "type": "event"
    },
    {
      "anonymous": false,
      "inputs": [
        {
          "indexed": false,
          "internalType": "uint64",
          "name": "version",
          "type": "uint64"
        }
      ],
      "name": "Initialized",
      "type": "event"
    },
    {
      "anonymous": false,
      "inputs": [
        {
          "indexed": true,
          "internalType": "address",
          "name": "previousOwner",
          "type": "address"
        },
        {
          "indexed": true,
          "internalType": "address",
          "name": "newOwner",
          "type": "address"
        }
      ],
      "name": "OwnershipTransferStarted",
      "type": "event"
    },
    {
      "anonymous": false,
      "inputs": [
        {
          "indexed": true,
          "internalType": "address",
          "name": "previousOwner",
          "type": "address"
        },
        {
          "indexed": true,
          "internalType": "address",
          "name": "newOwner",
          "type": "address"
        }
      ],
      "name": "OwnershipTransferred",
      "type": "event"
    },
    {
      "anonymous": false,
      "inputs": [
        {
          "indexed": true,
          "internalType": "address",
          "name": "implementation",
          "type": "address"
        }
      ],
      "name": "Upgraded",
      "type": "event"
    },
    {
      "anonymous": false,
      "inputs": [
        {
          "indexed": false,
          "internalType": "uint64",
          "name": "trustedBlock",
          "type": "uint64"
        },
        {
          "indexed": false,
          "internalType": "uint64",
          "name": "targetBlock",
          "type": "uint64"
        },
        {
          "indexed": false,
          "internalType": "uint256",
          "name": "validatorBitmap",
          "type": "uint256"
        }
      ],
      "name": "ValidatorBitmapEquivocation",
      "type": "event"
    },
    {
      "inputs": [
        {
          "internalType": "address",
          "name": "target",
          "type": "address"
        }
      ],
      "name": "AddressEmptyCode",
      "type": "error"
    },
    {
      "inputs": [
        {
          "internalType": "address",
          "name": "implementation",
          "type": "address"
        }
      ],
      "name": "ERC1967InvalidImplementation",
      "type": "error"
    },
    {
      "inputs": [],
      "name": "ERC1967NonPayable",
      "type": "error"
    },
    {
      "inputs": [],
      "name": "FailedInnerCall",
      "type": "error"
    },
    {
      "inputs": [],
      "name": "InvalidInitialization",
      "type": "error"
    },
    {
      "inputs": [],
      "name": "InvalidTargetHeight",
      "type": "error"
    },
    {
      "inputs": [],
      "name": "InvalidTrustedHeaderHash",
      "type": "error"
    },
    {
      "inputs": [],
      "name": "NotInitializing",
      "type": "error"
    },
    {
      "inputs": [
        {
          "internalType": "address",
          "name": "owner",
          "type": "address"
        }
      ],
      "name": "OwnableInvalidOwner",
      "type": "error"
    },
    {
      "inputs": [
        {
          "internalType": "address",
          "name": "account",
          "type": "address"
        }
      ],
      "name": "OwnableUnauthorizedAccount",
      "type": "error"
    },
    {
      "inputs": [],
      "name": "UUPSUnauthorizedCallContext",
      "type": "error"
    },
    {
      "inputs": [
        {
          "internalType": "bytes32",
          "name": "slot",
          "type": "bytes32"
        }
      ],
      "name": "UUPSUnsupportedProxiableUUID",
      "type": "error"
    }
  ],
  "bytecode": {
    "linkReferences": {},
    "object": "0x60a06040523060805234801561001457600080fd5b50608051611b4961003e60003960008181610b1801528181610b410152610c870152611b496000f3fe6080604052600436106101145760003560e01c8063a7e47629116100a0578063e405bbc311610064578063e405bbc3146102dc578063e6679c2614610314578063ef3f7dd514610334578063f2fde38b1461034a578063fa1f390d1461036a57600080fd5b8063a7e4762914610233578063ad3cb1cc14610253578063c532514b14610291578063ce0bb7e4146102b1578063e30c3978146102c757600080fd5b806352d1902d116100e757806352d1902d146101bb5780636c4f6ba9146101de578063715018a6146101f457806379ba5097146102095780638da5cb5b1461021e57600080fd5b80631f3302a91461011957806323a4608b1461014e5780632b7ac3f3146101705780634f1ef286146101a8575b600080fd5b34801561012557600080fd5b50610139610134366004611592565b61038a565b60405190151581526020015b60405180910390f35b34801561015a57600080fd5b5061016e6101693660046116cf565b6103f7565b005b34801561017c57600080fd5b50600054610190906001600160a01b031681565b6040516001600160a01b039091168152602001610145565b61016e6101b6366004611710565b610427565b3480156101c757600080fd5b506101d0610446565b604051908152602001610145565b3480156101ea57600080fd5b506101d060045481565b34801561020057600080fd5b5061016e610463565b34801561021557600080fd5b5061016e610477565b34801561022a57600080fd5b506101906104c4565b34801561023f57600080fd5b5061016e61024e3660046117b7565b6104f9565b34801561025f57600080fd5b50610284604051806040016040528060058152602001640352e302e360dc1b81525081565b60405161014591906117f4565b34801561029d57600080fd5b5061016e6102ac36600461186f565b610506565b3480156102bd57600080fd5b506101d060025481565b3480156102d357600080fd5b5061019061077c565b3480156102e857600080fd5b506003546102fc906001600160401b031681565b6040516001600160401b039091168152602001610145565b34801561032057600080fd5b5061016e61032f3660046118da565b6107a5565b34801561034057600080fd5b506101d060015481565b34801561035657600080fd5b5061016e6103653660046118da565b6107cf565b34801561037657600080fd5b5061016e6103853660046118f7565b610854565b600083158061039b57506002548410155b156103a8575060006103f0565b60008481526005602090815260408083205481518751818501529287015183830152815180840383018152606090930190915291906103ea90839086906109da565b50925050505b9392505050565b6103ff610adb565b6004919091556003805467ffffffffffffffff19166001600160401b03909216919091179055565b61042f610b0d565b61043882610bb2565b6104428282610bba565b5050565b6000610450610c7c565b50600080516020611af483398151915290565b61046b610adb565b6104756000610cc5565b565b338061048161077c565b6001600160a01b0316146104b85760405163118cdaa760e01b81526001600160a01b03821660048201526024015b60405180910390fd5b6104c181610cc5565b50565b6000807f9016d09d72d40fdae2fd8ceac6b6234c7706214fd39c1cd1e609a0528c1993005b546001600160a01b031692915050565b610501610adb565b600155565b600061051484860186611948565b60035460208201519192506001600160401b0390811691161161054a5760405163145ce5ff60e11b815260040160405180910390fd5b60045481511461056d576040516352c6046360e01b815260040160405180910390fd5b60008054906101000a90046001600160a01b03166001600160a01b031663ab750e75848460015460028a8a6040516105a69291906119bc565b602060405180830381855afa1580156105c3573d6000803e3d6000fd5b5050506040513d601f19601f820116820180604052508101906105e691906119cc565b6040518563ffffffff1660e01b815260040161060594939291906119e5565b60006040518083038186803b15801561061d57600080fd5b505afa158015610631573d6000803e3d6000fd5b50505060608201516020808401516003546002546040519081529394506001600160401b03918216939116917f34dd3689f5bd77a60a3ff2e09483dcab032fa2f1fd7227af3e24bed21beab1cb910160405180910390a46003546020828101516080840151604080516001600160401b03958616815294909216928401929092528201527f034c7608fd99db72330fdb1bcf6386af42ee9b6125664743942b942a8df4a3519060600160405180910390a16020818101516003805467ffffffffffffffff19166001600160401b03909216918217905560408084015160048190558151928352928201929092527f292f5abc3167175400fca463fa99530cda826ec53ec5eb1f3a2776006dacd75d910160405180910390a160608101516002805460009081526005602052604081209290925580549161077083611a3b565b91905055505050505050565b6000807f237e158222e3e6968b72b9db0d8043aacf074ad9f650f0d1606b4d82ee432c006104e9565b6107ad610adb565b600080546001600160a01b0319166001600160a01b0392909216919091179055565b6107d7610adb565b7f237e158222e3e6968b72b9db0d8043aacf074ad9f650f0d1606b4d82ee432c0080546001600160a01b0319166001600160a01b038316908117825561081b6104c4565b6001600160a01b03167f38d16b8cac22d99fc7c124b9cd0de2d3fa1faef420bfe791d8c362d765e2270060405160405180910390a35050565b7ff0c57e16840df040f15088dc2f81fe391c3923bec73e23a9662efc9c229c6a008054600160401b810460ff1615906001600160401b03166000811580156108995750825b90506000826001600160401b031660011480156108b55750303b155b9050811580156108c3575080155b156108e15760405163f92ee8a960e01b815260040160405180910390fd5b845467ffffffffffffffff19166001178555831561090b57845460ff60401b1916600160401b1785555b61091489610cfd565b61091c610d0e565b610924610d0e565b600080546001600160a01b0319166001600160a01b038a1617905560048790556003805467ffffffffffffffff19166001600160401b0388161790557fac42ce3085fbdcb5a330e056b69c5fa2bf4f3fcad5140adb0edbf31c5d761957600190815560025583156109cf57845460ff60401b19168555604051600181527fc7f505b2f371ae2175ee4913f4499e1f2633a7b5936321eed1cdaeb6115181d29060200160405180910390a15b505050505050505050565b6000806001846040015111610a0257835151156109fd5750600090506001610ad3565b610a28565b610a1484602001518560400151610d16565b84515114610a285750600090506001610ad3565b8360400151846020015110610a435750600090506002610ad3565b6000610a4e84610dae565b855151909150600003610a81578460400151600103610a74578514915060009050610ad3565b6000809250925050610ad3565b600080610a9c87602001518860400151858a60000151610e23565b90925090506000816005811115610ab557610ab5611a54565b14610ac857600094509250610ad3915050565b508614925060009150505b935093915050565b33610ae46104c4565b6001600160a01b0316146104755760405163118cdaa760e01b81523360048201526024016104af565b306001600160a01b037f0000000000000000000000000000000000000000000000000000000000000000161480610b9457507f00000000000000000000000000000000000000000000000000000000000000006001600160a01b0316610b88600080516020611af4833981519152546001600160a01b031690565b6001600160a01b031614155b156104755760405163703e46dd60e11b815260040160405180910390fd5b6104c1610adb565b816001600160a01b03166352d1902d6040518163ffffffff1660e01b8152600401602060405180830381865afa925050508015610c14575060408051601f3d908101601f19168201909252610c11918101906119cc565b60015b610c3c57604051634c9c8ce360e01b81526001600160a01b03831660048201526024016104af565b600080516020611af48339815191528114610c6d57604051632a87526960e21b8152600481018290526024016104af565b610c778383610fad565b505050565b306001600160a01b037f000000000000000000000000000000000000000000000000000000000000000016146104755760405163703e46dd60e11b815260040160405180910390fd5b7f237e158222e3e6968b72b9db0d8043aacf074ad9f650f0d1606b4d82ee432c0080546001600160a01b031916815561044282611003565b610d05611074565b6104c1816110bd565b610475611074565b600060018211610d2857506000610da8565b610d31826110ef565b610d3d90610100611a6a565b90506000610d4c600183611a6a565b6001901b9050600181610d5f9190611a6a565b8411610d6b5750610da8565b80600103610d7d576001915050610da8565b610d99610d8a8286611a6a565b610d948386611a6a565b610d16565b610da4906001611a7d565b9150505b92915050565b60006002600060f81b83604051602001610dc9929190611a90565b60408051601f1981840301815290829052610de391611ac1565b602060405180830381855afa158015610e00573d6000803e3d6000fd5b5050506040513d601f19601f82011682018060405250810190610da891906119cc565b60008084600003610e3957508290506003610fa4565b84600103610e5e57825115610e5357508290506004610fa4565b508290506000610fa4565b8251600003610e7257508290506005610fa4565b6000610e7d8661111c565b90506000610e9a85600060018851610e959190611a6a565b61115d565b9050600082891015610f1e576000610eb48a858a86610e23565b925090506000826005811115610ecc57610ecc611a54565b14610edf57508694509250610fa4915050565b610f0f818860018a51610ef29190611a6a565b81518110610f0257610f02611add565b60200260200101516112e2565b60009550955050505050610fa4565b6000610f3e610f2d858c611a6a565b610f37868c611a6a565b8a86610e23565b925090506000826005811115610f5657610f56611a54565b14610f6957508694509250610fa4915050565b610f998760018951610f7b9190611a6a565b81518110610f8b57610f8b611add565b6020026020010151826112e2565b600095509550505050505b94509492505050565b610fb682611360565b6040516001600160a01b038316907fbc7cd75a20ee27fd9adebab32041f755214dbc6bffa90cc0225b39da2e5c2d3b90600090a2805115610ffb57610c7782826113c5565b61044261143b565b7f9016d09d72d40fdae2fd8ceac6b6234c7706214fd39c1cd1e609a0528c19930080546001600160a01b031981166001600160a01b03848116918217845560405192169182907f8be0079c531659141344cd1fd0a4f28419497f9722a3daafe3b4186f6b6457e090600090a3505050565b7ff0c57e16840df040f15088dc2f81fe391c3923bec73e23a9662efc9c229c6a0054600160401b900460ff1661047557604051631afcd79f60e31b815260040160405180910390fd5b6110c5611074565b6001600160a01b0381166104b857604051631e4fbdf760e01b8152600060048201526024016104af565b60005b81816001901b101561111057611109600182611a7d565b90506110f2565b610da881610100611a6a565b6000600182101561112c57600080fd5b60006111378361145a565b90506000611146600183611a6a565b6001901b90508381036103f05760011c9392505050565b6060818311156111c25760405162461bcd60e51b815260206004820152602a60248201527f496e76616c69642072616e67653a205f626567696e2069732067726561746572604482015269081d1a185b8817d95b9960b21b60648201526084016104af565b83518311806111d15750835182115b156112365760405162461bcd60e51b815260206004820152602f60248201527f496e76616c69642072616e67653a205f626567696e206f72205f656e6420617260448201526e65206f7574206f6620626f756e647360881b60648201526084016104af565b60006112428484611a6a565b6001600160401b0381111561125957611259611502565b604051908082528060200260200182016040528015611282578160200160208202803683370190505b509050835b838110156112d9578581815181106112a1576112a1611add565b60200260200101518286836112b69190611a6a565b815181106112c6576112c6611add565b6020908102919091010152600101611287565b50949350505050565b604051600160f81b6020820152602181018390526041810182905260009060029060610160408051601f198184030181529082905261132091611ac1565b602060405180830381855afa15801561133d573d6000803e3d6000fd5b5050506040513d601f19601f820116820180604052508101906103f091906119cc565b806001600160a01b03163b60000361139657604051634c9c8ce360e01b81526001600160a01b03821660048201526024016104af565b600080516020611af483398151915280546001600160a01b0319166001600160a01b0392909216919091179055565b6060600080846001600160a01b0316846040516113e29190611ac1565b600060405180830381855af49150503d806000811461141d576040519150601f19603f3d011682016040523d82523d6000602084013e611422565b606091505b509150915061143285838361147d565b95945050505050565b34156104755760405163b398979f60e01b815260040160405180910390fd5b6000805b8215610da8578061146e81611a3b565b915050600183901c925061145e565b6060826114925761148d826114d9565b6103f0565b81511580156114a957506001600160a01b0384163b155b156114d257604051639996b31560e01b81526001600160a01b03851660048201526024016104af565b50806103f0565b8051156114e95780518082602001fd5b604051630a12f52160e11b815260040160405180910390fd5b634e487b7160e01b600052604160045260246000fd5b604080519081016001600160401b038111828210171561153a5761153a611502565b60405290565b604051606081016001600160401b038111828210171561153a5761153a611502565b604051601f8201601f191681016001600160401b038111828210171561158a5761158a611502565b604052919050565b600080600083850360808112156115a857600080fd5b8435935060206040601f19830112156115c057600080fd5b6115c8611518565b8682013581526040870135828201529350606086013591506001600160401b03808311156115f557600080fd5b918601916060838903121561160957600080fd5b611611611540565b83358281111561162057600080fd5b8401601f81018a1361163157600080fd5b80358381111561164357611643611502565b8060051b9350611654858501611562565b818152938201850193858101908c86111561166e57600080fd5b928601925b8584101561168c57833582529286019290860190611673565b80855250505050828401358382015260408401356040820152809450505050509250925092565b80356001600160401b03811681146116ca57600080fd5b919050565b600080604083850312156116e257600080fd5b823591506116f2602084016116b3565b90509250929050565b6001600160a01b03811681146104c157600080fd5b6000806040838503121561172357600080fd5b823561172e816116fb565b91506020838101356001600160401b038082111561174b57600080fd5b818601915086601f83011261175f57600080fd5b81358181111561177157611771611502565b611783601f8201601f19168501611562565b9150808252878482850101111561179957600080fd5b80848401858401376000848284010152508093505050509250929050565b6000602082840312156117c957600080fd5b5035919050565b60005b838110156117eb5781810151838201526020016117d3565b50506000910152565b60208152600082518060208401526118138160408501602087016117d0565b601f01601f19169190910160400192915050565b60008083601f84011261183957600080fd5b5081356001600160401b0381111561185057600080fd5b60208301915083602082850101111561186857600080fd5b9250929050565b6000806000806040858703121561188557600080fd5b84356001600160401b038082111561189c57600080fd5b6118a888838901611827565b909650945060208701359150808211156118c157600080fd5b506118ce87828801611827565b95989497509550505050565b6000602082840312156118ec57600080fd5b81356103f0816116fb565b6000806000806080858703121561190d57600080fd5b8435611918816116fb565b93506020850135611928816116fb565b92506040850135915061193d606086016116b3565b905092959194509250565b600060a0828403121561195a57600080fd5b60405160a081018181106001600160401b038211171561197c5761197c611502565b6040528235815261198f602084016116b3565b60208201526040830135604082015260608301356060820152608083013560808201528091505092915050565b8183823760009101908152919050565b6000602082840312156119de57600080fd5b5051919050565b606081528360608201528385608083013760006080858301015260006080601f19601f870116830101905083602083015282604083015295945050505050565b634e487b7160e01b600052601160045260246000fd5b600060018201611a4d57611a4d611a25565b5060010190565b634e487b7160e01b600052602160045260246000fd5b81810381811115610da857610da8611a25565b80820180821115610da857610da8611a25565b6001600160f81b0319831681528151600090611ab38160018501602087016117d0565b919091016001019392505050565b60008251611ad38184602087016117d0565b9190910192915050565b634e487b7160e01b600052603260045260246000fdfe360894a13ba1a3210667c828492db98dca3e2076cc3735a920a3ca505d382bbca264697066735822122000681b90220564f12623d2720fb02b5dba8d1d13e069fd2792569cc44608f68464736f6c63430008180033"
  },
  "id": 20,
  "methodIdentifiers": {
    "UPGRADE_INTERFACE_VERSION()": "ad3cb1cc",
    "acceptOwnership()": "79ba5097",
    "adminSetImageId(bytes32)": "a7e47629",
    "adminSetTrustedState(bytes32,uint64)": "23a4608b",
    "adminSetVerifier(address)": "e6679c26",
    "imageId()": "ef3f7dd5",
    "initialize(address,address,bytes32,uint64)": "fa1f390d",
    "latestBlockHash()": "6c4f6ba9",
    "latestHeight()": "e405bbc3",
    "owner()": "8da5cb5b",
    "pendingOwner()": "e30c3978",
    "proofNonce()": "ce0bb7e4",
    "proxiableUUID()": "52d1902d",
    "renounceOwnership()": "715018a6",
    "transferOwnership(address)": "f2fde38b",
    "updateRange(bytes,bytes)": "c532514b",
    "upgradeToAndCall(address,bytes)": "4f1ef286",
    "verifier()": "2b7ac3f3",
    "verifyAttestation(uint256,(uint256,bytes32),(bytes32[],uint256,uint256))": "1f3302a9"
  }
}